{
    "contractName": "MyEpicNft",
    "abi": [
        {
            "inputs": [],
            "stateMutability": "nonpayable",
            "type": "constructor"
        },
        {
            "inputs": [],
            "name": "ApprovalCallerNotOwnerNorApproved",
            "type": "error"
        },
        {
            "inputs": [],
            "name": "ApprovalQueryForNonexistentToken",
            "type": "error"
        },
        {
            "inputs": [],
            "name": "ApprovalToCurrentOwner",
            "type": "error"
        },
        {
            "inputs": [],
            "name": "ApproveToCaller",
            "type": "error"
        },
        {
            "inputs": [],
            "name": "BalanceQueryForZeroAddress",
            "type": "error"
        },
        {
            "inputs": [],
            "name": "MintToZeroAddress",
            "type": "error"
        },
        {
            "inputs": [],
            "name": "MintZeroQuantity",
            "type": "error"
        },
        {
            "inputs": [],
            "name": "OwnerQueryForNonexistentToken",
            "type": "error"
        },
        {
            "inputs": [],
            "name": "TransferCallerNotOwnerNorApproved",
            "type": "error"
        },
        {
            "inputs": [],
            "name": "TransferFromIncorrectOwner",
            "type": "error"
        },
        {
            "inputs": [],
            "name": "TransferToNonERC721ReceiverImplementer",
            "type": "error"
        },
        {
            "inputs": [],
            "name": "TransferToZeroAddress",
            "type": "error"
        },
        {
            "inputs": [],
            "name": "URIQueryForNonexistentToken",
            "type": "error"
        },
        {
            "anonymous": false,
            "inputs": [
                {
                    "indexed": true,
                    "internalType": "address",
                    "name": "owner",
                    "type": "address"
                },
                {
                    "indexed": true,
                    "internalType": "address",
                    "name": "approved",
                    "type": "address"
                },
                {
                    "indexed": true,
                    "internalType": "uint256",
                    "name": "tokenId",
                    "type": "uint256"
                }
            ],
            "name": "Approval",
            "type": "event"
        },
        {
            "anonymous": false,
            "inputs": [
                {
                    "indexed": true,
                    "internalType": "address",
                    "name": "owner",
                    "type": "address"
                },
                {
                    "indexed": true,
                    "internalType": "address",
                    "name": "operator",
                    "type": "address"
                },
                {
                    "indexed": false,
                    "internalType": "bool",
                    "name": "approved",
                    "type": "bool"
                }
            ],
            "name": "ApprovalForAll",
            "type": "event"
        },
        {
            "anonymous": false,
            "inputs": [
                {
                    "indexed": true,
                    "internalType": "address",
                    "name": "previousOwner",
                    "type": "address"
                },
                {
                    "indexed": true,
                    "internalType": "address",
                    "name": "newOwner",
                    "type": "address"
                }
            ],
            "name": "OwnershipTransferred",
            "type": "event"
        },
        {
            "anonymous": false,
            "inputs": [
                {
                    "indexed": true,
                    "internalType": "address",
                    "name": "from",
                    "type": "address"
                },
                {
                    "indexed": true,
                    "internalType": "address",
                    "name": "to",
                    "type": "address"
                },
                {
                    "indexed": true,
                    "internalType": "uint256",
                    "name": "tokenId",
                    "type": "uint256"
                }
            ],
            "name": "Transfer",
            "type": "event"
        },
        {
            "inputs": [],
            "name": "_baseTokenURI",
            "outputs": [
                {
                    "internalType": "string",
                    "name": "",
                    "type": "string"
                }
            ],
            "stateMutability": "view",
            "type": "function"
        },
        {
            "inputs": [
                {
                    "internalType": "address",
                    "name": "",
                    "type": "address"
                }
            ],
            "name": "_tokensMintedByAddress",
            "outputs": [
                {
                    "internalType": "uint256",
                    "name": "",
                    "type": "uint256"
                }
            ],
            "stateMutability": "view",
            "type": "function"
        },
        {
            "inputs": [
                {
                    "internalType": "address",
                    "name": "to",
                    "type": "address"
                },
                {
                    "internalType": "uint256",
                    "name": "tokenId",
                    "type": "uint256"
                }
            ],
            "name": "approve",
            "outputs": [],
            "stateMutability": "nonpayable",
            "type": "function"
        },
        {
            "inputs": [
                {
                    "internalType": "address",
                    "name": "owner",
                    "type": "address"
                }
            ],
            "name": "balanceOf",
            "outputs": [
                {
                    "internalType": "uint256",
                    "name": "",
                    "type": "uint256"
                }
            ],
            "stateMutability": "view",
            "type": "function"
        },
        {
            "inputs": [],
            "name": "contestMerkleRoot",
            "outputs": [
                {
                    "internalType": "bytes32",
                    "name": "",
                    "type": "bytes32"
                }
            ],
            "stateMutability": "view",
            "type": "function"
        },
        {
            "inputs": [
                {
                    "internalType": "uint256",
                    "name": "tokenId",
                    "type": "uint256"
                }
            ],
            "name": "getApproved",
            "outputs": [
                {
                    "internalType": "address",
                    "name": "",
                    "type": "address"
                }
            ],
            "stateMutability": "view",
            "type": "function"
        },
        {
            "inputs": [],
            "name": "homiesProvenance",
            "outputs": [
                {
                    "internalType": "string",
                    "name": "",
                    "type": "string"
                }
            ],
            "stateMutability": "view",
            "type": "function"
        },
        {
            "inputs": [
                {
                    "internalType": "address",
                    "name": "owner",
                    "type": "address"
                },
                {
                    "internalType": "address",
                    "name": "operator",
                    "type": "address"
                }
            ],
            "name": "isApprovedForAll",
            "outputs": [
                {
                    "internalType": "bool",
                    "name": "",
                    "type": "bool"
                }
            ],
            "stateMutability": "view",
            "type": "function"
        },
        {
            "inputs": [],
            "name": "maxContestMint",
            "outputs": [
                {
                    "internalType": "uint256",
                    "name": "",
                    "type": "uint256"
                }
            ],
            "stateMutability": "view",
            "type": "function"
        },
        {
            "inputs": [],
            "name": "maxMint",
            "outputs": [
                {
                    "internalType": "uint256",
                    "name": "",
                    "type": "uint256"
                }
            ],
            "stateMutability": "view",
            "type": "function"
        },
        {
            "inputs": [],
            "name": "maxPresaleMint",
            "outputs": [
                {
                    "internalType": "uint256",
                    "name": "",
                    "type": "uint256"
                }
            ],
            "stateMutability": "view",
            "type": "function"
        },
        {
            "inputs": [
                {
                    "internalType": "uint256",
                    "name": "quantity",
                    "type": "uint256"
                },
                {
                    "internalType": "bytes32[]",
                    "name": "proof",
                    "type": "bytes32[]"
                }
            ],
            "name": "mintContest",
            "outputs": [],
            "stateMutability": "payable",
            "type": "function"
        },
        {
            "inputs": [
                {
                    "internalType": "uint256",
                    "name": "quantity",
                    "type": "uint256"
                }
            ],
            "name": "mintDev",
            "outputs": [],
            "stateMutability": "nonpayable",
            "type": "function"
        },
        {
            "inputs": [
                {
                    "internalType": "uint256",
                    "name": "quantity",
                    "type": "uint256"
                },
                {
                    "internalType": "bytes32[]",
                    "name": "proof",
                    "type": "bytes32[]"
                }
            ],
            "name": "mintPresale",
            "outputs": [],
            "stateMutability": "payable",
            "type": "function"
        },
        {
            "inputs": [
                {
                    "internalType": "uint256",
                    "name": "quantity",
                    "type": "uint256"
                }
            ],
            "name": "mintToken",
            "outputs": [],
            "stateMutability": "payable",
            "type": "function"
        },
        {
            "inputs": [],
            "name": "name",
            "outputs": [
                {
                    "internalType": "string",
                    "name": "",
                    "type": "string"
                }
            ],
            "stateMutability": "view",
            "type": "function"
        },
        {
            "inputs": [],
            "name": "owner",
            "outputs": [
                {
                    "internalType": "address",
                    "name": "",
                    "type": "address"
                }
            ],
            "stateMutability": "view",
            "type": "function"
        },
        {
            "inputs": [
                {
                    "internalType": "uint256",
                    "name": "tokenId",
                    "type": "uint256"
                }
            ],
            "name": "ownerOf",
            "outputs": [
                {
                    "internalType": "address",
                    "name": "",
                    "type": "address"
                }
            ],
            "stateMutability": "view",
            "type": "function"
        },
        {
            "inputs": [],
            "name": "presaleActive",
            "outputs": [
                {
                    "internalType": "bool",
                    "name": "",
                    "type": "bool"
                }
            ],
            "stateMutability": "view",
            "type": "function"
        },
        {
            "inputs": [],
            "name": "presaleMerkleRoot",
            "outputs": [
                {
                    "internalType": "bytes32",
                    "name": "",
                    "type": "bytes32"
                }
            ],
            "stateMutability": "view",
            "type": "function"
        },
        {
            "inputs": [],
            "name": "price",
            "outputs": [
                {
                    "internalType": "uint256",
                    "name": "",
                    "type": "uint256"
                }
            ],
            "stateMutability": "view",
            "type": "function"
        },
        {
            "inputs": [
                {
                    "internalType": "address",
                    "name": "",
                    "type": "address"
                }
            ],
            "name": "publicsaleAddressMinted",
            "outputs": [
                {
                    "internalType": "uint256",
                    "name": "",
                    "type": "uint256"
                }
            ],
            "stateMutability": "view",
            "type": "function"
        },
        {
            "inputs": [],
            "name": "renounceOwnership",
            "outputs": [],
            "stateMutability": "nonpayable",
            "type": "function"
        },
        {
            "inputs": [
                {
                    "internalType": "address",
                    "name": "from",
                    "type": "address"
                },
                {
                    "internalType": "address",
                    "name": "to",
                    "type": "address"
                },
                {
                    "internalType": "uint256",
                    "name": "tokenId",
                    "type": "uint256"
                }
            ],
            "name": "safeTransferFrom",
            "outputs": [],
            "stateMutability": "nonpayable",
            "type": "function"
        },
        {
            "inputs": [
                {
                    "internalType": "address",
                    "name": "from",
                    "type": "address"
                },
                {
                    "internalType": "address",
                    "name": "to",
                    "type": "address"
                },
                {
                    "internalType": "uint256",
                    "name": "tokenId",
                    "type": "uint256"
                },
                {
                    "internalType": "bytes",
                    "name": "_data",
                    "type": "bytes"
                }
            ],
            "name": "safeTransferFrom",
            "outputs": [],
            "stateMutability": "nonpayable",
            "type": "function"
        },
        {
            "inputs": [],
            "name": "saleActive",
            "outputs": [
                {
                    "internalType": "bool",
                    "name": "",
                    "type": "bool"
                }
            ],
            "stateMutability": "view",
            "type": "function"
        },
        {
            "inputs": [
                {
                    "internalType": "address",
                    "name": "operator",
                    "type": "address"
                },
                {
                    "internalType": "bool",
                    "name": "approved",
                    "type": "bool"
                }
            ],
            "name": "setApprovalForAll",
            "outputs": [],
            "stateMutability": "nonpayable",
            "type": "function"
        },
        {
            "inputs": [
                {
                    "internalType": "string",
                    "name": "baseURI",
                    "type": "string"
                }
            ],
            "name": "setBaseURI",
            "outputs": [],
            "stateMutability": "nonpayable",
            "type": "function"
        },
        {
            "inputs": [
                {
                    "internalType": "bytes32",
                    "name": "contestRoot",
                    "type": "bytes32"
                }
            ],
            "name": "setContestMerkleRoot",
            "outputs": [],
            "stateMutability": "nonpayable",
            "type": "function"
        },
        {
            "inputs": [
                {
                    "internalType": "uint256",
                    "name": "_maxContestMint",
                    "type": "uint256"
                }
            ],
            "name": "setMaxContestMint",
            "outputs": [],
            "stateMutability": "nonpayable",
            "type": "function"
        },
        {
            "inputs": [
                {
                    "internalType": "uint256",
                    "name": "_maxMint",
                    "type": "uint256"
                }
            ],
            "name": "setMaxMint",
            "outputs": [],
            "stateMutability": "nonpayable",
            "type": "function"
        },
        {
            "inputs": [
                {
                    "internalType": "uint256",
                    "name": "_maxPresaleMint",
                    "type": "uint256"
                }
            ],
            "name": "setMaxPresaleMint",
            "outputs": [],
            "stateMutability": "nonpayable",
            "type": "function"
        },
        {
            "inputs": [
                {
                    "internalType": "bool",
                    "name": "val",
                    "type": "bool"
                }
            ],
            "name": "setPresaleActive",
            "outputs": [],
            "stateMutability": "nonpayable",
            "type": "function"
        },
        {
            "inputs": [
                {
                    "internalType": "bytes32",
                    "name": "presaleRoot",
                    "type": "bytes32"
                }
            ],
            "name": "setPresaleMerkleRoot",
            "outputs": [],
            "stateMutability": "nonpayable",
            "type": "function"
        },
        {
            "inputs": [
                {
                    "internalType": "uint256",
                    "name": "newPrice",
                    "type": "uint256"
                }
            ],
            "name": "setPrice",
            "outputs": [],
            "stateMutability": "nonpayable",
            "type": "function"
        },
        {
            "inputs": [
                {
                    "internalType": "string",
                    "name": "provenanceHash",
                    "type": "string"
                }
            ],
            "name": "setProvenanceHash",
            "outputs": [],
            "stateMutability": "nonpayable",
            "type": "function"
        },
        {
            "inputs": [
                {
                    "internalType": "bool",
                    "name": "val",
                    "type": "bool"
                }
            ],
            "name": "setSaleActive",
            "outputs": [],
            "stateMutability": "nonpayable",
            "type": "function"
        },
        {
            "inputs": [
                {
                    "internalType": "bytes4",
                    "name": "interfaceId",
                    "type": "bytes4"
                }
            ],
            "name": "supportsInterface",
            "outputs": [
                {
                    "internalType": "bool",
                    "name": "",
                    "type": "bool"
                }
            ],
            "stateMutability": "view",
            "type": "function"
        },
        {
            "inputs": [],
            "name": "symbol",
            "outputs": [
                {
                    "internalType": "string",
                    "name": "",
                    "type": "string"
                }
            ],
            "stateMutability": "view",
            "type": "function"
        },
        {
            "inputs": [
                {
                    "internalType": "uint256",
                    "name": "tokenId",
                    "type": "uint256"
                }
            ],
            "name": "tokenURI",
            "outputs": [
                {
                    "internalType": "string",
                    "name": "",
                    "type": "string"
                }
            ],
            "stateMutability": "view",
            "type": "function"
        },
        {
            "inputs": [],
            "name": "totalSupply",
            "outputs": [
                {
                    "internalType": "uint256",
                    "name": "",
                    "type": "uint256"
                }
            ],
            "stateMutability": "view",
            "type": "function"
        },
        {
            "inputs": [
                {
                    "internalType": "address",
                    "name": "from",
                    "type": "address"
                },
                {
                    "internalType": "address",
                    "name": "to",
                    "type": "address"
                },
                {
                    "internalType": "uint256",
                    "name": "tokenId",
                    "type": "uint256"
                }
            ],
            "name": "transferFrom",
            "outputs": [],
            "stateMutability": "nonpayable",
            "type": "function"
        },
        {
            "inputs": [
                {
                    "internalType": "address",
                    "name": "newOwner",
                    "type": "address"
                }
            ],
            "name": "transferOwnership",
            "outputs": [],
            "stateMutability": "nonpayable",
            "type": "function"
        },
        {
            "inputs": [],
            "name": "withdrawAll",
            "outputs": [],
            "stateMutability": "payable",
            "type": "function"
        }
    ],
    "bytecode": "60806040526611c37937e08000600a556002600b8190556001600c55600d55601580546001600160a01b031990811673b21e19093deec7cd11428ad4619f351e6daad65317909155601680548216737f1086b3aea172d38f51e7fa466eec27ea4585581790556017805490911673660fe4fb6bea04b4cc5c68b0cb99b939d982d8571790553480156200009157600080fd5b5060405180604001604052806009815260200168135e515c1a58d3999d60ba1b81525060405180604001604052806002815260200161090960f31b8152508160029080519060200190620000e79291906200051e565b508051620000fd9060039060208401906200051e565b505060008055506200010f33620001cb565b6001600981905560175462000130916001600160a01b03909116906200021d565b60155462000149906001600160a01b031660016200021d565b60165462000162906001600160a01b031660016200021d565b62000183734210eee2bc528b0a846eaa016ce8167a840b8b2360016200021d565b620001a473c2cb0904b3ee10a71e5e61cdc5044946a1dd498360016200021d565b620001c57328834f2c5643c7d490f51ca60175beda7729ec8960016200021d565b620006ae565b600880546001600160a01b038381166001600160a01b0319831681179093556040519116919082907f8be0079c531659141344cd1fd0a4f28419497f9722a3daafe3b4186f6b6457e090600090a35050565b6200023f8282604051806020016040528060008152506200024360201b60201c565b5050565b62000252838383600162000257565b505050565b6000546001600160a01b0385166200028157604051622e076360e81b815260040160405180910390fd5b83600003620002a35760405163b562e8dd60e01b815260040160405180910390fd5b6001600160a01b038516600081815260056020908152604080832080546001600160801b031981166001600160401b038083168c018116918217680100000000000000006001600160401b031990941690921783900481168c01811690920217909155858452600490925290912080546001600160e01b031916909217600160a01b4290921691909102179055808085018380156200035c57506200035c876001600160a01b03166200041b60201b620015d01760201c565b15620003db575b60405182906001600160a01b0389169060009060008051602062002bef833981519152908290a46001820191620003a0906000908990886200042a565b620003be576040516368d2bf6b60e11b815260040160405180910390fd5b80820362000363578260005414620003d557600080fd5b62000410565b5b6040516001830192906001600160a01b0389169060009060008051602062002bef833981519152908290a4808203620003dc575b506000555050505050565b6001600160a01b03163b151590565b604051630a85bd0160e11b81526000906001600160a01b0385169063150b7a029062000461903390899088908890600401620005c4565b6020604051808303816000875af19250505080156200049f575060408051601f3d908101601f191682019092526200049c918101906200063f565b60015b62000501573d808015620004d0576040519150601f19603f3d011682016040523d82523d6000602084013e620004d5565b606091505b508051600003620004f9576040516368d2bf6b60e11b815260040160405180910390fd5b805181602001fd5b6001600160e01b031916630a85bd0160e11b149050949350505050565b8280546200052c9062000672565b90600052602060002090601f0160209004810192826200055057600085556200059b565b82601f106200056b57805160ff19168380011785556200059b565b828001600101855582156200059b579182015b828111156200059b5782518255916020019190600101906200057e565b50620005a9929150620005ad565b5090565b5b80821115620005a95760008155600101620005ae565b600060018060a01b038087168352602081871681850152856040850152608060608501528451915081608085015260005b82811015620006135785810182015185820160a001528101620005f5565b828111156200062657600060a084870101525b5050601f01601f19169190910160a00195945050505050565b6000602082840312156200065257600080fd5b81516001600160e01b0319811681146200066b57600080fd5b9392505050565b600181811c908216806200068757607f821691505b602082108103620006a857634e487b7160e01b600052602260045260246000fd5b50919050565b61253180620006be6000396000f3fe6080604052600436106102675760003560e01c80637501f74111610144578063b88d4fde116100b6578063e784194c1161007a578063e784194c146106de578063e985e9c5146106f4578063ecafac891461073d578063f2fde38b14610753578063f66ab12e14610773578063fba7d7cb1461079357600080fd5b8063b88d4fde14610656578063c634d03214610676578063c87b56dd14610689578063cfc86f7b146106a9578063e6207234146106be57600080fd5b806391b7f5ed1161010857806391b7f5ed146105c257806395d89b41146105e2578063a035b1fe146105f7578063a22cb4651461060d578063a68f59611461062d578063b45762781461064057600080fd5b80637501f74114610539578063841718a61461054f578063853828b61461056f5780638da5cb5b146105775780638eaf68671461059557600080fd5b80633f8121a2116101dd5780636352211e116101a15780636352211e14610488578063679fb213146104a857806368428a1b146104bd5780636fffbd60146104d757806370a0823114610504578063715018a61461052457600080fd5b80633f8121a2146103e957806342842e0e1461040957806353135ca014610429578063547520fe1461044857806355f804b31461046857600080fd5b8063109695231161022f578063109695231461033057806318160ddd1461035057806322212e2b1461037357806323b872dd1461038957806328d7b276146103a95780633425f90c146103c957600080fd5b806301ffc9a71461026c57806306fdde03146102a1578063081812fc146102c3578063095ea7b3146102fb5780630c0a6b5e1461031d575b600080fd5b34801561027857600080fd5b5061028c610287366004611eed565b6107b3565b60405190151581526020015b60405180910390f35b3480156102ad57600080fd5b506102b6610805565b6040516102989190611f62565b3480156102cf57600080fd5b506102e36102de366004611f75565b610897565b6040516001600160a01b039091168152602001610298565b34801561030757600080fd5b5061031b610316366004611faa565b6108db565b005b61031b61032b366004611fd4565b610968565b34801561033c57600080fd5b5061031b61034b3660046120df565b610bc1565b34801561035c57600080fd5b50600154600054035b604051908152602001610298565b34801561037f57600080fd5b5061036560135481565b34801561039557600080fd5b5061031b6103a4366004612128565b610c02565b3480156103b557600080fd5b5061031b6103c4366004611f75565b610c0d565b3480156103d557600080fd5b5061031b6103e4366004611f75565b610c3c565b3480156103f557600080fd5b5061031b610404366004612174565b610c6b565b34801561041557600080fd5b5061031b610424366004612128565b610caf565b34801561043557600080fd5b50600e5461028c90610100900460ff1681565b34801561045457600080fd5b5061031b610463366004611f75565b610cca565b34801561047457600080fd5b5061031b6104833660046120df565b610cf9565b34801561049457600080fd5b506102e36104a3366004611f75565b610d36565b3480156104b457600080fd5b506102b6610d48565b3480156104c957600080fd5b50600e5461028c9060ff1681565b3480156104e357600080fd5b506103656104f236600461218f565b60126020526000908152604090205481565b34801561051057600080fd5b5061036561051f36600461218f565b610dd6565b34801561053057600080fd5b5061031b610e25565b34801561054557600080fd5b50610365600b5481565b34801561055b57600080fd5b5061031b61056a366004612174565b610e5b565b61031b610e98565b34801561058357600080fd5b506008546001600160a01b03166102e3565b3480156105a157600080fd5b506103656105b036600461218f565b60116020526000908152604090205481565b3480156105ce57600080fd5b5061031b6105dd366004611f75565b610ee6565b3480156105ee57600080fd5b506102b6610f15565b34801561060357600080fd5b50610365600a5481565b34801561061957600080fd5b5061031b6106283660046121aa565b610f24565b61031b61063b366004611fd4565b610fb9565b34801561064c57600080fd5b50610365600c5481565b34801561066257600080fd5b5061031b6106713660046121dd565b611188565b61031b610684366004611f75565b6111d9565b34801561069557600080fd5b506102b66106a4366004611f75565b6113b6565b3480156106b557600080fd5b506102b661143a565b3480156106ca57600080fd5b5061031b6106d9366004611f75565b611447565b3480156106ea57600080fd5b50610365600d5481565b34801561070057600080fd5b5061028c61070f366004612259565b6001600160a01b03918216600090815260076020908152604080832093909416825291909152205460ff1690565b34801561074957600080fd5b5061036560145481565b34801561075f57600080fd5b5061031b61076e36600461218f565b611476565b34801561077f57600080fd5b5061031b61078e366004611f75565b611511565b34801561079f57600080fd5b5061031b6107ae366004611f75565b611540565b60006001600160e01b031982166380ac58cd60e01b14806107e457506001600160e01b03198216635b5e139f60e01b145b806107ff57506301ffc9a760e01b6001600160e01b03198316145b92915050565b60606002805461081490612283565b80601f016020809104026020016040519081016040528092919081815260200182805461084090612283565b801561088d5780601f106108625761010080835404028352916020019161088d565b820191906000526020600020905b81548152906001019060200180831161087057829003601f168201915b5050505050905090565b60006108a2826115df565b6108bf576040516333d1c03960e21b815260040160405180910390fd5b506000908152600660205260409020546001600160a01b031690565b60006108e682610d36565b9050806001600160a01b0316836001600160a01b03160361091a5760405163250fdee360e21b815260040160405180910390fd5b336001600160a01b0382161480159061093a5750610938813361070f565b155b15610958576040516367d9dca160e11b815260040160405180910390fd5b61096383838361160a565b505050565b600e54610100900460ff166109bc5760405162461bcd60e51b815260206004820152601560248201527450726573616c65206973206e6f742061637469766560581b60448201526064015b60405180910390fd5b6002600954036109de5760405162461bcd60e51b81526004016109b3906122bd565b60026009556040805160208084028281018201909352838252610a5692859185918291850190849080828437600092019190915250506013546040516bffffffffffffffffffffffff193360601b16602082015290925060340190505b60405160208183030381529060405280519060200120611666565b610aad5760405162461bcd60e51b815260206004820152602260248201527f41646472657373206973206e6f74206f6e2031204d494e5420416c6c6f776c696044820152611cdd60f21b60648201526084016109b3565b3483600a54610abc919061230a565b14610ad95760405162461bcd60e51b81526004016109b390612329565b600c5433600090815260116020526040902054610af7908590612360565b14610b505760405162461bcd60e51b8152602060048201526024808201527f43616e206f6e6c79206d696e74203120746f6b656e20647572696e672050726560448201526353616c6560e01b60648201526084016109b3565b61271083610b616001546000540390565b610b6b9190612360565b10610b885760405162461bcd60e51b81526004016109b390612378565b3360009081526011602052604081208054859290610ba7908490612360565b90915550610bb79050338461167c565b5050600160095550565b6008546001600160a01b03163314610beb5760405162461bcd60e51b81526004016109b3906123b9565b8051610bfe906010906020840190611e3e565b5050565b610963838383611696565b6008546001600160a01b03163314610c375760405162461bcd60e51b81526004016109b3906123b9565b601355565b6008546001600160a01b03163314610c665760405162461bcd60e51b81526004016109b3906123b9565b600c55565b6008546001600160a01b03163314610c955760405162461bcd60e51b81526004016109b3906123b9565b600e80549115156101000261ff0019909216919091179055565b61096383838360405180602001604052806000815250611188565b6008546001600160a01b03163314610cf45760405162461bcd60e51b81526004016109b3906123b9565b600b55565b6008546001600160a01b03163314610d235760405162461bcd60e51b81526004016109b3906123b9565b8051610bfe90600f906020840190611e3e565b6000610d4182611886565b5192915050565b60108054610d5590612283565b80601f0160208091040260200160405190810160405280929190818152602001828054610d8190612283565b8015610dce5780601f10610da357610100808354040283529160200191610dce565b820191906000526020600020905b815481529060010190602001808311610db157829003601f168201915b505050505081565b60006001600160a01b038216610dff576040516323d3ad8160e21b815260040160405180910390fd5b506001600160a01b031660009081526005602052604090205467ffffffffffffffff1690565b6008546001600160a01b03163314610e4f5760405162461bcd60e51b81526004016109b3906123b9565b610e5960006119a2565b565b6008546001600160a01b03163314610e855760405162461bcd60e51b81526004016109b3906123b9565b600e805460ff1916911515919091179055565b6008546001600160a01b03163314610ec25760405162461bcd60e51b81526004016109b3906123b9565b60405133904780156108fc02916000818181858888f19350505050610e5957600080fd5b6008546001600160a01b03163314610f105760405162461bcd60e51b81526004016109b3906123b9565b600a55565b60606003805461081490612283565b336001600160a01b03831603610f4d5760405163b06307db60e01b815260040160405180910390fd5b3360008181526007602090815260408083206001600160a01b03871680855290835292819020805460ff191686151590811790915590519081529192917f17307eab39ab6107e8899845ad3d59bd9653f200f220920489ca2b5937696c31910160405180910390a35050565b600e54610100900460ff166110085760405162461bcd60e51b815260206004820152601560248201527450726573616c65206973206e6f742061637469766560581b60448201526064016109b3565b60026009540361102a5760405162461bcd60e51b81526004016109b3906122bd565b6002600955604080516020808402828101820190935283825261108b92859185918291850190849080828437600092019190915250506014546040516bffffffffffffffffffffffff193360601b1660208201529092506034019050610a3b565b6110e25760405162461bcd60e51b815260206004820152602260248201527f41646472657373206973206e6f74206f6e2032204d494e5420416c6c6f776c696044820152611cdd60f21b60648201526084016109b3565b3483600a546110f1919061230a565b1461110e5760405162461bcd60e51b81526004016109b390612329565b600d543360009081526011602052604090205461112c908590612360565b1115610b505760405162461bcd60e51b815260206004820152602560248201527f43616e206f6e6c79206d696e74203220746f6b656e7320647572696e672050726044820152646553616c6560d81b60648201526084016109b3565b611193848484611696565b6001600160a01b0383163b151580156111b557506111b3848484846119f4565b155b156111d3576040516368d2bf6b60e11b815260040160405180910390fd5b50505050565b600e5460ff1661122b5760405162461bcd60e51b815260206004820152601960248201527f5075626c69632073616c65206973206e6f74206163746976650000000000000060448201526064016109b3565b60026009540361124d5760405162461bcd60e51b81526004016109b3906122bd565b6002600955600b548111156112ae5760405162461bcd60e51b815260206004820152602160248201527f596f752063616e206e6f74206d696e74206d6f7265207468616e20616c6f77656044820152601960fa1b60648201526084016109b3565b3481600a546112bd919061230a565b146112da5760405162461bcd60e51b81526004016109b390612329565b600b54336000908152601260205260409020546112f8908390612360565b11156113465760405162461bcd60e51b815260206004820152601a60248201527f43616e206f6e6c79206d696e742032207065722077616c6c657400000000000060448201526064016109b3565b612710816113576001546000540390565b6113619190612360565b111561137f5760405162461bcd60e51b81526004016109b390612378565b336000908152601260205260408120805483929061139e908490612360565b909155506113ae9050338261167c565b506001600955565b60606113c1826115df565b6113de57604051630a14c4b560e41b815260040160405180910390fd5b60006113e8611ae0565b905080516000036114085760405180602001604052806000815250611433565b8061141284611aef565b6040516020016114239291906123ee565b6040516020818303038152906040525b9392505050565b600f8054610d5590612283565b6008546001600160a01b031633146114715760405162461bcd60e51b81526004016109b3906123b9565b600d55565b6008546001600160a01b031633146114a05760405162461bcd60e51b81526004016109b3906123b9565b6001600160a01b0381166115055760405162461bcd60e51b815260206004820152602660248201527f4f776e61626c653a206e6577206f776e657220697320746865207a65726f206160448201526564647265737360d01b60648201526084016109b3565b61150e816119a2565b50565b6008546001600160a01b0316331461153b5760405162461bcd60e51b81526004016109b3906123b9565b601455565b6008546001600160a01b0316331461156a5760405162461bcd60e51b81526004016109b3906123b9565b6127108161157b6001546000540390565b6115859190612360565b11156115c65760405162461bcd60e51b815260206004820152601060248201526f4d696e74696e6720746f6f206d616e7960801b60448201526064016109b3565b61150e338261167c565b6001600160a01b03163b151590565b60008054821080156107ff575050600090815260046020526040902054600160e01b900460ff161590565b60008281526006602052604080822080546001600160a01b0319166001600160a01b0387811691821790925591518593918516917f8c5be1e5ebec7d5bd14f71427d1e84f3dd0314c0f7b2291e5b200ac8c7c3b92591a4505050565b6000826116738584611bf0565b14949350505050565b610bfe828260405180602001604052806000815250611c64565b60006116a182611886565b9050836001600160a01b031681600001516001600160a01b0316146116d85760405162a1148160e81b815260040160405180910390fd5b6000336001600160a01b03861614806116f657506116f6853361070f565b8061171157503361170684610897565b6001600160a01b0316145b90508061173157604051632ce44b5f60e11b815260040160405180910390fd5b6001600160a01b03841661175857604051633a954ecd60e21b815260040160405180910390fd5b6117646000848761160a565b6001600160a01b038581166000908152600560209081526040808320805467ffffffffffffffff1980821667ffffffffffffffff92831660001901831617909255898616808652838620805493841693831660019081018416949094179055898652600490945282852080546001600160e01b031916909417600160a01b4290921691909102178355870180845292208054919390911661183a57600054821461183a578054602086015167ffffffffffffffff16600160a01b026001600160e01b03199091166001600160a01b038a16171781555b50505082846001600160a01b0316866001600160a01b03167fddf252ad1be2c89b69c2b068fc378daa952ba7f163c4a11628f55a4df523b3ef60405160405180910390a45b5050505050565b60408051606081018252600080825260208201819052918101919091528160005481101561198957600081815260046020908152604091829020825160608101845290546001600160a01b0381168252600160a01b810467ffffffffffffffff1692820192909252600160e01b90910460ff161515918101829052906119875780516001600160a01b03161561191d579392505050565b5060001901600081815260046020908152604091829020825160608101845290546001600160a01b038116808352600160a01b820467ffffffffffffffff1693830193909352600160e01b900460ff1615159281019290925215611982579392505050565b61191d565b505b604051636f96cda160e11b815260040160405180910390fd5b600880546001600160a01b038381166001600160a01b0319831681179093556040519116919082907f8be0079c531659141344cd1fd0a4f28419497f9722a3daafe3b4186f6b6457e090600090a35050565b604051630a85bd0160e11b81526000906001600160a01b0385169063150b7a0290611a2990339089908890889060040161241d565b6020604051808303816000875af1925050508015611a64575060408051601f3d908101601f19168201909252611a619181019061245a565b60015b611ac2573d808015611a92576040519150601f19603f3d011682016040523d82523d6000602084013e611a97565b606091505b508051600003611aba576040516368d2bf6b60e11b815260040160405180910390fd5b805181602001fd5b6001600160e01b031916630a85bd0160e11b1490505b949350505050565b6060600f805461081490612283565b606081600003611b165750506040805180820190915260018152600360fc1b602082015290565b8160005b8115611b405780611b2a81612477565b9150611b399050600a836124a6565b9150611b1a565b60008167ffffffffffffffff811115611b5b57611b5b612053565b6040519080825280601f01601f191660200182016040528015611b85576020820181803683370190505b5090505b8415611ad857611b9a6001836124ba565b9150611ba7600a866124d1565b611bb2906030612360565b60f81b818381518110611bc757611bc76124e5565b60200101906001600160f81b031916908160001a905350611be9600a866124a6565b9450611b89565b600081815b8451811015611c5c576000858281518110611c1257611c126124e5565b60200260200101519050808311611c385760008381526020829052604090209250611c49565b600081815260208490526040902092505b5080611c5481612477565b915050611bf5565b509392505050565b61096383838360016000546001600160a01b038516611c9557604051622e076360e81b815260040160405180910390fd5b83600003611cb65760405163b562e8dd60e01b815260040160405180910390fd5b6001600160a01b038516600081815260056020908152604080832080546fffffffffffffffffffffffffffffffff19811667ffffffffffffffff8083168c0181169182176801000000000000000067ffffffffffffffff1990941690921783900481168c01811690920217909155858452600490925290912080546001600160e01b031916909217600160a01b429092169190910217905580808501838015611d6857506001600160a01b0387163b15155b15611df0575b60405182906001600160a01b038916906000907fddf252ad1be2c89b69c2b068fc378daa952ba7f163c4a11628f55a4df523b3ef908290a4611db960008884806001019550886119f4565b611dd6576040516368d2bf6b60e11b815260040160405180910390fd5b808203611d6e578260005414611deb57600080fd5b611e35565b5b6040516001830192906001600160a01b038916906000907fddf252ad1be2c89b69c2b068fc378daa952ba7f163c4a11628f55a4df523b3ef908290a4808203611df1575b5060005561187f565b828054611e4a90612283565b90600052602060002090601f016020900481019282611e6c5760008555611eb2565b82601f10611e8557805160ff1916838001178555611eb2565b82800160010185558215611eb2579182015b82811115611eb2578251825591602001919060010190611e97565b50611ebe929150611ec2565b5090565b5b80821115611ebe5760008155600101611ec3565b6001600160e01b03198116811461150e57600080fd5b600060208284031215611eff57600080fd5b813561143381611ed7565b60005b83811015611f25578181015183820152602001611f0d565b838111156111d35750506000910152565b60008151808452611f4e816020860160208601611f0a565b601f01601f19169290920160200192915050565b6020815260006114336020830184611f36565b600060208284031215611f8757600080fd5b5035919050565b80356001600160a01b0381168114611fa557600080fd5b919050565b60008060408385031215611fbd57600080fd5b611fc683611f8e565b946020939093013593505050565b600080600060408486031215611fe957600080fd5b83359250602084013567ffffffffffffffff8082111561200857600080fd5b818601915086601f83011261201c57600080fd5b81358181111561202b57600080fd5b8760208260051b850101111561204057600080fd5b6020830194508093505050509250925092565b634e487b7160e01b600052604160045260246000fd5b600067ffffffffffffffff8084111561208457612084612053565b604051601f8501601f19908116603f011681019082821181831017156120ac576120ac612053565b816040528093508581528686860111156120c557600080fd5b858560208301376000602087830101525050509392505050565b6000602082840312156120f157600080fd5b813567ffffffffffffffff81111561210857600080fd5b8201601f8101841361211957600080fd5b611ad884823560208401612069565b60008060006060848603121561213d57600080fd5b61214684611f8e565b925061215460208501611f8e565b9150604084013590509250925092565b80358015158114611fa557600080fd5b60006020828403121561218657600080fd5b61143382612164565b6000602082840312156121a157600080fd5b61143382611f8e565b600080604083850312156121bd57600080fd5b6121c683611f8e565b91506121d460208401612164565b90509250929050565b600080600080608085870312156121f357600080fd5b6121fc85611f8e565b935061220a60208601611f8e565b925060408501359150606085013567ffffffffffffffff81111561222d57600080fd5b8501601f8101871361223e57600080fd5b61224d87823560208401612069565b91505092959194509250565b6000806040838503121561226c57600080fd5b61227583611f8e565b91506121d460208401611f8e565b600181811c9082168061229757607f821691505b6020821081036122b757634e487b7160e01b600052602260045260246000fd5b50919050565b6020808252601f908201527f5265656e7472616e637947756172643a207265656e7472616e742063616c6c00604082015260600190565b634e487b7160e01b600052601160045260246000fd5b6000816000190483118215151615612324576123246122f4565b500290565b60208082526017908201527f57726f6e6720616d6f7574206f66204554482073656e74000000000000000000604082015260600190565b60008219821115612373576123736122f4565b500190565b60208082526021908201527f43616e206e6f74206d696e74206d6f7265207468616e206d617820737570706c6040820152607960f81b606082015260800190565b6020808252818101527f4f776e61626c653a2063616c6c6572206973206e6f7420746865206f776e6572604082015260600190565b60008351612400818460208801611f0a565b835190830190612414818360208801611f0a565b01949350505050565b6001600160a01b038581168252841660208201526040810183905260806060820181905260009061245090830184611f36565b9695505050505050565b60006020828403121561246c57600080fd5b815161143381611ed7565b600060018201612489576124896122f4565b5060010190565b634e487b7160e01b600052601260045260246000fd5b6000826124b5576124b5612490565b500490565b6000828210156124cc576124cc6122f4565b500390565b6000826124e0576124e0612490565b500690565b634e487b7160e01b600052603260045260246000fdfea2646970667358221220d2e4d7afbc29ebe08ff04d7f1791ffd035b33ebc601ef1ad0d2c4aa71f94c81a64736f6c634300080d0033ddf252ad1be2c89b69c2b068fc378daa952ba7f163c4a11628f55a4df523b3ef",
    "sourcePath": "c:/Users/Robert/Documents/GitHub/erc721a-smart-contract-merkle-whitelist/contracts/MyEpicNft.sol",
    "compiler": {
        "name": "solc",
        "version": "0.8.13+commit.abaa5c0e"
    },
    "functionHashes": {
        "_baseTokenURI()": "cfc86f7b",
        "_tokensMintedByAddress(address)": "8eaf6867",
        "approve(address,uint256)": "095ea7b3",
        "balanceOf(address)": "70a08231",
        "contestMerkleRoot()": "ecafac89",
        "getApproved(uint256)": "081812fc",
        "homiesProvenance()": "679fb213",
        "isApprovedForAll(address,address)": "e985e9c5",
        "maxContestMint()": "e784194c",
        "maxMint()": "7501f741",
        "maxPresaleMint()": "b4576278",
        "mintContest(uint256,bytes32[])": "a68f5961",
        "mintDev(uint256)": "fba7d7cb",
        "mintPresale(uint256,bytes32[])": "0c0a6b5e",
        "mintToken(uint256)": "c634d032",
        "name()": "06fdde03",
        "owner()": "8da5cb5b",
        "ownerOf(uint256)": "6352211e",
        "presaleActive()": "53135ca0",
        "presaleMerkleRoot()": "22212e2b",
        "price()": "a035b1fe",
        "publicsaleAddressMinted(address)": "6fffbd60",
        "renounceOwnership()": "715018a6",
        "safeTransferFrom(address,address,uint256)": "42842e0e",
        "safeTransferFrom(address,address,uint256,bytes)": "b88d4fde",
        "saleActive()": "68428a1b",
        "setApprovalForAll(address,bool)": "a22cb465",
        "setBaseURI(string)": "55f804b3",
        "setContestMerkleRoot(bytes32)": "f66ab12e",
        "setMaxContestMint(uint256)": "e6207234",
        "setMaxMint(uint256)": "547520fe",
        "setMaxPresaleMint(uint256)": "3425f90c",
        "setPresaleActive(bool)": "3f8121a2",
        "setPresaleMerkleRoot(bytes32)": "28d7b276",
        "setPrice(uint256)": "91b7f5ed",
        "setProvenanceHash(string)": "10969523",
        "setSaleActive(bool)": "841718a6",
        "supportsInterface(bytes4)": "01ffc9a7",
        "symbol()": "95d89b41",
        "tokenURI(uint256)": "c87b56dd",
        "totalSupply()": "18160ddd",
        "transferFrom(address,address,uint256)": "23b872dd",
        "transferOwnership(address)": "f2fde38b",
        "withdrawAll()": "853828b6"
    },
    "gasEstimates": {
        "creation": {
            "codeDepositCost": "1904200",
            "executionCost": "infinite",
            "totalCost": "infinite"
        },
        "external": {
            "_baseTokenURI()": "infinite",
            "_tokensMintedByAddress(address)": "2653",
            "approve(address,uint256)": "infinite",
            "balanceOf(address)": "2728",
            "contestMerkleRoot()": "2383",
            "getApproved(uint256)": "6959",
            "homiesProvenance()": "infinite",
            "isApprovedForAll(address,address)": "infinite",
            "maxContestMint()": "2339",
            "maxMint()": "2341",
            "maxPresaleMint()": "2450",
            "mintContest(uint256,bytes32[])": "infinite",
            "mintDev(uint256)": "infinite",
            "mintPresale(uint256,bytes32[])": "infinite",
            "mintToken(uint256)": "infinite",
            "name()": "infinite",
            "owner()": "2443",
            "ownerOf(uint256)": "infinite",
            "presaleActive()": "2400",
            "presaleMerkleRoot()": "2385",
            "price()": "2384",
            "publicsaleAddressMinted(address)": "2630",
            "renounceOwnership()": "28272",
            "safeTransferFrom(address,address,uint256)": "infinite",
            "safeTransferFrom(address,address,uint256,bytes)": "infinite",
            "saleActive()": "2388",
            "setApprovalForAll(address,bool)": "infinite",
            "setBaseURI(string)": "infinite",
            "setContestMerkleRoot(bytes32)": "24596",
            "setMaxContestMint(uint256)": "24597",
            "setMaxMint(uint256)": "24576",
            "setMaxPresaleMint(uint256)": "24620",
            "setPresaleActive(bool)": "26729",
            "setPresaleMerkleRoot(bytes32)": "24598",
            "setPrice(uint256)": "24509",
            "setProvenanceHash(string)": "infinite",
            "setSaleActive(bool)": "26737",
            "supportsInterface(bytes4)": "557",
            "symbol()": "infinite",
            "tokenURI(uint256)": "infinite",
            "totalSupply()": "4455",
            "transferFrom(address,address,uint256)": "infinite",
            "transferOwnership(address)": "28422",
            "withdrawAll()": "infinite"
        },
        "internal": {
            "_baseURI()": "infinite"
        }
    }
}