{
    "contractName": "MyNFT",
    "abi": [
        {
            "inputs": [],
            "stateMutability": "nonpayable",
            "type": "constructor"
        },
        {
            "inputs": [],
            "name": "ApprovalCallerNotOwnerNorApproved",
            "type": "error"
        },
        {
            "inputs": [],
            "name": "ApprovalQueryForNonexistentToken",
            "type": "error"
        },
        {
            "inputs": [],
            "name": "ApprovalToCurrentOwner",
            "type": "error"
        },
        {
            "inputs": [],
            "name": "ApproveToCaller",
            "type": "error"
        },
        {
            "inputs": [],
            "name": "BalanceQueryForZeroAddress",
            "type": "error"
        },
        {
            "inputs": [],
            "name": "MintToZeroAddress",
            "type": "error"
        },
        {
            "inputs": [],
            "name": "MintZeroQuantity",
            "type": "error"
        },
        {
            "inputs": [],
            "name": "OwnerQueryForNonexistentToken",
            "type": "error"
        },
        {
            "inputs": [],
            "name": "TransferCallerNotOwnerNorApproved",
            "type": "error"
        },
        {
            "inputs": [],
            "name": "TransferFromIncorrectOwner",
            "type": "error"
        },
        {
            "inputs": [],
            "name": "TransferToNonERC721ReceiverImplementer",
            "type": "error"
        },
        {
            "inputs": [],
            "name": "TransferToZeroAddress",
            "type": "error"
        },
        {
            "inputs": [],
            "name": "URIQueryForNonexistentToken",
            "type": "error"
        },
        {
            "anonymous": false,
            "inputs": [
                {
                    "indexed": true,
                    "internalType": "address",
                    "name": "owner",
                    "type": "address"
                },
                {
                    "indexed": true,
                    "internalType": "address",
                    "name": "approved",
                    "type": "address"
                },
                {
                    "indexed": true,
                    "internalType": "uint256",
                    "name": "tokenId",
                    "type": "uint256"
                }
            ],
            "name": "Approval",
            "type": "event"
        },
        {
            "anonymous": false,
            "inputs": [
                {
                    "indexed": true,
                    "internalType": "address",
                    "name": "owner",
                    "type": "address"
                },
                {
                    "indexed": true,
                    "internalType": "address",
                    "name": "operator",
                    "type": "address"
                },
                {
                    "indexed": false,
                    "internalType": "bool",
                    "name": "approved",
                    "type": "bool"
                }
            ],
            "name": "ApprovalForAll",
            "type": "event"
        },
        {
            "anonymous": false,
            "inputs": [
                {
                    "indexed": true,
                    "internalType": "address",
                    "name": "previousOwner",
                    "type": "address"
                },
                {
                    "indexed": true,
                    "internalType": "address",
                    "name": "newOwner",
                    "type": "address"
                }
            ],
            "name": "OwnershipTransferred",
            "type": "event"
        },
        {
            "anonymous": false,
            "inputs": [
                {
                    "indexed": true,
                    "internalType": "address",
                    "name": "from",
                    "type": "address"
                },
                {
                    "indexed": true,
                    "internalType": "address",
                    "name": "to",
                    "type": "address"
                },
                {
                    "indexed": true,
                    "internalType": "uint256",
                    "name": "tokenId",
                    "type": "uint256"
                }
            ],
            "name": "Transfer",
            "type": "event"
        },
        {
            "inputs": [],
            "name": "NFTProvenance",
            "outputs": [
                {
                    "internalType": "string",
                    "name": "",
                    "type": "string"
                }
            ],
            "stateMutability": "view",
            "type": "function"
        },
        {
            "inputs": [],
            "name": "_baseTokenURI",
            "outputs": [
                {
                    "internalType": "string",
                    "name": "",
                    "type": "string"
                }
            ],
            "stateMutability": "view",
            "type": "function"
        },
        {
            "inputs": [
                {
                    "internalType": "address",
                    "name": "",
                    "type": "address"
                }
            ],
            "name": "_tokensMintedByAddress",
            "outputs": [
                {
                    "internalType": "uint256",
                    "name": "",
                    "type": "uint256"
                }
            ],
            "stateMutability": "view",
            "type": "function"
        },
        {
            "inputs": [
                {
                    "internalType": "address",
                    "name": "to",
                    "type": "address"
                },
                {
                    "internalType": "uint256",
                    "name": "tokenId",
                    "type": "uint256"
                }
            ],
            "name": "approve",
            "outputs": [],
            "stateMutability": "nonpayable",
            "type": "function"
        },
        {
            "inputs": [
                {
                    "internalType": "address",
                    "name": "owner",
                    "type": "address"
                }
            ],
            "name": "balanceOf",
            "outputs": [
                {
                    "internalType": "uint256",
                    "name": "",
                    "type": "uint256"
                }
            ],
            "stateMutability": "view",
            "type": "function"
        },
        {
            "inputs": [
                {
                    "internalType": "uint256",
                    "name": "tokenId",
                    "type": "uint256"
                }
            ],
            "name": "getApproved",
            "outputs": [
                {
                    "internalType": "address",
                    "name": "",
                    "type": "address"
                }
            ],
            "stateMutability": "view",
            "type": "function"
        },
        {
            "inputs": [
                {
                    "internalType": "address",
                    "name": "owner",
                    "type": "address"
                },
                {
                    "internalType": "address",
                    "name": "operator",
                    "type": "address"
                }
            ],
            "name": "isApprovedForAll",
            "outputs": [
                {
                    "internalType": "bool",
                    "name": "",
                    "type": "bool"
                }
            ],
            "stateMutability": "view",
            "type": "function"
        },
        {
            "inputs": [],
            "name": "maxMint",
            "outputs": [
                {
                    "internalType": "uint256",
                    "name": "",
                    "type": "uint256"
                }
            ],
            "stateMutability": "view",
            "type": "function"
        },
        {
            "inputs": [],
            "name": "maxPresaleMint",
            "outputs": [
                {
                    "internalType": "uint256",
                    "name": "",
                    "type": "uint256"
                }
            ],
            "stateMutability": "view",
            "type": "function"
        },
        {
            "inputs": [
                {
                    "internalType": "uint256",
                    "name": "quantity",
                    "type": "uint256"
                }
            ],
            "name": "mintDev",
            "outputs": [],
            "stateMutability": "nonpayable",
            "type": "function"
        },
        {
            "inputs": [
                {
                    "internalType": "uint256",
                    "name": "quantity",
                    "type": "uint256"
                },
                {
                    "internalType": "bytes32[]",
                    "name": "proof",
                    "type": "bytes32[]"
                }
            ],
            "name": "mintPresale",
            "outputs": [],
            "stateMutability": "payable",
            "type": "function"
        },
        {
            "inputs": [
                {
                    "internalType": "uint256",
                    "name": "quantity",
                    "type": "uint256"
                }
            ],
            "name": "mintToken",
            "outputs": [],
            "stateMutability": "payable",
            "type": "function"
        },
        {
            "inputs": [],
            "name": "name",
            "outputs": [
                {
                    "internalType": "string",
                    "name": "",
                    "type": "string"
                }
            ],
            "stateMutability": "view",
            "type": "function"
        },
        {
            "inputs": [],
            "name": "owner",
            "outputs": [
                {
                    "internalType": "address",
                    "name": "",
                    "type": "address"
                }
            ],
            "stateMutability": "view",
            "type": "function"
        },
        {
            "inputs": [
                {
                    "internalType": "uint256",
                    "name": "tokenId",
                    "type": "uint256"
                }
            ],
            "name": "ownerOf",
            "outputs": [
                {
                    "internalType": "address",
                    "name": "",
                    "type": "address"
                }
            ],
            "stateMutability": "view",
            "type": "function"
        },
        {
            "inputs": [],
            "name": "presaleActive",
            "outputs": [
                {
                    "internalType": "bool",
                    "name": "",
                    "type": "bool"
                }
            ],
            "stateMutability": "view",
            "type": "function"
        },
        {
            "inputs": [],
            "name": "presaleMerkleRoot",
            "outputs": [
                {
                    "internalType": "bytes32",
                    "name": "",
                    "type": "bytes32"
                }
            ],
            "stateMutability": "view",
            "type": "function"
        },
        {
            "inputs": [],
            "name": "price",
            "outputs": [
                {
                    "internalType": "uint256",
                    "name": "",
                    "type": "uint256"
                }
            ],
            "stateMutability": "view",
            "type": "function"
        },
        {
            "inputs": [
                {
                    "internalType": "address",
                    "name": "",
                    "type": "address"
                }
            ],
            "name": "publicsaleAddressMinted",
            "outputs": [
                {
                    "internalType": "uint256",
                    "name": "",
                    "type": "uint256"
                }
            ],
            "stateMutability": "view",
            "type": "function"
        },
        {
            "inputs": [],
            "name": "renounceOwnership",
            "outputs": [],
            "stateMutability": "nonpayable",
            "type": "function"
        },
        {
            "inputs": [
                {
                    "internalType": "address",
                    "name": "from",
                    "type": "address"
                },
                {
                    "internalType": "address",
                    "name": "to",
                    "type": "address"
                },
                {
                    "internalType": "uint256",
                    "name": "tokenId",
                    "type": "uint256"
                }
            ],
            "name": "safeTransferFrom",
            "outputs": [],
            "stateMutability": "nonpayable",
            "type": "function"
        },
        {
            "inputs": [
                {
                    "internalType": "address",
                    "name": "from",
                    "type": "address"
                },
                {
                    "internalType": "address",
                    "name": "to",
                    "type": "address"
                },
                {
                    "internalType": "uint256",
                    "name": "tokenId",
                    "type": "uint256"
                },
                {
                    "internalType": "bytes",
                    "name": "_data",
                    "type": "bytes"
                }
            ],
            "name": "safeTransferFrom",
            "outputs": [],
            "stateMutability": "nonpayable",
            "type": "function"
        },
        {
            "inputs": [],
            "name": "saleActive",
            "outputs": [
                {
                    "internalType": "bool",
                    "name": "",
                    "type": "bool"
                }
            ],
            "stateMutability": "view",
            "type": "function"
        },
        {
            "inputs": [
                {
                    "internalType": "address",
                    "name": "operator",
                    "type": "address"
                },
                {
                    "internalType": "bool",
                    "name": "approved",
                    "type": "bool"
                }
            ],
            "name": "setApprovalForAll",
            "outputs": [],
            "stateMutability": "nonpayable",
            "type": "function"
        },
        {
            "inputs": [
                {
                    "internalType": "string",
                    "name": "baseURI",
                    "type": "string"
                }
            ],
            "name": "setBaseURI",
            "outputs": [],
            "stateMutability": "nonpayable",
            "type": "function"
        },
        {
            "inputs": [
                {
                    "internalType": "uint256",
                    "name": "_maxMint",
                    "type": "uint256"
                }
            ],
            "name": "setMaxMint",
            "outputs": [],
            "stateMutability": "nonpayable",
            "type": "function"
        },
        {
            "inputs": [
                {
                    "internalType": "uint256",
                    "name": "_maxPresaleMint",
                    "type": "uint256"
                }
            ],
            "name": "setMaxPresaleMint",
            "outputs": [],
            "stateMutability": "nonpayable",
            "type": "function"
        },
        {
            "inputs": [
                {
                    "internalType": "bool",
                    "name": "val",
                    "type": "bool"
                }
            ],
            "name": "setPresaleActive",
            "outputs": [],
            "stateMutability": "nonpayable",
            "type": "function"
        },
        {
            "inputs": [
                {
                    "internalType": "bytes32",
                    "name": "presaleRoot",
                    "type": "bytes32"
                }
            ],
            "name": "setPresaleMerkleRoot",
            "outputs": [],
            "stateMutability": "nonpayable",
            "type": "function"
        },
        {
            "inputs": [
                {
                    "internalType": "uint256",
                    "name": "newPrice",
                    "type": "uint256"
                }
            ],
            "name": "setPrice",
            "outputs": [],
            "stateMutability": "nonpayable",
            "type": "function"
        },
        {
            "inputs": [
                {
                    "internalType": "string",
                    "name": "provenanceHash",
                    "type": "string"
                }
            ],
            "name": "setProvenanceHash",
            "outputs": [],
            "stateMutability": "nonpayable",
            "type": "function"
        },
        {
            "inputs": [
                {
                    "internalType": "bool",
                    "name": "val",
                    "type": "bool"
                }
            ],
            "name": "setSaleActive",
            "outputs": [],
            "stateMutability": "nonpayable",
            "type": "function"
        },
        {
            "inputs": [
                {
                    "internalType": "bytes4",
                    "name": "interfaceId",
                    "type": "bytes4"
                }
            ],
            "name": "supportsInterface",
            "outputs": [
                {
                    "internalType": "bool",
                    "name": "",
                    "type": "bool"
                }
            ],
            "stateMutability": "view",
            "type": "function"
        },
        {
            "inputs": [],
            "name": "symbol",
            "outputs": [
                {
                    "internalType": "string",
                    "name": "",
                    "type": "string"
                }
            ],
            "stateMutability": "view",
            "type": "function"
        },
        {
            "inputs": [
                {
                    "internalType": "uint256",
                    "name": "tokenId",
                    "type": "uint256"
                }
            ],
            "name": "tokenURI",
            "outputs": [
                {
                    "internalType": "string",
                    "name": "",
                    "type": "string"
                }
            ],
            "stateMutability": "view",
            "type": "function"
        },
        {
            "inputs": [],
            "name": "totalSupply",
            "outputs": [
                {
                    "internalType": "uint256",
                    "name": "",
                    "type": "uint256"
                }
            ],
            "stateMutability": "view",
            "type": "function"
        },
        {
            "inputs": [
                {
                    "internalType": "address",
                    "name": "from",
                    "type": "address"
                },
                {
                    "internalType": "address",
                    "name": "to",
                    "type": "address"
                },
                {
                    "internalType": "uint256",
                    "name": "tokenId",
                    "type": "uint256"
                }
            ],
            "name": "transferFrom",
            "outputs": [],
            "stateMutability": "nonpayable",
            "type": "function"
        },
        {
            "inputs": [
                {
                    "internalType": "address",
                    "name": "newOwner",
                    "type": "address"
                }
            ],
            "name": "transferOwnership",
            "outputs": [],
            "stateMutability": "nonpayable",
            "type": "function"
        },
        {
            "inputs": [],
            "name": "withdrawAll",
            "outputs": [],
            "stateMutability": "payable",
            "type": "function"
        }
    ],
    "bytecode": "60806040526611c37937e08000600a556002600b819055600c556013805473ea64073446e6afd80574d8a72c8e9af547a430186001600160a01b031991821681179092556014805490911690911790553480156200005c57600080fd5b506040805180820182526005815264135e53919560da1b6020808301918252835180850190945260048452631353919560e21b908401528151919291620000a6916002916200012b565b508051620000bc9060039060208401906200012b565b50506000805550620000ce33620000d9565b60016009556200020d565b600880546001600160a01b038381166001600160a01b0319831681179093556040519116919082907f8be0079c531659141344cd1fd0a4f28419497f9722a3daafe3b4186f6b6457e090600090a35050565b8280546200013990620001d1565b90600052602060002090601f0160209004810192826200015d5760008555620001a8565b82601f106200017857805160ff1916838001178555620001a8565b82800160010185558215620001a8579182015b82811115620001a85782518255916020019190600101906200018b565b50620001b6929150620001ba565b5090565b5b80821115620001b65760008155600101620001bb565b600181811c90821680620001e657607f821691505b6020821081036200020757634e487b7160e01b600052602260045260246000fd5b50919050565b6122fa806200021d6000396000f3fe6080604052600436106102305760003560e01c80636fffbd601161012e578063a035b1fe116100ab578063c87b56dd1161006f578063c87b56dd1461063f578063cfc86f7b1461065f578063e985e9c514610674578063f2fde38b146106bd578063fba7d7cb146106dd57600080fd5b8063a035b1fe146105c0578063a22cb465146105d6578063b4576278146105f6578063b88d4fde1461060c578063c634d0321461062c57600080fd5b8063853828b6116100f2578063853828b6146105385780638da5cb5b146105405780638eaf68671461055e57806391b7f5ed1461058b57806395d89b41146105ab57600080fd5b80636fffbd60146104a057806370a08231146104cd578063715018a6146104ed5780637501f74114610502578063841718a61461051857600080fd5b806323b872dd116101bc57806353135ca01161018057806353135ca014610407578063547520fe1461042657806355f804b3146104465780636352211e1461046657806368428a1b1461048657600080fd5b806323b872dd1461036757806328d7b276146103875780633425f90c146103a75780633f8121a2146103c757806342842e0e146103e757600080fd5b8063095ea7b311610203578063095ea7b3146102d95780630c0a6b5e146102fb578063109695231461030e57806318160ddd1461032e57806322212e2b1461035157600080fd5b806301ffc9a7146102355780630444b2761461026a57806306fdde031461028c578063081812fc146102a1575b600080fd5b34801561024157600080fd5b50610255610250366004611cde565b6106fd565b60405190151581526020015b60405180910390f35b34801561027657600080fd5b5061027f61074f565b6040516102619190611d53565b34801561029857600080fd5b5061027f6107dd565b3480156102ad57600080fd5b506102c16102bc366004611d66565b61086f565b6040516001600160a01b039091168152602001610261565b3480156102e557600080fd5b506102f96102f4366004611d9b565b6108b3565b005b6102f9610309366004611e0c565b610940565b34801561031a57600080fd5b506102f9610329366004611f16565b610bc1565b34801561033a57600080fd5b50600154600054035b604051908152602001610261565b34801561035d57600080fd5b5061034360125481565b34801561037357600080fd5b506102f9610382366004611f5f565b610c02565b34801561039357600080fd5b506102f96103a2366004611d66565b610c0d565b3480156103b357600080fd5b506102f96103c2366004611d66565b610c3c565b3480156103d357600080fd5b506102f96103e2366004611fab565b610c6b565b3480156103f357600080fd5b506102f9610402366004611f5f565b610caf565b34801561041357600080fd5b50600d5461025590610100900460ff1681565b34801561043257600080fd5b506102f9610441366004611d66565b610cca565b34801561045257600080fd5b506102f9610461366004611f16565b610cf9565b34801561047257600080fd5b506102c1610481366004611d66565b610d36565b34801561049257600080fd5b50600d546102559060ff1681565b3480156104ac57600080fd5b506103436104bb366004611fc6565b60116020526000908152604090205481565b3480156104d957600080fd5b506103436104e8366004611fc6565b610d48565b3480156104f957600080fd5b506102f9610d97565b34801561050e57600080fd5b50610343600b5481565b34801561052457600080fd5b506102f9610533366004611fab565b610dcd565b6102f9610e0a565b34801561054c57600080fd5b506008546001600160a01b03166102c1565b34801561056a57600080fd5b50610343610579366004611fc6565b60106020526000908152604090205481565b34801561059757600080fd5b506102f96105a6366004611d66565b610eb9565b3480156105b757600080fd5b5061027f610ee8565b3480156105cc57600080fd5b50610343600a5481565b3480156105e257600080fd5b506102f96105f1366004611fe1565b610ef7565b34801561060257600080fd5b50610343600c5481565b34801561061857600080fd5b506102f9610627366004612014565b610f8c565b6102f961063a366004611d66565b610fdd565b34801561064b57600080fd5b5061027f61065a366004611d66565b611214565b34801561066b57600080fd5b5061027f611298565b34801561068057600080fd5b5061025561068f366004612090565b6001600160a01b03918216600090815260076020908152604080832093909416825291909152205460ff1690565b3480156106c957600080fd5b506102f96106d8366004611fc6565b6112a5565b3480156106e957600080fd5b506102f96106f8366004611d66565b611340565b60006001600160e01b031982166380ac58cd60e01b148061072e57506001600160e01b03198216635b5e139f60e01b145b8061074957506301ffc9a760e01b6001600160e01b03198316145b92915050565b600f805461075c906120ba565b80601f0160208091040260200160405190810160405280929190818152602001828054610788906120ba565b80156107d55780601f106107aa576101008083540402835291602001916107d5565b820191906000526020600020905b8154815290600101906020018083116107b857829003601f168201915b505050505081565b6060600280546107ec906120ba565b80601f0160208091040260200160405190810160405280929190818152602001828054610818906120ba565b80156108655780601f1061083a57610100808354040283529160200191610865565b820191906000526020600020905b81548152906001019060200180831161084857829003601f168201915b5050505050905090565b600061087a826113d0565b610897576040516333d1c03960e21b815260040160405180910390fd5b506000908152600660205260409020546001600160a01b031690565b60006108be82610d36565b9050806001600160a01b0316836001600160a01b0316036108f25760405163250fdee360e21b815260040160405180910390fd5b336001600160a01b038216148015906109125750610910813361068f565b155b15610930576040516367d9dca160e11b815260040160405180910390fd5b61093b8383836113fb565b505050565b600d54610100900460ff166109945760405162461bcd60e51b815260206004820152601560248201527450726573616c65206973206e6f742061637469766560581b60448201526064015b60405180910390fd5b6002600954036109e65760405162461bcd60e51b815260206004820152601f60248201527f5265656e7472616e637947756172643a207265656e7472616e742063616c6c00604482015260640161098b565b60026009556012546040516bffffffffffffffffffffffff193360601b166020820152610a2d91839160340160405160208183030381529060405280519060200120611457565b610a845760405162461bcd60e51b815260206004820152602260248201527f41646472657373206973206e6f74206f6e2031204d494e5420416c6c6f776c696044820152611cdd60f21b606482015260840161098b565b3482600a54610a93919061210a565b14610ada5760405162461bcd60e51b815260206004820152601760248201527615dc9bdb99c8185b5bdd5d081bd988115512081cd95b9d604a1b604482015260640161098b565b600c5433600090815260106020526040902054610af8908490612129565b14610b515760405162461bcd60e51b8152602060048201526024808201527f43616e206f6e6c79206d696e74203120746f6b656e20647572696e672050726560448201526353616c6560e01b606482015260840161098b565b6103e782610b626001546000540390565b610b6c9190612129565b10610b895760405162461bcd60e51b815260040161098b90612141565b3360009081526010602052604081208054849290610ba8908490612129565b90915550610bb89050338361146d565b50506001600955565b6008546001600160a01b03163314610beb5760405162461bcd60e51b815260040161098b90612182565b8051610bfe90600f906020840190611c2f565b5050565b61093b838383611487565b6008546001600160a01b03163314610c375760405162461bcd60e51b815260040161098b90612182565b601255565b6008546001600160a01b03163314610c665760405162461bcd60e51b815260040161098b90612182565b600c55565b6008546001600160a01b03163314610c955760405162461bcd60e51b815260040161098b90612182565b600d80549115156101000261ff0019909216919091179055565b61093b83838360405180602001604052806000815250610f8c565b6008546001600160a01b03163314610cf45760405162461bcd60e51b815260040161098b90612182565b600b55565b6008546001600160a01b03163314610d235760405162461bcd60e51b815260040161098b90612182565b8051610bfe90600e906020840190611c2f565b6000610d4182611677565b5192915050565b60006001600160a01b038216610d71576040516323d3ad8160e21b815260040160405180910390fd5b506001600160a01b031660009081526005602052604090205467ffffffffffffffff1690565b6008546001600160a01b03163314610dc15760405162461bcd60e51b815260040161098b90612182565b610dcb6000611793565b565b6008546001600160a01b03163314610df75760405162461bcd60e51b815260040161098b90612182565b600d805460ff1916911515919091179055565b6008546001600160a01b03163314610e345760405162461bcd60e51b815260040161098b90612182565b476000610e426064836121cd565b6013549091506001600160a01b03166108fc610e5f83603261210a565b6040518115909202916000818181858888f19350505050610e7f57600080fd5b6014546001600160a01b03166108fc610e9983603261210a565b6040518115909202916000818181858888f19350505050610bfe57600080fd5b6008546001600160a01b03163314610ee35760405162461bcd60e51b815260040161098b90612182565b600a55565b6060600380546107ec906120ba565b336001600160a01b03831603610f205760405163b06307db60e01b815260040160405180910390fd5b3360008181526007602090815260408083206001600160a01b03871680855290835292819020805460ff191686151590811790915590519081529192917f17307eab39ab6107e8899845ad3d59bd9653f200f220920489ca2b5937696c31910160405180910390a35050565b610f97848484611487565b6001600160a01b0383163b15158015610fb95750610fb7848484846117e5565b155b15610fd7576040516368d2bf6b60e11b815260040160405180910390fd5b50505050565b600d5460ff1661102f5760405162461bcd60e51b815260206004820152601960248201527f5075626c69632073616c65206973206e6f742061637469766500000000000000604482015260640161098b565b6002600954036110815760405162461bcd60e51b815260206004820152601f60248201527f5265656e7472616e637947756172643a207265656e7472616e742063616c6c00604482015260640161098b565b6002600955600b548111156110e25760405162461bcd60e51b815260206004820152602160248201527f596f752063616e206e6f74206d696e74206d6f7265207468616e20616c6f77656044820152601960fa1b606482015260840161098b565b3481600a546110f1919061210a565b146111385760405162461bcd60e51b815260206004820152601760248201527615dc9bdb99c8185b5bdd5d081bd988115512081cd95b9d604a1b604482015260640161098b565b600b5433600090815260116020526040902054611156908390612129565b11156111a45760405162461bcd60e51b815260206004820152601a60248201527f43616e206f6e6c79206d696e742032207065722077616c6c6574000000000000604482015260640161098b565b6103e7816111b56001546000540390565b6111bf9190612129565b11156111dd5760405162461bcd60e51b815260040161098b90612141565b33600090815260116020526040812080548392906111fc908490612129565b9091555061120c9050338261146d565b506001600955565b606061121f826113d0565b61123c57604051630a14c4b560e41b815260040160405180910390fd5b60006112466118d1565b905080516000036112665760405180602001604052806000815250611291565b80611270846118e0565b6040516020016112819291906121e1565b6040516020818303038152906040525b9392505050565b600e805461075c906120ba565b6008546001600160a01b031633146112cf5760405162461bcd60e51b815260040161098b90612182565b6001600160a01b0381166113345760405162461bcd60e51b815260206004820152602660248201527f4f776e61626c653a206e6577206f776e657220697320746865207a65726f206160448201526564647265737360d01b606482015260840161098b565b61133d81611793565b50565b6008546001600160a01b0316331461136a5760405162461bcd60e51b815260040161098b90612182565b6103e78161137b6001546000540390565b6113859190612129565b11156113c65760405162461bcd60e51b815260206004820152601060248201526f4d696e74696e6720746f6f206d616e7960801b604482015260640161098b565b61133d338261146d565b6000805482108015610749575050600090815260046020526040902054600160e01b900460ff161590565b60008281526006602052604080822080546001600160a01b0319166001600160a01b0387811691821790925591518593918516917f8c5be1e5ebec7d5bd14f71427d1e84f3dd0314c0f7b2291e5b200ac8c7c3b92591a4505050565b60008261146485846119e1565b14949350505050565b610bfe828260405180602001604052806000815250611a55565b600061149282611677565b9050836001600160a01b031681600001516001600160a01b0316146114c95760405162a1148160e81b815260040160405180910390fd5b6000336001600160a01b03861614806114e757506114e7853361068f565b806115025750336114f78461086f565b6001600160a01b0316145b90508061152257604051632ce44b5f60e11b815260040160405180910390fd5b6001600160a01b03841661154957604051633a954ecd60e21b815260040160405180910390fd5b611555600084876113fb565b6001600160a01b038581166000908152600560209081526040808320805467ffffffffffffffff1980821667ffffffffffffffff92831660001901831617909255898616808652838620805493841693831660019081018416949094179055898652600490945282852080546001600160e01b031916909417600160a01b4290921691909102178355870180845292208054919390911661162b57600054821461162b578054602086015167ffffffffffffffff16600160a01b026001600160e01b03199091166001600160a01b038a16171781555b50505082846001600160a01b0316866001600160a01b03167fddf252ad1be2c89b69c2b068fc378daa952ba7f163c4a11628f55a4df523b3ef60405160405180910390a45b5050505050565b60408051606081018252600080825260208201819052918101919091528160005481101561177a57600081815260046020908152604091829020825160608101845290546001600160a01b0381168252600160a01b810467ffffffffffffffff1692820192909252600160e01b90910460ff161515918101829052906117785780516001600160a01b03161561170e579392505050565b5060001901600081815260046020908152604091829020825160608101845290546001600160a01b038116808352600160a01b820467ffffffffffffffff1693830193909352600160e01b900460ff1615159281019290925215611773579392505050565b61170e565b505b604051636f96cda160e11b815260040160405180910390fd5b600880546001600160a01b038381166001600160a01b0319831681179093556040519116919082907f8be0079c531659141344cd1fd0a4f28419497f9722a3daafe3b4186f6b6457e090600090a35050565b604051630a85bd0160e11b81526000906001600160a01b0385169063150b7a029061181a903390899088908890600401612210565b6020604051808303816000875af1925050508015611855575060408051601f3d908101601f191682019092526118529181019061224d565b60015b6118b3573d808015611883576040519150601f19603f3d011682016040523d82523d6000602084013e611888565b606091505b5080516000036118ab576040516368d2bf6b60e11b815260040160405180910390fd5b805181602001fd5b6001600160e01b031916630a85bd0160e11b1490505b949350505050565b6060600e80546107ec906120ba565b6060816000036119075750506040805180820190915260018152600360fc1b602082015290565b8160005b8115611931578061191b8161226a565b915061192a9050600a836121cd565b915061190b565b60008167ffffffffffffffff81111561194c5761194c611dc5565b6040519080825280601f01601f191660200182016040528015611976576020820181803683370190505b5090505b84156118c95761198b600183612283565b9150611998600a8661229a565b6119a3906030612129565b60f81b8183815181106119b8576119b86122ae565b60200101906001600160f81b031916908160001a9053506119da600a866121cd565b945061197a565b600081815b8451811015611a4d576000858281518110611a0357611a036122ae565b60200260200101519050808311611a295760008381526020829052604090209250611a3a565b600081815260208490526040902092505b5080611a458161226a565b9150506119e6565b509392505050565b61093b83838360016000546001600160a01b038516611a8657604051622e076360e81b815260040160405180910390fd5b83600003611aa75760405163b562e8dd60e01b815260040160405180910390fd5b6001600160a01b038516600081815260056020908152604080832080546fffffffffffffffffffffffffffffffff19811667ffffffffffffffff8083168c0181169182176801000000000000000067ffffffffffffffff1990941690921783900481168c01811690920217909155858452600490925290912080546001600160e01b031916909217600160a01b429092169190910217905580808501838015611b5957506001600160a01b0387163b15155b15611be1575b60405182906001600160a01b038916906000907fddf252ad1be2c89b69c2b068fc378daa952ba7f163c4a11628f55a4df523b3ef908290a4611baa60008884806001019550886117e5565b611bc7576040516368d2bf6b60e11b815260040160405180910390fd5b808203611b5f578260005414611bdc57600080fd5b611c26565b5b6040516001830192906001600160a01b038916906000907fddf252ad1be2c89b69c2b068fc378daa952ba7f163c4a11628f55a4df523b3ef908290a4808203611be2575b50600055611670565b828054611c3b906120ba565b90600052602060002090601f016020900481019282611c5d5760008555611ca3565b82601f10611c7657805160ff1916838001178555611ca3565b82800160010185558215611ca3579182015b82811115611ca3578251825591602001919060010190611c88565b50611caf929150611cb3565b5090565b5b80821115611caf5760008155600101611cb4565b6001600160e01b03198116811461133d57600080fd5b600060208284031215611cf057600080fd5b813561129181611cc8565b60005b83811015611d16578181015183820152602001611cfe565b83811115610fd75750506000910152565b60008151808452611d3f816020860160208601611cfb565b601f01601f19169290920160200192915050565b6020815260006112916020830184611d27565b600060208284031215611d7857600080fd5b5035919050565b80356001600160a01b0381168114611d9657600080fd5b919050565b60008060408385031215611dae57600080fd5b611db783611d7f565b946020939093013593505050565b634e487b7160e01b600052604160045260246000fd5b604051601f8201601f1916810167ffffffffffffffff81118282101715611e0457611e04611dc5565b604052919050565b60008060408385031215611e1f57600080fd5b8235915060208084013567ffffffffffffffff80821115611e3f57600080fd5b818601915086601f830112611e5357600080fd5b813581811115611e6557611e65611dc5565b8060051b9150611e76848301611ddb565b8181529183018401918481019089841115611e9057600080fd5b938501935b83851015611eae57843582529385019390850190611e95565b8096505050505050509250929050565b600067ffffffffffffffff831115611ed857611ed8611dc5565b611eeb601f8401601f1916602001611ddb565b9050828152838383011115611eff57600080fd5b828260208301376000602084830101529392505050565b600060208284031215611f2857600080fd5b813567ffffffffffffffff811115611f3f57600080fd5b8201601f81018413611f5057600080fd5b6118c984823560208401611ebe565b600080600060608486031215611f7457600080fd5b611f7d84611d7f565b9250611f8b60208501611d7f565b9150604084013590509250925092565b80358015158114611d9657600080fd5b600060208284031215611fbd57600080fd5b61129182611f9b565b600060208284031215611fd857600080fd5b61129182611d7f565b60008060408385031215611ff457600080fd5b611ffd83611d7f565b915061200b60208401611f9b565b90509250929050565b6000806000806080858703121561202a57600080fd5b61203385611d7f565b935061204160208601611d7f565b925060408501359150606085013567ffffffffffffffff81111561206457600080fd5b8501601f8101871361207557600080fd5b61208487823560208401611ebe565b91505092959194509250565b600080604083850312156120a357600080fd5b6120ac83611d7f565b915061200b60208401611d7f565b600181811c908216806120ce57607f821691505b6020821081036120ee57634e487b7160e01b600052602260045260246000fd5b50919050565b634e487b7160e01b600052601160045260246000fd5b6000816000190483118215151615612124576121246120f4565b500290565b6000821982111561213c5761213c6120f4565b500190565b60208082526021908201527f43616e206e6f74206d696e74206d6f7265207468616e206d617820737570706c6040820152607960f81b606082015260800190565b6020808252818101527f4f776e61626c653a2063616c6c6572206973206e6f7420746865206f776e6572604082015260600190565b634e487b7160e01b600052601260045260246000fd5b6000826121dc576121dc6121b7565b500490565b600083516121f3818460208801611cfb565b835190830190612207818360208801611cfb565b01949350505050565b6001600160a01b038581168252841660208201526040810183905260806060820181905260009061224390830184611d27565b9695505050505050565b60006020828403121561225f57600080fd5b815161129181611cc8565b60006001820161227c5761227c6120f4565b5060010190565b600082821015612295576122956120f4565b500390565b6000826122a9576122a96121b7565b500690565b634e487b7160e01b600052603260045260246000fdfea264697066735822122086584654282f9a7fbf2819aca26a23c2bef1de57c49b2a9ea1dbceeb3212671c64736f6c634300080d0033",
    "sourcePath": "c:/Users/Robert/Documents/GitHub/erc721a-smart-contract-merkle-whitelist/contracts/MyNFT.sol",
    "compiler": {
        "name": "solc",
        "version": "0.8.13+commit.abaa5c0e"
    },
    "functionHashes": {
        "NFTProvenance()": "0444b276",
        "_baseTokenURI()": "cfc86f7b",
        "_tokensMintedByAddress(address)": "8eaf6867",
        "approve(address,uint256)": "095ea7b3",
        "balanceOf(address)": "70a08231",
        "getApproved(uint256)": "081812fc",
        "isApprovedForAll(address,address)": "e985e9c5",
        "maxMint()": "7501f741",
        "maxPresaleMint()": "b4576278",
        "mintDev(uint256)": "fba7d7cb",
        "mintPresale(uint256,bytes32[])": "0c0a6b5e",
        "mintToken(uint256)": "c634d032",
        "name()": "06fdde03",
        "owner()": "8da5cb5b",
        "ownerOf(uint256)": "6352211e",
        "presaleActive()": "53135ca0",
        "presaleMerkleRoot()": "22212e2b",
        "price()": "a035b1fe",
        "publicsaleAddressMinted(address)": "6fffbd60",
        "renounceOwnership()": "715018a6",
        "safeTransferFrom(address,address,uint256)": "42842e0e",
        "safeTransferFrom(address,address,uint256,bytes)": "b88d4fde",
        "saleActive()": "68428a1b",
        "setApprovalForAll(address,bool)": "a22cb465",
        "setBaseURI(string)": "55f804b3",
        "setMaxMint(uint256)": "547520fe",
        "setMaxPresaleMint(uint256)": "3425f90c",
        "setPresaleActive(bool)": "3f8121a2",
        "setPresaleMerkleRoot(bytes32)": "28d7b276",
        "setPrice(uint256)": "91b7f5ed",
        "setProvenanceHash(string)": "10969523",
        "setSaleActive(bool)": "841718a6",
        "supportsInterface(bytes4)": "01ffc9a7",
        "symbol()": "95d89b41",
        "tokenURI(uint256)": "c87b56dd",
        "totalSupply()": "18160ddd",
        "transferFrom(address,address,uint256)": "23b872dd",
        "transferOwnership(address)": "f2fde38b",
        "withdrawAll()": "853828b6"
    },
    "gasEstimates": {
        "creation": {
            "codeDepositCost": "1790800",
            "executionCost": "infinite",
            "totalCost": "infinite"
        },
        "external": {
            "NFTProvenance()": "infinite",
            "_baseTokenURI()": "infinite",
            "_tokensMintedByAddress(address)": "2608",
            "approve(address,uint256)": "infinite",
            "balanceOf(address)": "2663",
            "getApproved(uint256)": "6981",
            "isApprovedForAll(address,address)": "infinite",
            "maxMint()": "2407",
            "maxPresaleMint()": "2384",
            "mintDev(uint256)": "infinite",
            "mintPresale(uint256,bytes32[])": "infinite",
            "mintToken(uint256)": "infinite",
            "name()": "infinite",
            "owner()": "2398",
            "ownerOf(uint256)": "infinite",
            "presaleActive()": "2355",
            "presaleMerkleRoot()": "2429",
            "price()": "2340",
            "publicsaleAddressMinted(address)": "2565",
            "renounceOwnership()": "28207",
            "safeTransferFrom(address,address,uint256)": "infinite",
            "safeTransferFrom(address,address,uint256,bytes)": "infinite",
            "saleActive()": "2432",
            "setApprovalForAll(address,bool)": "infinite",
            "setBaseURI(string)": "infinite",
            "setMaxMint(uint256)": "24531",
            "setMaxPresaleMint(uint256)": "24554",
            "setPresaleActive(bool)": "26795",
            "setPresaleMerkleRoot(bytes32)": "24532",
            "setPrice(uint256)": "24575",
            "setProvenanceHash(string)": "infinite",
            "setSaleActive(bool)": "26803",
            "supportsInterface(bytes4)": "557",
            "symbol()": "infinite",
            "tokenURI(uint256)": "infinite",
            "totalSupply()": "4499",
            "transferFrom(address,address,uint256)": "infinite",
            "transferOwnership(address)": "28422",
            "withdrawAll()": "infinite"
        },
        "internal": {
            "_baseURI()": "infinite"
        }
    }
}