{
    "contractName": "MyNFT",
    "abi": [
        {
            "inputs": [],
            "stateMutability": "nonpayable",
            "type": "constructor"
        },
        {
            "inputs": [],
            "name": "ApprovalCallerNotOwnerNorApproved",
            "type": "error"
        },
        {
            "inputs": [],
            "name": "ApprovalQueryForNonexistentToken",
            "type": "error"
        },
        {
            "inputs": [],
            "name": "ApprovalToCurrentOwner",
            "type": "error"
        },
        {
            "inputs": [],
            "name": "ApproveToCaller",
            "type": "error"
        },
        {
            "inputs": [],
            "name": "BalanceQueryForZeroAddress",
            "type": "error"
        },
        {
            "inputs": [],
            "name": "MintToZeroAddress",
            "type": "error"
        },
        {
            "inputs": [],
            "name": "MintZeroQuantity",
            "type": "error"
        },
        {
            "inputs": [],
            "name": "OwnerQueryForNonexistentToken",
            "type": "error"
        },
        {
            "inputs": [],
            "name": "TransferCallerNotOwnerNorApproved",
            "type": "error"
        },
        {
            "inputs": [],
            "name": "TransferFromIncorrectOwner",
            "type": "error"
        },
        {
            "inputs": [],
            "name": "TransferToNonERC721ReceiverImplementer",
            "type": "error"
        },
        {
            "inputs": [],
            "name": "TransferToZeroAddress",
            "type": "error"
        },
        {
            "inputs": [],
            "name": "URIQueryForNonexistentToken",
            "type": "error"
        },
        {
            "anonymous": false,
            "inputs": [
                {
                    "indexed": true,
                    "internalType": "address",
                    "name": "owner",
                    "type": "address"
                },
                {
                    "indexed": true,
                    "internalType": "address",
                    "name": "approved",
                    "type": "address"
                },
                {
                    "indexed": true,
                    "internalType": "uint256",
                    "name": "tokenId",
                    "type": "uint256"
                }
            ],
            "name": "Approval",
            "type": "event"
        },
        {
            "anonymous": false,
            "inputs": [
                {
                    "indexed": true,
                    "internalType": "address",
                    "name": "owner",
                    "type": "address"
                },
                {
                    "indexed": true,
                    "internalType": "address",
                    "name": "operator",
                    "type": "address"
                },
                {
                    "indexed": false,
                    "internalType": "bool",
                    "name": "approved",
                    "type": "bool"
                }
            ],
            "name": "ApprovalForAll",
            "type": "event"
        },
        {
            "anonymous": false,
            "inputs": [
                {
                    "indexed": true,
                    "internalType": "address",
                    "name": "previousOwner",
                    "type": "address"
                },
                {
                    "indexed": true,
                    "internalType": "address",
                    "name": "newOwner",
                    "type": "address"
                }
            ],
            "name": "OwnershipTransferred",
            "type": "event"
        },
        {
            "anonymous": false,
            "inputs": [
                {
                    "indexed": true,
                    "internalType": "address",
                    "name": "from",
                    "type": "address"
                },
                {
                    "indexed": true,
                    "internalType": "address",
                    "name": "to",
                    "type": "address"
                },
                {
                    "indexed": true,
                    "internalType": "uint256",
                    "name": "tokenId",
                    "type": "uint256"
                }
            ],
            "name": "Transfer",
            "type": "event"
        },
        {
            "inputs": [],
            "name": "NFTProvenance",
            "outputs": [
                {
                    "internalType": "string",
                    "name": "",
                    "type": "string"
                }
            ],
            "stateMutability": "view",
            "type": "function"
        },
        {
            "inputs": [],
            "name": "_baseTokenURI",
            "outputs": [
                {
                    "internalType": "string",
                    "name": "",
                    "type": "string"
                }
            ],
            "stateMutability": "view",
            "type": "function"
        },
        {
            "inputs": [
                {
                    "internalType": "address",
                    "name": "",
                    "type": "address"
                }
            ],
            "name": "_tokensMintedByAddress",
            "outputs": [
                {
                    "internalType": "uint256",
                    "name": "",
                    "type": "uint256"
                }
            ],
            "stateMutability": "view",
            "type": "function"
        },
        {
            "inputs": [
                {
                    "internalType": "address",
                    "name": "to",
                    "type": "address"
                },
                {
                    "internalType": "uint256",
                    "name": "tokenId",
                    "type": "uint256"
                }
            ],
            "name": "approve",
            "outputs": [],
            "stateMutability": "nonpayable",
            "type": "function"
        },
        {
            "inputs": [
                {
                    "internalType": "address",
                    "name": "owner",
                    "type": "address"
                }
            ],
            "name": "balanceOf",
            "outputs": [
                {
                    "internalType": "uint256",
                    "name": "",
                    "type": "uint256"
                }
            ],
            "stateMutability": "view",
            "type": "function"
        },
        {
            "inputs": [
                {
                    "internalType": "uint256",
                    "name": "tokenId",
                    "type": "uint256"
                }
            ],
            "name": "getApproved",
            "outputs": [
                {
                    "internalType": "address",
                    "name": "",
                    "type": "address"
                }
            ],
            "stateMutability": "view",
            "type": "function"
        },
        {
            "inputs": [
                {
                    "internalType": "address",
                    "name": "owner",
                    "type": "address"
                },
                {
                    "internalType": "address",
                    "name": "operator",
                    "type": "address"
                }
            ],
            "name": "isApprovedForAll",
            "outputs": [
                {
                    "internalType": "bool",
                    "name": "",
                    "type": "bool"
                }
            ],
            "stateMutability": "view",
            "type": "function"
        },
        {
            "inputs": [],
            "name": "maxMint",
            "outputs": [
                {
                    "internalType": "uint256",
                    "name": "",
                    "type": "uint256"
                }
            ],
            "stateMutability": "view",
            "type": "function"
        },
        {
            "inputs": [],
            "name": "maxPresaleMint",
            "outputs": [
                {
                    "internalType": "uint256",
                    "name": "",
                    "type": "uint256"
                }
            ],
            "stateMutability": "view",
            "type": "function"
        },
        {
            "inputs": [
                {
                    "internalType": "uint256",
                    "name": "quantity",
                    "type": "uint256"
                }
            ],
            "name": "mintDev",
            "outputs": [],
            "stateMutability": "nonpayable",
            "type": "function"
        },
        {
            "inputs": [
                {
                    "internalType": "uint256",
                    "name": "quantity",
                    "type": "uint256"
                },
                {
                    "internalType": "bytes32[]",
                    "name": "proof",
                    "type": "bytes32[]"
                }
            ],
            "name": "mintPresale",
            "outputs": [],
            "stateMutability": "payable",
            "type": "function"
        },
        {
            "inputs": [
                {
                    "internalType": "uint256",
                    "name": "quantity",
                    "type": "uint256"
                }
            ],
            "name": "mintToken",
            "outputs": [],
            "stateMutability": "payable",
            "type": "function"
        },
        {
            "inputs": [],
            "name": "name",
            "outputs": [
                {
                    "internalType": "string",
                    "name": "",
                    "type": "string"
                }
            ],
            "stateMutability": "view",
            "type": "function"
        },
        {
            "inputs": [],
            "name": "owner",
            "outputs": [
                {
                    "internalType": "address",
                    "name": "",
                    "type": "address"
                }
            ],
            "stateMutability": "view",
            "type": "function"
        },
        {
            "inputs": [
                {
                    "internalType": "uint256",
                    "name": "tokenId",
                    "type": "uint256"
                }
            ],
            "name": "ownerOf",
            "outputs": [
                {
                    "internalType": "address",
                    "name": "",
                    "type": "address"
                }
            ],
            "stateMutability": "view",
            "type": "function"
        },
        {
            "inputs": [],
            "name": "presaleActive",
            "outputs": [
                {
                    "internalType": "bool",
                    "name": "",
                    "type": "bool"
                }
            ],
            "stateMutability": "view",
            "type": "function"
        },
        {
            "inputs": [],
            "name": "presaleMerkleRoot",
            "outputs": [
                {
                    "internalType": "bytes32",
                    "name": "",
                    "type": "bytes32"
                }
            ],
            "stateMutability": "view",
            "type": "function"
        },
        {
            "inputs": [],
            "name": "price",
            "outputs": [
                {
                    "internalType": "uint256",
                    "name": "",
                    "type": "uint256"
                }
            ],
            "stateMutability": "view",
            "type": "function"
        },
        {
            "inputs": [
                {
                    "internalType": "address",
                    "name": "",
                    "type": "address"
                }
            ],
            "name": "projectProxy",
            "outputs": [
                {
                    "internalType": "bool",
                    "name": "",
                    "type": "bool"
                }
            ],
            "stateMutability": "view",
            "type": "function"
        },
        {
            "inputs": [],
            "name": "proxyRegistryAddress",
            "outputs": [
                {
                    "internalType": "address",
                    "name": "",
                    "type": "address"
                }
            ],
            "stateMutability": "view",
            "type": "function"
        },
        {
            "inputs": [
                {
                    "internalType": "address",
                    "name": "",
                    "type": "address"
                }
            ],
            "name": "publicsaleAddressMinted",
            "outputs": [
                {
                    "internalType": "uint256",
                    "name": "",
                    "type": "uint256"
                }
            ],
            "stateMutability": "view",
            "type": "function"
        },
        {
            "inputs": [],
            "name": "renounceOwnership",
            "outputs": [],
            "stateMutability": "nonpayable",
            "type": "function"
        },
        {
            "inputs": [
                {
                    "internalType": "address",
                    "name": "from",
                    "type": "address"
                },
                {
                    "internalType": "address",
                    "name": "to",
                    "type": "address"
                },
                {
                    "internalType": "uint256",
                    "name": "tokenId",
                    "type": "uint256"
                }
            ],
            "name": "safeTransferFrom",
            "outputs": [],
            "stateMutability": "nonpayable",
            "type": "function"
        },
        {
            "inputs": [
                {
                    "internalType": "address",
                    "name": "from",
                    "type": "address"
                },
                {
                    "internalType": "address",
                    "name": "to",
                    "type": "address"
                },
                {
                    "internalType": "uint256",
                    "name": "tokenId",
                    "type": "uint256"
                },
                {
                    "internalType": "bytes",
                    "name": "_data",
                    "type": "bytes"
                }
            ],
            "name": "safeTransferFrom",
            "outputs": [],
            "stateMutability": "nonpayable",
            "type": "function"
        },
        {
            "inputs": [],
            "name": "saleActive",
            "outputs": [
                {
                    "internalType": "bool",
                    "name": "",
                    "type": "bool"
                }
            ],
            "stateMutability": "view",
            "type": "function"
        },
        {
            "inputs": [
                {
                    "internalType": "address",
                    "name": "operator",
                    "type": "address"
                },
                {
                    "internalType": "bool",
                    "name": "approved",
                    "type": "bool"
                }
            ],
            "name": "setApprovalForAll",
            "outputs": [],
            "stateMutability": "nonpayable",
            "type": "function"
        },
        {
            "inputs": [
                {
                    "internalType": "string",
                    "name": "baseURI",
                    "type": "string"
                }
            ],
            "name": "setBaseURI",
            "outputs": [],
            "stateMutability": "nonpayable",
            "type": "function"
        },
        {
            "inputs": [
                {
                    "internalType": "uint256",
                    "name": "_maxMint",
                    "type": "uint256"
                }
            ],
            "name": "setMaxMint",
            "outputs": [],
            "stateMutability": "nonpayable",
            "type": "function"
        },
        {
            "inputs": [
                {
                    "internalType": "uint256",
                    "name": "_maxPresaleMint",
                    "type": "uint256"
                }
            ],
            "name": "setMaxPresaleMint",
            "outputs": [],
            "stateMutability": "nonpayable",
            "type": "function"
        },
        {
            "inputs": [
                {
                    "internalType": "bool",
                    "name": "val",
                    "type": "bool"
                }
            ],
            "name": "setPresaleActive",
            "outputs": [],
            "stateMutability": "nonpayable",
            "type": "function"
        },
        {
            "inputs": [
                {
                    "internalType": "bytes32",
                    "name": "presaleRoot",
                    "type": "bytes32"
                }
            ],
            "name": "setPresaleMerkleRoot",
            "outputs": [],
            "stateMutability": "nonpayable",
            "type": "function"
        },
        {
            "inputs": [
                {
                    "internalType": "uint256",
                    "name": "newPrice",
                    "type": "uint256"
                }
            ],
            "name": "setPrice",
            "outputs": [],
            "stateMutability": "nonpayable",
            "type": "function"
        },
        {
            "inputs": [
                {
                    "internalType": "string",
                    "name": "provenanceHash",
                    "type": "string"
                }
            ],
            "name": "setProvenanceHash",
            "outputs": [],
            "stateMutability": "nonpayable",
            "type": "function"
        },
        {
            "inputs": [
                {
                    "internalType": "bool",
                    "name": "val",
                    "type": "bool"
                }
            ],
            "name": "setSaleActive",
            "outputs": [],
            "stateMutability": "nonpayable",
            "type": "function"
        },
        {
            "inputs": [
                {
                    "internalType": "bytes4",
                    "name": "interfaceId",
                    "type": "bytes4"
                }
            ],
            "name": "supportsInterface",
            "outputs": [
                {
                    "internalType": "bool",
                    "name": "",
                    "type": "bool"
                }
            ],
            "stateMutability": "view",
            "type": "function"
        },
        {
            "inputs": [],
            "name": "symbol",
            "outputs": [
                {
                    "internalType": "string",
                    "name": "",
                    "type": "string"
                }
            ],
            "stateMutability": "view",
            "type": "function"
        },
        {
            "inputs": [
                {
                    "internalType": "uint256",
                    "name": "tokenId",
                    "type": "uint256"
                }
            ],
            "name": "tokenURI",
            "outputs": [
                {
                    "internalType": "string",
                    "name": "",
                    "type": "string"
                }
            ],
            "stateMutability": "view",
            "type": "function"
        },
        {
            "inputs": [],
            "name": "totalSupply",
            "outputs": [
                {
                    "internalType": "uint256",
                    "name": "",
                    "type": "uint256"
                }
            ],
            "stateMutability": "view",
            "type": "function"
        },
        {
            "inputs": [
                {
                    "internalType": "address",
                    "name": "from",
                    "type": "address"
                },
                {
                    "internalType": "address",
                    "name": "to",
                    "type": "address"
                },
                {
                    "internalType": "uint256",
                    "name": "tokenId",
                    "type": "uint256"
                }
            ],
            "name": "transferFrom",
            "outputs": [],
            "stateMutability": "nonpayable",
            "type": "function"
        },
        {
            "inputs": [
                {
                    "internalType": "address",
                    "name": "newOwner",
                    "type": "address"
                }
            ],
            "name": "transferOwnership",
            "outputs": [],
            "stateMutability": "nonpayable",
            "type": "function"
        },
        {
            "inputs": [],
            "name": "withdrawAll",
            "outputs": [],
            "stateMutability": "payable",
            "type": "function"
        }
    ],
    "bytecode": "60806040526611c37937e08000600a556002600b819055600c55601480546001600160a01b031990811673909957dcc1b114fe262f4779e6aed4d034d96b0f179091556015805490911673ea64073446e6afd80574d8a72c8e9af547a430181790553480156200006e57600080fd5b506040805180820182526005815264135e53919560da1b6020808301918252835180850190945260048452631353919560e21b908401528151919291620000b8916002916200013d565b508051620000ce9060039060208401906200013d565b50506000805550620000e033620000eb565b60016009556200021f565b600880546001600160a01b038381166001600160a01b0319831681179093556040519116919082907f8be0079c531659141344cd1fd0a4f28419497f9722a3daafe3b4186f6b6457e090600090a35050565b8280546200014b90620001e3565b90600052602060002090601f0160209004810192826200016f5760008555620001ba565b82601f106200018a57805160ff1916838001178555620001ba565b82800160010185558215620001ba579182015b82811115620001ba5782518255916020019190600101906200019d565b50620001c8929150620001cc565b5090565b5b80821115620001c85760008155600101620001cd565b600181811c90821680620001f857607f821691505b6020821081036200021957634e487b7160e01b600052602260045260246000fd5b50919050565b612381806200022f6000396000f3fe6080604052600436106102465760003560e01c80636fffbd6011610139578063a035b1fe116100b6578063c87b56dd1161007a578063c87b56dd1461068e578063cd7c0326146106ae578063cfc86f7b146106ce578063e985e9c5146106e3578063f2fde38b1461072c578063fba7d7cb1461074c57600080fd5b8063a035b1fe1461060f578063a22cb46514610625578063b457627814610645578063b88d4fde1461065b578063c634d0321461067b57600080fd5b8063853828b6116100fd578063853828b6146105875780638da5cb5b1461058f5780638eaf6867146105ad57806391b7f5ed146105da57806395d89b41146105fa57600080fd5b80636fffbd60146104ef57806370a082311461051c578063715018a61461053c5780637501f74114610551578063841718a61461056757600080fd5b806328d7b276116101c7578063547520fe1161018b578063547520fe1461043e57806355f804b31461045e5780635bab26e21461047e5780636352211e146104ae57806368428a1b146104ce57600080fd5b806328d7b2761461039d5780633425f90c146103bd5780633f8121a2146103dd57806342842e0e146103fd57806353135ca01461041d57600080fd5b80630c0a6b5e1161020e5780630c0a6b5e14610311578063109695231461032457806318160ddd1461034457806322212e2b1461036757806323b872dd1461037d57600080fd5b806301ffc9a71461024b5780630444b2761461028057806306fdde03146102a2578063081812fc146102b7578063095ea7b3146102ef575b600080fd5b34801561025757600080fd5b5061026b610266366004611d65565b61076c565b60405190151581526020015b60405180910390f35b34801561028c57600080fd5b506102956107be565b6040516102779190611dda565b3480156102ae57600080fd5b5061029561084c565b3480156102c357600080fd5b506102d76102d2366004611ded565b6108de565b6040516001600160a01b039091168152602001610277565b3480156102fb57600080fd5b5061030f61030a366004611e22565b610922565b005b61030f61031f366004611e93565b6109af565b34801561033057600080fd5b5061030f61033f366004611f9d565b610c32565b34801561035057600080fd5b50600154600054035b604051908152602001610277565b34801561037357600080fd5b5061035960135481565b34801561038957600080fd5b5061030f610398366004611fe6565b610c73565b3480156103a957600080fd5b5061030f6103b8366004611ded565b610c7e565b3480156103c957600080fd5b5061030f6103d8366004611ded565b610cad565b3480156103e957600080fd5b5061030f6103f8366004612032565b610cdc565b34801561040957600080fd5b5061030f610418366004611fe6565b610d24565b34801561042957600080fd5b50600d5461026b90600160a81b900460ff1681565b34801561044a57600080fd5b5061030f610459366004611ded565b610d3f565b34801561046a57600080fd5b5061030f610479366004611f9d565b610d6e565b34801561048a57600080fd5b5061026b61049936600461204d565b60126020526000908152604090205460ff1681565b3480156104ba57600080fd5b506102d76104c9366004611ded565b610dab565b3480156104da57600080fd5b50600d5461026b90600160a01b900460ff1681565b3480156104fb57600080fd5b5061035961050a36600461204d565b60116020526000908152604090205481565b34801561052857600080fd5b5061035961053736600461204d565b610dbd565b34801561054857600080fd5b5061030f610e0c565b34801561055d57600080fd5b50610359600b5481565b34801561057357600080fd5b5061030f610582366004612032565b610e42565b61030f610e8a565b34801561059b57600080fd5b506008546001600160a01b03166102d7565b3480156105b957600080fd5b506103596105c836600461204d565b60106020526000908152604090205481565b3480156105e657600080fd5b5061030f6105f5366004611ded565b610f39565b34801561060657600080fd5b50610295610f68565b34801561061b57600080fd5b50610359600a5481565b34801561063157600080fd5b5061030f610640366004612068565b610f77565b34801561065157600080fd5b50610359600c5481565b34801561066757600080fd5b5061030f61067636600461209b565b61100c565b61030f610689366004611ded565b61105d565b34801561069a57600080fd5b506102956106a9366004611ded565b61129b565b3480156106ba57600080fd5b50600d546102d7906001600160a01b031681565b3480156106da57600080fd5b5061029561131f565b3480156106ef57600080fd5b5061026b6106fe366004612117565b6001600160a01b03918216600090815260076020908152604080832093909416825291909152205460ff1690565b34801561073857600080fd5b5061030f61074736600461204d565b61132c565b34801561075857600080fd5b5061030f610767366004611ded565b6113c7565b60006001600160e01b031982166380ac58cd60e01b148061079d57506001600160e01b03198216635b5e139f60e01b145b806107b857506301ffc9a760e01b6001600160e01b03198316145b92915050565b600f80546107cb90612141565b80601f01602080910402602001604051908101604052809291908181526020018280546107f790612141565b80156108445780601f1061081957610100808354040283529160200191610844565b820191906000526020600020905b81548152906001019060200180831161082757829003601f168201915b505050505081565b60606002805461085b90612141565b80601f016020809104026020016040519081016040528092919081815260200182805461088790612141565b80156108d45780601f106108a9576101008083540402835291602001916108d4565b820191906000526020600020905b8154815290600101906020018083116108b757829003601f168201915b5050505050905090565b60006108e982611457565b610906576040516333d1c03960e21b815260040160405180910390fd5b506000908152600660205260409020546001600160a01b031690565b600061092d82610dab565b9050806001600160a01b0316836001600160a01b0316036109615760405163250fdee360e21b815260040160405180910390fd5b336001600160a01b03821614801590610981575061097f81336106fe565b155b1561099f576040516367d9dca160e11b815260040160405180910390fd5b6109aa838383611482565b505050565b600d54600160a81b900460ff16610a055760405162461bcd60e51b815260206004820152601560248201527450726573616c65206973206e6f742061637469766560581b60448201526064015b60405180910390fd5b600260095403610a575760405162461bcd60e51b815260206004820152601f60248201527f5265656e7472616e637947756172643a207265656e7472616e742063616c6c0060448201526064016109fc565b60026009556013546040516bffffffffffffffffffffffff193360601b166020820152610a9e918391603401604051602081830303815290604052805190602001206114de565b610af55760405162461bcd60e51b815260206004820152602260248201527f41646472657373206973206e6f74206f6e2031204d494e5420416c6c6f776c696044820152611cdd60f21b60648201526084016109fc565b3482600a54610b049190612191565b14610b4b5760405162461bcd60e51b815260206004820152601760248201527615dc9bdb99c8185b5bdd5d081bd988115512081cd95b9d604a1b60448201526064016109fc565b600c5433600090815260106020526040902054610b699084906121b0565b14610bc25760405162461bcd60e51b8152602060048201526024808201527f43616e206f6e6c79206d696e74203120746f6b656e20647572696e672050726560448201526353616c6560e01b60648201526084016109fc565b6103e782610bd36001546000540390565b610bdd91906121b0565b10610bfa5760405162461bcd60e51b81526004016109fc906121c8565b3360009081526010602052604081208054849290610c199084906121b0565b90915550610c29905033836114f4565b50506001600955565b6008546001600160a01b03163314610c5c5760405162461bcd60e51b81526004016109fc90612209565b8051610c6f90600f906020840190611cb6565b5050565b6109aa83838361150e565b6008546001600160a01b03163314610ca85760405162461bcd60e51b81526004016109fc90612209565b601355565b6008546001600160a01b03163314610cd75760405162461bcd60e51b81526004016109fc90612209565b600c55565b6008546001600160a01b03163314610d065760405162461bcd60e51b81526004016109fc90612209565b600d8054911515600160a81b0260ff60a81b19909216919091179055565b6109aa8383836040518060200160405280600081525061100c565b6008546001600160a01b03163314610d695760405162461bcd60e51b81526004016109fc90612209565b600b55565b6008546001600160a01b03163314610d985760405162461bcd60e51b81526004016109fc90612209565b8051610c6f90600e906020840190611cb6565b6000610db6826116fe565b5192915050565b60006001600160a01b038216610de6576040516323d3ad8160e21b815260040160405180910390fd5b506001600160a01b031660009081526005602052604090205467ffffffffffffffff1690565b6008546001600160a01b03163314610e365760405162461bcd60e51b81526004016109fc90612209565b610e40600061181a565b565b6008546001600160a01b03163314610e6c5760405162461bcd60e51b81526004016109fc90612209565b600d8054911515600160a01b0260ff60a01b19909216919091179055565b6008546001600160a01b03163314610eb45760405162461bcd60e51b81526004016109fc90612209565b476000610ec2606483612254565b6014549091506001600160a01b03166108fc610edf836032612191565b6040518115909202916000818181858888f19350505050610eff57600080fd5b6015546001600160a01b03166108fc610f19836032612191565b6040518115909202916000818181858888f19350505050610c6f57600080fd5b6008546001600160a01b03163314610f635760405162461bcd60e51b81526004016109fc90612209565b600a55565b60606003805461085b90612141565b336001600160a01b03831603610fa05760405163b06307db60e01b815260040160405180910390fd5b3360008181526007602090815260408083206001600160a01b03871680855290835292819020805460ff191686151590811790915590519081529192917f17307eab39ab6107e8899845ad3d59bd9653f200f220920489ca2b5937696c31910160405180910390a35050565b61101784848461150e565b6001600160a01b0383163b1515801561103957506110378484848461186c565b155b15611057576040516368d2bf6b60e11b815260040160405180910390fd5b50505050565b600d54600160a01b900460ff166110b65760405162461bcd60e51b815260206004820152601960248201527f5075626c69632073616c65206973206e6f74206163746976650000000000000060448201526064016109fc565b6002600954036111085760405162461bcd60e51b815260206004820152601f60248201527f5265656e7472616e637947756172643a207265656e7472616e742063616c6c0060448201526064016109fc565b6002600955600b548111156111695760405162461bcd60e51b815260206004820152602160248201527f596f752063616e206e6f74206d696e74206d6f7265207468616e20616c6f77656044820152601960fa1b60648201526084016109fc565b3481600a546111789190612191565b146111bf5760405162461bcd60e51b815260206004820152601760248201527615dc9bdb99c8185b5bdd5d081bd988115512081cd95b9d604a1b60448201526064016109fc565b600b54336000908152601160205260409020546111dd9083906121b0565b111561122b5760405162461bcd60e51b815260206004820152601a60248201527f43616e206f6e6c79206d696e742032207065722077616c6c657400000000000060448201526064016109fc565b6103e78161123c6001546000540390565b61124691906121b0565b11156112645760405162461bcd60e51b81526004016109fc906121c8565b33600090815260116020526040812080548392906112839084906121b0565b90915550611293905033826114f4565b506001600955565b60606112a682611457565b6112c357604051630a14c4b560e41b815260040160405180910390fd5b60006112cd611958565b905080516000036112ed5760405180602001604052806000815250611318565b806112f784611967565b604051602001611308929190612268565b6040516020818303038152906040525b9392505050565b600e80546107cb90612141565b6008546001600160a01b031633146113565760405162461bcd60e51b81526004016109fc90612209565b6001600160a01b0381166113bb5760405162461bcd60e51b815260206004820152602660248201527f4f776e61626c653a206e6577206f776e657220697320746865207a65726f206160448201526564647265737360d01b60648201526084016109fc565b6113c48161181a565b50565b6008546001600160a01b031633146113f15760405162461bcd60e51b81526004016109fc90612209565b6103e7816114026001546000540390565b61140c91906121b0565b111561144d5760405162461bcd60e51b815260206004820152601060248201526f4d696e74696e6720746f6f206d616e7960801b60448201526064016109fc565b6113c433826114f4565b60008054821080156107b8575050600090815260046020526040902054600160e01b900460ff161590565b60008281526006602052604080822080546001600160a01b0319166001600160a01b0387811691821790925591518593918516917f8c5be1e5ebec7d5bd14f71427d1e84f3dd0314c0f7b2291e5b200ac8c7c3b92591a4505050565b6000826114eb8584611a68565b14949350505050565b610c6f828260405180602001604052806000815250611adc565b6000611519826116fe565b9050836001600160a01b031681600001516001600160a01b0316146115505760405162a1148160e81b815260040160405180910390fd5b6000336001600160a01b038616148061156e575061156e85336106fe565b8061158957503361157e846108de565b6001600160a01b0316145b9050806115a957604051632ce44b5f60e11b815260040160405180910390fd5b6001600160a01b0384166115d057604051633a954ecd60e21b815260040160405180910390fd5b6115dc60008487611482565b6001600160a01b038581166000908152600560209081526040808320805467ffffffffffffffff1980821667ffffffffffffffff92831660001901831617909255898616808652838620805493841693831660019081018416949094179055898652600490945282852080546001600160e01b031916909417600160a01b429092169190910217835587018084529220805491939091166116b25760005482146116b2578054602086015167ffffffffffffffff16600160a01b026001600160e01b03199091166001600160a01b038a16171781555b50505082846001600160a01b0316866001600160a01b03167fddf252ad1be2c89b69c2b068fc378daa952ba7f163c4a11628f55a4df523b3ef60405160405180910390a45b5050505050565b60408051606081018252600080825260208201819052918101919091528160005481101561180157600081815260046020908152604091829020825160608101845290546001600160a01b0381168252600160a01b810467ffffffffffffffff1692820192909252600160e01b90910460ff161515918101829052906117ff5780516001600160a01b031615611795579392505050565b5060001901600081815260046020908152604091829020825160608101845290546001600160a01b038116808352600160a01b820467ffffffffffffffff1693830193909352600160e01b900460ff16151592810192909252156117fa579392505050565b611795565b505b604051636f96cda160e11b815260040160405180910390fd5b600880546001600160a01b038381166001600160a01b0319831681179093556040519116919082907f8be0079c531659141344cd1fd0a4f28419497f9722a3daafe3b4186f6b6457e090600090a35050565b604051630a85bd0160e11b81526000906001600160a01b0385169063150b7a02906118a1903390899088908890600401612297565b6020604051808303816000875af19250505080156118dc575060408051601f3d908101601f191682019092526118d9918101906122d4565b60015b61193a573d80801561190a576040519150601f19603f3d011682016040523d82523d6000602084013e61190f565b606091505b508051600003611932576040516368d2bf6b60e11b815260040160405180910390fd5b805181602001fd5b6001600160e01b031916630a85bd0160e11b1490505b949350505050565b6060600e805461085b90612141565b60608160000361198e5750506040805180820190915260018152600360fc1b602082015290565b8160005b81156119b857806119a2816122f1565b91506119b19050600a83612254565b9150611992565b60008167ffffffffffffffff8111156119d3576119d3611e4c565b6040519080825280601f01601f1916602001820160405280156119fd576020820181803683370190505b5090505b841561195057611a1260018361230a565b9150611a1f600a86612321565b611a2a9060306121b0565b60f81b818381518110611a3f57611a3f612335565b60200101906001600160f81b031916908160001a905350611a61600a86612254565b9450611a01565b600081815b8451811015611ad4576000858281518110611a8a57611a8a612335565b60200260200101519050808311611ab05760008381526020829052604090209250611ac1565b600081815260208490526040902092505b5080611acc816122f1565b915050611a6d565b509392505050565b6109aa83838360016000546001600160a01b038516611b0d57604051622e076360e81b815260040160405180910390fd5b83600003611b2e5760405163b562e8dd60e01b815260040160405180910390fd5b6001600160a01b038516600081815260056020908152604080832080546fffffffffffffffffffffffffffffffff19811667ffffffffffffffff8083168c0181169182176801000000000000000067ffffffffffffffff1990941690921783900481168c01811690920217909155858452600490925290912080546001600160e01b031916909217600160a01b429092169190910217905580808501838015611be057506001600160a01b0387163b15155b15611c68575b60405182906001600160a01b038916906000907fddf252ad1be2c89b69c2b068fc378daa952ba7f163c4a11628f55a4df523b3ef908290a4611c31600088848060010195508861186c565b611c4e576040516368d2bf6b60e11b815260040160405180910390fd5b808203611be6578260005414611c6357600080fd5b611cad565b5b6040516001830192906001600160a01b038916906000907fddf252ad1be2c89b69c2b068fc378daa952ba7f163c4a11628f55a4df523b3ef908290a4808203611c69575b506000556116f7565b828054611cc290612141565b90600052602060002090601f016020900481019282611ce45760008555611d2a565b82601f10611cfd57805160ff1916838001178555611d2a565b82800160010185558215611d2a579182015b82811115611d2a578251825591602001919060010190611d0f565b50611d36929150611d3a565b5090565b5b80821115611d365760008155600101611d3b565b6001600160e01b0319811681146113c457600080fd5b600060208284031215611d7757600080fd5b813561131881611d4f565b60005b83811015611d9d578181015183820152602001611d85565b838111156110575750506000910152565b60008151808452611dc6816020860160208601611d82565b601f01601f19169290920160200192915050565b6020815260006113186020830184611dae565b600060208284031215611dff57600080fd5b5035919050565b80356001600160a01b0381168114611e1d57600080fd5b919050565b60008060408385031215611e3557600080fd5b611e3e83611e06565b946020939093013593505050565b634e487b7160e01b600052604160045260246000fd5b604051601f8201601f1916810167ffffffffffffffff81118282101715611e8b57611e8b611e4c565b604052919050565b60008060408385031215611ea657600080fd5b8235915060208084013567ffffffffffffffff80821115611ec657600080fd5b818601915086601f830112611eda57600080fd5b813581811115611eec57611eec611e4c565b8060051b9150611efd848301611e62565b8181529183018401918481019089841115611f1757600080fd5b938501935b83851015611f3557843582529385019390850190611f1c565b8096505050505050509250929050565b600067ffffffffffffffff831115611f5f57611f5f611e4c565b611f72601f8401601f1916602001611e62565b9050828152838383011115611f8657600080fd5b828260208301376000602084830101529392505050565b600060208284031215611faf57600080fd5b813567ffffffffffffffff811115611fc657600080fd5b8201601f81018413611fd757600080fd5b61195084823560208401611f45565b600080600060608486031215611ffb57600080fd5b61200484611e06565b925061201260208501611e06565b9150604084013590509250925092565b80358015158114611e1d57600080fd5b60006020828403121561204457600080fd5b61131882612022565b60006020828403121561205f57600080fd5b61131882611e06565b6000806040838503121561207b57600080fd5b61208483611e06565b915061209260208401612022565b90509250929050565b600080600080608085870312156120b157600080fd5b6120ba85611e06565b93506120c860208601611e06565b925060408501359150606085013567ffffffffffffffff8111156120eb57600080fd5b8501601f810187136120fc57600080fd5b61210b87823560208401611f45565b91505092959194509250565b6000806040838503121561212a57600080fd5b61213383611e06565b915061209260208401611e06565b600181811c9082168061215557607f821691505b60208210810361217557634e487b7160e01b600052602260045260246000fd5b50919050565b634e487b7160e01b600052601160045260246000fd5b60008160001904831182151516156121ab576121ab61217b565b500290565b600082198211156121c3576121c361217b565b500190565b60208082526021908201527f43616e206e6f74206d696e74206d6f7265207468616e206d617820737570706c6040820152607960f81b606082015260800190565b6020808252818101527f4f776e61626c653a2063616c6c6572206973206e6f7420746865206f776e6572604082015260600190565b634e487b7160e01b600052601260045260246000fd5b6000826122635761226361223e565b500490565b6000835161227a818460208801611d82565b83519083019061228e818360208801611d82565b01949350505050565b6001600160a01b03858116825284166020820152604081018390526080606082018190526000906122ca90830184611dae565b9695505050505050565b6000602082840312156122e657600080fd5b815161131881611d4f565b6000600182016123035761230361217b565b5060010190565b60008282101561231c5761231c61217b565b500390565b6000826123305761233061223e565b500690565b634e487b7160e01b600052603260045260246000fdfea26469706673582212207efdd9ecd11a350585faee71d4bed1eabd86dc74d0acd88b9877e4d8c7e6c0fd64736f6c634300080d0033",
    "sourcePath": "c:/Users/Robert/Documents/GitHub/erc721a-smart-contract-merkle-whitelist/contracts/MyNFT.sol",
    "compiler": {
        "name": "solc",
        "version": "0.8.13+commit.abaa5c0e"
    },
    "functionHashes": {
        "NFTProvenance()": "0444b276",
        "_baseTokenURI()": "cfc86f7b",
        "_tokensMintedByAddress(address)": "8eaf6867",
        "approve(address,uint256)": "095ea7b3",
        "balanceOf(address)": "70a08231",
        "getApproved(uint256)": "081812fc",
        "isApprovedForAll(address,address)": "e985e9c5",
        "maxMint()": "7501f741",
        "maxPresaleMint()": "b4576278",
        "mintDev(uint256)": "fba7d7cb",
        "mintPresale(uint256,bytes32[])": "0c0a6b5e",
        "mintToken(uint256)": "c634d032",
        "name()": "06fdde03",
        "owner()": "8da5cb5b",
        "ownerOf(uint256)": "6352211e",
        "presaleActive()": "53135ca0",
        "presaleMerkleRoot()": "22212e2b",
        "price()": "a035b1fe",
        "projectProxy(address)": "5bab26e2",
        "proxyRegistryAddress()": "cd7c0326",
        "publicsaleAddressMinted(address)": "6fffbd60",
        "renounceOwnership()": "715018a6",
        "safeTransferFrom(address,address,uint256)": "42842e0e",
        "safeTransferFrom(address,address,uint256,bytes)": "b88d4fde",
        "saleActive()": "68428a1b",
        "setApprovalForAll(address,bool)": "a22cb465",
        "setBaseURI(string)": "55f804b3",
        "setMaxMint(uint256)": "547520fe",
        "setMaxPresaleMint(uint256)": "3425f90c",
        "setPresaleActive(bool)": "3f8121a2",
        "setPresaleMerkleRoot(bytes32)": "28d7b276",
        "setPrice(uint256)": "91b7f5ed",
        "setProvenanceHash(string)": "10969523",
        "setSaleActive(bool)": "841718a6",
        "supportsInterface(bytes4)": "01ffc9a7",
        "symbol()": "95d89b41",
        "tokenURI(uint256)": "c87b56dd",
        "totalSupply()": "18160ddd",
        "transferFrom(address,address,uint256)": "23b872dd",
        "transferOwnership(address)": "f2fde38b",
        "withdrawAll()": "853828b6"
    },
    "gasEstimates": {
        "creation": {
            "codeDepositCost": "1817800",
            "executionCost": "infinite",
            "totalCost": "infinite"
        },
        "external": {
            "NFTProvenance()": "infinite",
            "_baseTokenURI()": "infinite",
            "_tokensMintedByAddress(address)": "2608",
            "approve(address,uint256)": "infinite",
            "balanceOf(address)": "2663",
            "getApproved(uint256)": "6981",
            "isApprovedForAll(address,address)": "infinite",
            "maxMint()": "2407",
            "maxPresaleMint()": "2384",
            "mintDev(uint256)": "infinite",
            "mintPresale(uint256,bytes32[])": "infinite",
            "mintToken(uint256)": "infinite",
            "name()": "infinite",
            "owner()": "2398",
            "ownerOf(uint256)": "infinite",
            "presaleActive()": "2450",
            "presaleMerkleRoot()": "2407",
            "price()": "2340",
            "projectProxy(address)": "2609",
            "proxyRegistryAddress()": "2403",
            "publicsaleAddressMinted(address)": "2565",
            "renounceOwnership()": "28207",
            "safeTransferFrom(address,address,uint256)": "infinite",
            "safeTransferFrom(address,address,uint256,bytes)": "infinite",
            "saleActive()": "2449",
            "setApprovalForAll(address,bool)": "infinite",
            "setBaseURI(string)": "infinite",
            "setMaxMint(uint256)": "24509",
            "setMaxPresaleMint(uint256)": "24532",
            "setPresaleActive(bool)": "26785",
            "setPresaleMerkleRoot(bytes32)": "24510",
            "setPrice(uint256)": "24575",
            "setProvenanceHash(string)": "infinite",
            "setSaleActive(bool)": "26829",
            "supportsInterface(bytes4)": "557",
            "symbol()": "infinite",
            "tokenURI(uint256)": "infinite",
            "totalSupply()": "4477",
            "transferFrom(address,address,uint256)": "infinite",
            "transferOwnership(address)": "28444",
            "withdrawAll()": "infinite"
        },
        "internal": {
            "_baseURI()": "infinite"
        }
    }
}