{
    "contractName": "MyNFT",
    "abi": [
        {
            "inputs": [
                {
                    "internalType": "address",
                    "name": "_proxyRegistryAddress",
                    "type": "address"
                }
            ],
            "stateMutability": "nonpayable",
            "type": "constructor"
        },
        {
            "inputs": [],
            "name": "ApprovalCallerNotOwnerNorApproved",
            "type": "error"
        },
        {
            "inputs": [],
            "name": "ApprovalQueryForNonexistentToken",
            "type": "error"
        },
        {
            "inputs": [],
            "name": "ApprovalToCurrentOwner",
            "type": "error"
        },
        {
            "inputs": [],
            "name": "ApproveToCaller",
            "type": "error"
        },
        {
            "inputs": [],
            "name": "BalanceQueryForZeroAddress",
            "type": "error"
        },
        {
            "inputs": [],
            "name": "MintToZeroAddress",
            "type": "error"
        },
        {
            "inputs": [],
            "name": "MintZeroQuantity",
            "type": "error"
        },
        {
            "inputs": [],
            "name": "OwnerQueryForNonexistentToken",
            "type": "error"
        },
        {
            "inputs": [],
            "name": "TransferCallerNotOwnerNorApproved",
            "type": "error"
        },
        {
            "inputs": [],
            "name": "TransferFromIncorrectOwner",
            "type": "error"
        },
        {
            "inputs": [],
            "name": "TransferToNonERC721ReceiverImplementer",
            "type": "error"
        },
        {
            "inputs": [],
            "name": "TransferToZeroAddress",
            "type": "error"
        },
        {
            "inputs": [],
            "name": "URIQueryForNonexistentToken",
            "type": "error"
        },
        {
            "anonymous": false,
            "inputs": [
                {
                    "indexed": true,
                    "internalType": "address",
                    "name": "owner",
                    "type": "address"
                },
                {
                    "indexed": true,
                    "internalType": "address",
                    "name": "approved",
                    "type": "address"
                },
                {
                    "indexed": true,
                    "internalType": "uint256",
                    "name": "tokenId",
                    "type": "uint256"
                }
            ],
            "name": "Approval",
            "type": "event"
        },
        {
            "anonymous": false,
            "inputs": [
                {
                    "indexed": true,
                    "internalType": "address",
                    "name": "owner",
                    "type": "address"
                },
                {
                    "indexed": true,
                    "internalType": "address",
                    "name": "operator",
                    "type": "address"
                },
                {
                    "indexed": false,
                    "internalType": "bool",
                    "name": "approved",
                    "type": "bool"
                }
            ],
            "name": "ApprovalForAll",
            "type": "event"
        },
        {
            "anonymous": false,
            "inputs": [
                {
                    "indexed": true,
                    "internalType": "address",
                    "name": "previousOwner",
                    "type": "address"
                },
                {
                    "indexed": true,
                    "internalType": "address",
                    "name": "newOwner",
                    "type": "address"
                }
            ],
            "name": "OwnershipTransferred",
            "type": "event"
        },
        {
            "anonymous": false,
            "inputs": [
                {
                    "indexed": true,
                    "internalType": "address",
                    "name": "from",
                    "type": "address"
                },
                {
                    "indexed": true,
                    "internalType": "address",
                    "name": "to",
                    "type": "address"
                },
                {
                    "indexed": true,
                    "internalType": "uint256",
                    "name": "tokenId",
                    "type": "uint256"
                }
            ],
            "name": "Transfer",
            "type": "event"
        },
        {
            "inputs": [],
            "name": "NFTProvenance",
            "outputs": [
                {
                    "internalType": "string",
                    "name": "",
                    "type": "string"
                }
            ],
            "stateMutability": "view",
            "type": "function"
        },
        {
            "inputs": [],
            "name": "_baseTokenURI",
            "outputs": [
                {
                    "internalType": "string",
                    "name": "",
                    "type": "string"
                }
            ],
            "stateMutability": "view",
            "type": "function"
        },
        {
            "inputs": [
                {
                    "internalType": "address",
                    "name": "",
                    "type": "address"
                }
            ],
            "name": "_tokensMintedByAddress",
            "outputs": [
                {
                    "internalType": "uint256",
                    "name": "",
                    "type": "uint256"
                }
            ],
            "stateMutability": "view",
            "type": "function"
        },
        {
            "inputs": [
                {
                    "internalType": "address",
                    "name": "to",
                    "type": "address"
                },
                {
                    "internalType": "uint256",
                    "name": "tokenId",
                    "type": "uint256"
                }
            ],
            "name": "approve",
            "outputs": [],
            "stateMutability": "nonpayable",
            "type": "function"
        },
        {
            "inputs": [
                {
                    "internalType": "address",
                    "name": "owner",
                    "type": "address"
                }
            ],
            "name": "balanceOf",
            "outputs": [
                {
                    "internalType": "uint256",
                    "name": "",
                    "type": "uint256"
                }
            ],
            "stateMutability": "view",
            "type": "function"
        },
        {
            "inputs": [
                {
                    "internalType": "address",
                    "name": "_proxyAddress",
                    "type": "address"
                }
            ],
            "name": "flipProxyState",
            "outputs": [],
            "stateMutability": "nonpayable",
            "type": "function"
        },
        {
            "inputs": [
                {
                    "internalType": "uint256",
                    "name": "tokenId",
                    "type": "uint256"
                }
            ],
            "name": "getApproved",
            "outputs": [
                {
                    "internalType": "address",
                    "name": "",
                    "type": "address"
                }
            ],
            "stateMutability": "view",
            "type": "function"
        },
        {
            "inputs": [
                {
                    "internalType": "address",
                    "name": "_owner",
                    "type": "address"
                },
                {
                    "internalType": "address",
                    "name": "_operator",
                    "type": "address"
                }
            ],
            "name": "isApprovedForAll",
            "outputs": [
                {
                    "internalType": "bool",
                    "name": "",
                    "type": "bool"
                }
            ],
            "stateMutability": "view",
            "type": "function"
        },
        {
            "inputs": [],
            "name": "maxMint",
            "outputs": [
                {
                    "internalType": "uint256",
                    "name": "",
                    "type": "uint256"
                }
            ],
            "stateMutability": "view",
            "type": "function"
        },
        {
            "inputs": [],
            "name": "maxPresaleMint",
            "outputs": [
                {
                    "internalType": "uint256",
                    "name": "",
                    "type": "uint256"
                }
            ],
            "stateMutability": "view",
            "type": "function"
        },
        {
            "inputs": [
                {
                    "internalType": "uint256",
                    "name": "quantity",
                    "type": "uint256"
                }
            ],
            "name": "mintDev",
            "outputs": [],
            "stateMutability": "nonpayable",
            "type": "function"
        },
        {
            "inputs": [
                {
                    "internalType": "uint256",
                    "name": "quantity",
                    "type": "uint256"
                },
                {
                    "internalType": "bytes32[]",
                    "name": "proof",
                    "type": "bytes32[]"
                }
            ],
            "name": "mintPresale",
            "outputs": [],
            "stateMutability": "payable",
            "type": "function"
        },
        {
            "inputs": [
                {
                    "internalType": "uint256",
                    "name": "quantity",
                    "type": "uint256"
                }
            ],
            "name": "mintToken",
            "outputs": [],
            "stateMutability": "payable",
            "type": "function"
        },
        {
            "inputs": [],
            "name": "name",
            "outputs": [
                {
                    "internalType": "string",
                    "name": "",
                    "type": "string"
                }
            ],
            "stateMutability": "view",
            "type": "function"
        },
        {
            "inputs": [],
            "name": "owner",
            "outputs": [
                {
                    "internalType": "address",
                    "name": "",
                    "type": "address"
                }
            ],
            "stateMutability": "view",
            "type": "function"
        },
        {
            "inputs": [
                {
                    "internalType": "uint256",
                    "name": "tokenId",
                    "type": "uint256"
                }
            ],
            "name": "ownerOf",
            "outputs": [
                {
                    "internalType": "address",
                    "name": "",
                    "type": "address"
                }
            ],
            "stateMutability": "view",
            "type": "function"
        },
        {
            "inputs": [],
            "name": "presaleActive",
            "outputs": [
                {
                    "internalType": "bool",
                    "name": "",
                    "type": "bool"
                }
            ],
            "stateMutability": "view",
            "type": "function"
        },
        {
            "inputs": [],
            "name": "presaleMerkleRoot",
            "outputs": [
                {
                    "internalType": "bytes32",
                    "name": "",
                    "type": "bytes32"
                }
            ],
            "stateMutability": "view",
            "type": "function"
        },
        {
            "inputs": [],
            "name": "price",
            "outputs": [
                {
                    "internalType": "uint256",
                    "name": "",
                    "type": "uint256"
                }
            ],
            "stateMutability": "view",
            "type": "function"
        },
        {
            "inputs": [
                {
                    "internalType": "address",
                    "name": "",
                    "type": "address"
                }
            ],
            "name": "projectProxy",
            "outputs": [
                {
                    "internalType": "bool",
                    "name": "",
                    "type": "bool"
                }
            ],
            "stateMutability": "view",
            "type": "function"
        },
        {
            "inputs": [],
            "name": "proxyRegistryAddress",
            "outputs": [
                {
                    "internalType": "address",
                    "name": "",
                    "type": "address"
                }
            ],
            "stateMutability": "view",
            "type": "function"
        },
        {
            "inputs": [
                {
                    "internalType": "address",
                    "name": "",
                    "type": "address"
                }
            ],
            "name": "publicsaleAddressMinted",
            "outputs": [
                {
                    "internalType": "uint256",
                    "name": "",
                    "type": "uint256"
                }
            ],
            "stateMutability": "view",
            "type": "function"
        },
        {
            "inputs": [],
            "name": "renounceOwnership",
            "outputs": [],
            "stateMutability": "nonpayable",
            "type": "function"
        },
        {
            "inputs": [
                {
                    "internalType": "address",
                    "name": "from",
                    "type": "address"
                },
                {
                    "internalType": "address",
                    "name": "to",
                    "type": "address"
                },
                {
                    "internalType": "uint256",
                    "name": "tokenId",
                    "type": "uint256"
                }
            ],
            "name": "safeTransferFrom",
            "outputs": [],
            "stateMutability": "nonpayable",
            "type": "function"
        },
        {
            "inputs": [
                {
                    "internalType": "address",
                    "name": "from",
                    "type": "address"
                },
                {
                    "internalType": "address",
                    "name": "to",
                    "type": "address"
                },
                {
                    "internalType": "uint256",
                    "name": "tokenId",
                    "type": "uint256"
                },
                {
                    "internalType": "bytes",
                    "name": "_data",
                    "type": "bytes"
                }
            ],
            "name": "safeTransferFrom",
            "outputs": [],
            "stateMutability": "nonpayable",
            "type": "function"
        },
        {
            "inputs": [],
            "name": "saleActive",
            "outputs": [
                {
                    "internalType": "bool",
                    "name": "",
                    "type": "bool"
                }
            ],
            "stateMutability": "view",
            "type": "function"
        },
        {
            "inputs": [
                {
                    "internalType": "address",
                    "name": "operator",
                    "type": "address"
                },
                {
                    "internalType": "bool",
                    "name": "approved",
                    "type": "bool"
                }
            ],
            "name": "setApprovalForAll",
            "outputs": [],
            "stateMutability": "nonpayable",
            "type": "function"
        },
        {
            "inputs": [
                {
                    "internalType": "string",
                    "name": "baseURI",
                    "type": "string"
                }
            ],
            "name": "setBaseURI",
            "outputs": [],
            "stateMutability": "nonpayable",
            "type": "function"
        },
        {
            "inputs": [
                {
                    "internalType": "uint256",
                    "name": "_maxMint",
                    "type": "uint256"
                }
            ],
            "name": "setMaxMint",
            "outputs": [],
            "stateMutability": "nonpayable",
            "type": "function"
        },
        {
            "inputs": [
                {
                    "internalType": "uint256",
                    "name": "_maxPresaleMint",
                    "type": "uint256"
                }
            ],
            "name": "setMaxPresaleMint",
            "outputs": [],
            "stateMutability": "nonpayable",
            "type": "function"
        },
        {
            "inputs": [
                {
                    "internalType": "bool",
                    "name": "val",
                    "type": "bool"
                }
            ],
            "name": "setPresaleActive",
            "outputs": [],
            "stateMutability": "nonpayable",
            "type": "function"
        },
        {
            "inputs": [
                {
                    "internalType": "bytes32",
                    "name": "presaleRoot",
                    "type": "bytes32"
                }
            ],
            "name": "setPresaleMerkleRoot",
            "outputs": [],
            "stateMutability": "nonpayable",
            "type": "function"
        },
        {
            "inputs": [
                {
                    "internalType": "uint256",
                    "name": "newPrice",
                    "type": "uint256"
                }
            ],
            "name": "setPrice",
            "outputs": [],
            "stateMutability": "nonpayable",
            "type": "function"
        },
        {
            "inputs": [
                {
                    "internalType": "string",
                    "name": "provenanceHash",
                    "type": "string"
                }
            ],
            "name": "setProvenanceHash",
            "outputs": [],
            "stateMutability": "nonpayable",
            "type": "function"
        },
        {
            "inputs": [
                {
                    "internalType": "address",
                    "name": "_proxyRegistryAddress",
                    "type": "address"
                }
            ],
            "name": "setProxyRegistryAddress",
            "outputs": [],
            "stateMutability": "view",
            "type": "function"
        },
        {
            "inputs": [
                {
                    "internalType": "bool",
                    "name": "val",
                    "type": "bool"
                }
            ],
            "name": "setSaleActive",
            "outputs": [],
            "stateMutability": "nonpayable",
            "type": "function"
        },
        {
            "inputs": [
                {
                    "internalType": "bytes4",
                    "name": "interfaceId",
                    "type": "bytes4"
                }
            ],
            "name": "supportsInterface",
            "outputs": [
                {
                    "internalType": "bool",
                    "name": "",
                    "type": "bool"
                }
            ],
            "stateMutability": "view",
            "type": "function"
        },
        {
            "inputs": [],
            "name": "symbol",
            "outputs": [
                {
                    "internalType": "string",
                    "name": "",
                    "type": "string"
                }
            ],
            "stateMutability": "view",
            "type": "function"
        },
        {
            "inputs": [
                {
                    "internalType": "uint256",
                    "name": "tokenId",
                    "type": "uint256"
                }
            ],
            "name": "tokenURI",
            "outputs": [
                {
                    "internalType": "string",
                    "name": "",
                    "type": "string"
                }
            ],
            "stateMutability": "view",
            "type": "function"
        },
        {
            "inputs": [],
            "name": "totalSupply",
            "outputs": [
                {
                    "internalType": "uint256",
                    "name": "",
                    "type": "uint256"
                }
            ],
            "stateMutability": "view",
            "type": "function"
        },
        {
            "inputs": [
                {
                    "internalType": "address",
                    "name": "from",
                    "type": "address"
                },
                {
                    "internalType": "address",
                    "name": "to",
                    "type": "address"
                },
                {
                    "internalType": "uint256",
                    "name": "tokenId",
                    "type": "uint256"
                }
            ],
            "name": "transferFrom",
            "outputs": [],
            "stateMutability": "nonpayable",
            "type": "function"
        },
        {
            "inputs": [
                {
                    "internalType": "address",
                    "name": "newOwner",
                    "type": "address"
                }
            ],
            "name": "transferOwnership",
            "outputs": [],
            "stateMutability": "nonpayable",
            "type": "function"
        },
        {
            "inputs": [],
            "name": "withdrawAll",
            "outputs": [],
            "stateMutability": "payable",
            "type": "function"
        }
    ],
    "bytecode": "60806040526611c37937e08000600a556002600b819055600c556014805473ea64073446e6afd80574d8a72c8e9af547a430186001600160a01b031991821681179092556015805490911690911790553480156200005c57600080fd5b50604051620027d8380380620027d88339810160408190526200007f9162000213565b6040805180820182526005815264135e53919560da1b6020808301918252835180850190945260048452631353919560e21b908401528151919291620000c8916002916200016d565b508051620000de9060039060208401906200016d565b50506000805550620000f0336200011b565b6001600955600d80546001600160a01b0319166001600160a01b039290921691909117905562000281565b600880546001600160a01b038381166001600160a01b0319831681179093556040519116919082907f8be0079c531659141344cd1fd0a4f28419497f9722a3daafe3b4186f6b6457e090600090a35050565b8280546200017b9062000245565b90600052602060002090601f0160209004810192826200019f5760008555620001ea565b82601f10620001ba57805160ff1916838001178555620001ea565b82800160010185558215620001ea579182015b82811115620001ea578251825591602001919060010190620001cd565b50620001f8929150620001fc565b5090565b5b80821115620001f85760008155600101620001fd565b6000602082840312156200022657600080fd5b81516001600160a01b03811681146200023e57600080fd5b9392505050565b600181811c908216806200025a57607f821691505b6020821081036200027b57634e487b7160e01b600052602260045260246000fd5b50919050565b61254780620002916000396000f3fe60806040526004361061025c5760003560e01c806370a0823111610144578063b4576278116100b6578063cfc86f7b1161007a578063cfc86f7b146106e4578063d26ea6c0146106f9578063e985e9c514610719578063f2fde38b14610739578063f73c814b14610759578063fba7d7cb1461077957600080fd5b8063b45762781461065b578063b88d4fde14610671578063c634d03214610691578063c87b56dd146106a4578063cd7c0326146106c457600080fd5b80638da5cb5b116101085780638da5cb5b146105a55780638eaf6867146105c357806391b7f5ed146105f057806395d89b4114610610578063a035b1fe14610625578063a22cb4651461063b57600080fd5b806370a0823114610532578063715018a6146105525780637501f74114610567578063841718a61461057d578063853828b61461059d57600080fd5b806328d7b276116101dd578063547520fe116101a1578063547520fe1461045457806355f804b3146104745780635bab26e2146104945780636352211e146104c457806368428a1b146104e45780636fffbd601461050557600080fd5b806328d7b276146103b35780633425f90c146103d35780633f8121a2146103f357806342842e0e1461041357806353135ca01461043357600080fd5b80630c0a6b5e116102245780630c0a6b5e14610327578063109695231461033a57806318160ddd1461035a57806322212e2b1461037d57806323b872dd1461039357600080fd5b806301ffc9a7146102615780630444b2761461029657806306fdde03146102b8578063081812fc146102cd578063095ea7b314610305575b600080fd5b34801561026d57600080fd5b5061028161027c366004611ef2565b610799565b60405190151581526020015b60405180910390f35b3480156102a257600080fd5b506102ab6107eb565b60405161028d9190611f67565b3480156102c457600080fd5b506102ab610879565b3480156102d957600080fd5b506102ed6102e8366004611f7a565b61090b565b6040516001600160a01b03909116815260200161028d565b34801561031157600080fd5b50610325610320366004611fa8565b61094f565b005b61032561033536600461201b565b6109dc565b34801561034657600080fd5b50610325610355366004612125565b610c5f565b34801561036657600080fd5b50600154600054035b60405190815260200161028d565b34801561038957600080fd5b5061036f60135481565b34801561039f57600080fd5b506103256103ae36600461216e565b610ca0565b3480156103bf57600080fd5b506103256103ce366004611f7a565b610cab565b3480156103df57600080fd5b506103256103ee366004611f7a565b610cda565b3480156103ff57600080fd5b5061032561040e3660046121c4565b610d09565b34801561041f57600080fd5b5061032561042e36600461216e565b610d51565b34801561043f57600080fd5b50600d5461028190600160a81b900460ff1681565b34801561046057600080fd5b5061032561046f366004611f7a565b610d6c565b34801561048057600080fd5b5061032561048f366004612125565b610d9b565b3480156104a057600080fd5b506102816104af3660046121df565b60126020526000908152604090205460ff1681565b3480156104d057600080fd5b506102ed6104df366004611f7a565b610dd8565b3480156104f057600080fd5b50600d5461028190600160a01b900460ff1681565b34801561051157600080fd5b5061036f6105203660046121df565b60116020526000908152604090205481565b34801561053e57600080fd5b5061036f61054d3660046121df565b610dea565b34801561055e57600080fd5b50610325610e39565b34801561057357600080fd5b5061036f600b5481565b34801561058957600080fd5b506103256105983660046121c4565b610e6f565b610325610eb7565b3480156105b157600080fd5b506008546001600160a01b03166102ed565b3480156105cf57600080fd5b5061036f6105de3660046121df565b60106020526000908152604090205481565b3480156105fc57600080fd5b5061032561060b366004611f7a565b610f66565b34801561061c57600080fd5b506102ab610f95565b34801561063157600080fd5b5061036f600a5481565b34801561064757600080fd5b506103256106563660046121fc565b610fa4565b34801561066757600080fd5b5061036f600c5481565b34801561067d57600080fd5b5061032561068c366004612231565b611039565b61032561069f366004611f7a565b61108a565b3480156106b057600080fd5b506102ab6106bf366004611f7a565b6112c8565b3480156106d057600080fd5b50600d546102ed906001600160a01b031681565b3480156106f057600080fd5b506102ab61134c565b34801561070557600080fd5b506103256107143660046121df565b611359565b34801561072557600080fd5b506102816107343660046122b1565b611386565b34801561074557600080fd5b506103256107543660046121df565b61146a565b34801561076557600080fd5b506103256107743660046121df565b611502565b34801561078557600080fd5b50610325610794366004611f7a565b611555565b60006001600160e01b031982166380ac58cd60e01b14806107ca57506001600160e01b03198216635b5e139f60e01b145b806107e557506301ffc9a760e01b6001600160e01b03198316145b92915050565b600f80546107f8906122ea565b80601f0160208091040260200160405190810160405280929190818152602001828054610824906122ea565b80156108715780601f1061084657610100808354040283529160200191610871565b820191906000526020600020905b81548152906001019060200180831161085457829003601f168201915b505050505081565b606060028054610888906122ea565b80601f01602080910402602001604051908101604052809291908181526020018280546108b4906122ea565b80156109015780601f106108d657610100808354040283529160200191610901565b820191906000526020600020905b8154815290600101906020018083116108e457829003601f168201915b5050505050905090565b6000610916826115e5565b610933576040516333d1c03960e21b815260040160405180910390fd5b506000908152600660205260409020546001600160a01b031690565b600061095a82610dd8565b9050806001600160a01b0316836001600160a01b03160361098e5760405163250fdee360e21b815260040160405180910390fd5b336001600160a01b038216148015906109ae57506109ac8133611386565b155b156109cc576040516367d9dca160e11b815260040160405180910390fd5b6109d7838383611610565b505050565b600d54600160a81b900460ff16610a325760405162461bcd60e51b815260206004820152601560248201527450726573616c65206973206e6f742061637469766560581b60448201526064015b60405180910390fd5b600260095403610a845760405162461bcd60e51b815260206004820152601f60248201527f5265656e7472616e637947756172643a207265656e7472616e742063616c6c006044820152606401610a29565b60026009556013546040516bffffffffffffffffffffffff193360601b166020820152610acb9183916034016040516020818303038152906040528051906020012061166c565b610b225760405162461bcd60e51b815260206004820152602260248201527f41646472657373206973206e6f74206f6e2031204d494e5420416c6c6f776c696044820152611cdd60f21b6064820152608401610a29565b3482600a54610b31919061233a565b14610b785760405162461bcd60e51b815260206004820152601760248201527615dc9bdb99c8185b5bdd5d081bd988115512081cd95b9d604a1b6044820152606401610a29565b600c5433600090815260106020526040902054610b96908490612359565b14610bef5760405162461bcd60e51b8152602060048201526024808201527f43616e206f6e6c79206d696e74203120746f6b656e20647572696e672050726560448201526353616c6560e01b6064820152608401610a29565b6103e782610c006001546000540390565b610c0a9190612359565b10610c275760405162461bcd60e51b8152600401610a2990612371565b3360009081526010602052604081208054849290610c46908490612359565b90915550610c5690503383611682565b50506001600955565b6008546001600160a01b03163314610c895760405162461bcd60e51b8152600401610a29906123b2565b8051610c9c90600f906020840190611e43565b5050565b6109d783838361169c565b6008546001600160a01b03163314610cd55760405162461bcd60e51b8152600401610a29906123b2565b601355565b6008546001600160a01b03163314610d045760405162461bcd60e51b8152600401610a29906123b2565b600c55565b6008546001600160a01b03163314610d335760405162461bcd60e51b8152600401610a29906123b2565b600d8054911515600160a81b0260ff60a81b19909216919091179055565b6109d783838360405180602001604052806000815250611039565b6008546001600160a01b03163314610d965760405162461bcd60e51b8152600401610a29906123b2565b600b55565b6008546001600160a01b03163314610dc55760405162461bcd60e51b8152600401610a29906123b2565b8051610c9c90600e906020840190611e43565b6000610de38261188c565b5192915050565b60006001600160a01b038216610e13576040516323d3ad8160e21b815260040160405180910390fd5b506001600160a01b031660009081526005602052604090205467ffffffffffffffff1690565b6008546001600160a01b03163314610e635760405162461bcd60e51b8152600401610a29906123b2565b610e6d60006119a8565b565b6008546001600160a01b03163314610e995760405162461bcd60e51b8152600401610a29906123b2565b600d8054911515600160a01b0260ff60a01b19909216919091179055565b6008546001600160a01b03163314610ee15760405162461bcd60e51b8152600401610a29906123b2565b476000610eef6064836123fd565b6014549091506001600160a01b03166108fc610f0c83603261233a565b6040518115909202916000818181858888f19350505050610f2c57600080fd5b6015546001600160a01b03166108fc610f4683603261233a565b6040518115909202916000818181858888f19350505050610c9c57600080fd5b6008546001600160a01b03163314610f905760405162461bcd60e51b8152600401610a29906123b2565b600a55565b606060038054610888906122ea565b336001600160a01b03831603610fcd5760405163b06307db60e01b815260040160405180910390fd5b3360008181526007602090815260408083206001600160a01b03871680855290835292819020805460ff191686151590811790915590519081529192917f17307eab39ab6107e8899845ad3d59bd9653f200f220920489ca2b5937696c31910160405180910390a35050565b61104484848461169c565b6001600160a01b0383163b151580156110665750611064848484846119fa565b155b15611084576040516368d2bf6b60e11b815260040160405180910390fd5b50505050565b600d54600160a01b900460ff166110e35760405162461bcd60e51b815260206004820152601960248201527f5075626c69632073616c65206973206e6f7420616374697665000000000000006044820152606401610a29565b6002600954036111355760405162461bcd60e51b815260206004820152601f60248201527f5265656e7472616e637947756172643a207265656e7472616e742063616c6c006044820152606401610a29565b6002600955600b548111156111965760405162461bcd60e51b815260206004820152602160248201527f596f752063616e206e6f74206d696e74206d6f7265207468616e20616c6f77656044820152601960fa1b6064820152608401610a29565b3481600a546111a5919061233a565b146111ec5760405162461bcd60e51b815260206004820152601760248201527615dc9bdb99c8185b5bdd5d081bd988115512081cd95b9d604a1b6044820152606401610a29565b600b543360009081526011602052604090205461120a908390612359565b11156112585760405162461bcd60e51b815260206004820152601a60248201527f43616e206f6e6c79206d696e742032207065722077616c6c65740000000000006044820152606401610a29565b6103e7816112696001546000540390565b6112739190612359565b11156112915760405162461bcd60e51b8152600401610a2990612371565b33600090815260116020526040812080548392906112b0908490612359565b909155506112c090503382611682565b506001600955565b60606112d3826115e5565b6112f057604051630a14c4b560e41b815260040160405180910390fd5b60006112fa611ae5565b9050805160000361131a5760405180602001604052806000815250611345565b8061132484611af4565b604051602001611335929190612411565b6040516020818303038152906040525b9392505050565b600e80546107f8906122ea565b6008546001600160a01b031633146113835760405162461bcd60e51b8152600401610a29906123b2565b50565b600d5460405163c455279160e01b81526001600160a01b03848116600483015260009281169190841690829063c455279190602401602060405180830381865afa1580156113d8573d6000803e3d6000fd5b505050506040513d601f19601f820116820180604052508101906113fc9190612440565b6001600160a01b0316148061142957506001600160a01b03831660009081526012602052604090205460ff165b156114385760019150506107e5565b6001600160a01b0380851660009081526007602090815260408083209387168352929052205460ff165b949350505050565b6008546001600160a01b031633146114945760405162461bcd60e51b8152600401610a29906123b2565b6001600160a01b0381166114f95760405162461bcd60e51b815260206004820152602660248201527f4f776e61626c653a206e6577206f776e657220697320746865207a65726f206160448201526564647265737360d01b6064820152608401610a29565b611383816119a8565b6008546001600160a01b0316331461152c5760405162461bcd60e51b8152600401610a29906123b2565b6001600160a01b03166000908152601260205260409020805460ff19811660ff90911615179055565b6008546001600160a01b0316331461157f5760405162461bcd60e51b8152600401610a29906123b2565b6103e7816115906001546000540390565b61159a9190612359565b11156115db5760405162461bcd60e51b815260206004820152601060248201526f4d696e74696e6720746f6f206d616e7960801b6044820152606401610a29565b6113833382611682565b60008054821080156107e5575050600090815260046020526040902054600160e01b900460ff161590565b60008281526006602052604080822080546001600160a01b0319166001600160a01b0387811691821790925591518593918516917f8c5be1e5ebec7d5bd14f71427d1e84f3dd0314c0f7b2291e5b200ac8c7c3b92591a4505050565b6000826116798584611bf5565b14949350505050565b610c9c828260405180602001604052806000815250611c69565b60006116a78261188c565b9050836001600160a01b031681600001516001600160a01b0316146116de5760405162a1148160e81b815260040160405180910390fd5b6000336001600160a01b03861614806116fc57506116fc8533611386565b8061171757503361170c8461090b565b6001600160a01b0316145b90508061173757604051632ce44b5f60e11b815260040160405180910390fd5b6001600160a01b03841661175e57604051633a954ecd60e21b815260040160405180910390fd5b61176a60008487611610565b6001600160a01b038581166000908152600560209081526040808320805467ffffffffffffffff1980821667ffffffffffffffff92831660001901831617909255898616808652838620805493841693831660019081018416949094179055898652600490945282852080546001600160e01b031916909417600160a01b42909216919091021783558701808452922080549193909116611840576000548214611840578054602086015167ffffffffffffffff16600160a01b026001600160e01b03199091166001600160a01b038a16171781555b50505082846001600160a01b0316866001600160a01b03167fddf252ad1be2c89b69c2b068fc378daa952ba7f163c4a11628f55a4df523b3ef60405160405180910390a45b5050505050565b60408051606081018252600080825260208201819052918101919091528160005481101561198f57600081815260046020908152604091829020825160608101845290546001600160a01b0381168252600160a01b810467ffffffffffffffff1692820192909252600160e01b90910460ff1615159181018290529061198d5780516001600160a01b031615611923579392505050565b5060001901600081815260046020908152604091829020825160608101845290546001600160a01b038116808352600160a01b820467ffffffffffffffff1693830193909352600160e01b900460ff1615159281019290925215611988579392505050565b611923565b505b604051636f96cda160e11b815260040160405180910390fd5b600880546001600160a01b038381166001600160a01b0319831681179093556040519116919082907f8be0079c531659141344cd1fd0a4f28419497f9722a3daafe3b4186f6b6457e090600090a35050565b604051630a85bd0160e11b81526000906001600160a01b0385169063150b7a0290611a2f90339089908890889060040161245d565b6020604051808303816000875af1925050508015611a6a575060408051601f3d908101601f19168201909252611a679181019061249a565b60015b611ac8573d808015611a98576040519150601f19603f3d011682016040523d82523d6000602084013e611a9d565b606091505b508051600003611ac0576040516368d2bf6b60e11b815260040160405180910390fd5b805181602001fd5b6001600160e01b031916630a85bd0160e11b149050949350505050565b6060600e8054610888906122ea565b606081600003611b1b5750506040805180820190915260018152600360fc1b602082015290565b8160005b8115611b455780611b2f816124b7565b9150611b3e9050600a836123fd565b9150611b1f565b60008167ffffffffffffffff811115611b6057611b60611fd4565b6040519080825280601f01601f191660200182016040528015611b8a576020820181803683370190505b5090505b841561146257611b9f6001836124d0565b9150611bac600a866124e7565b611bb7906030612359565b60f81b818381518110611bcc57611bcc6124fb565b60200101906001600160f81b031916908160001a905350611bee600a866123fd565b9450611b8e565b600081815b8451811015611c61576000858281518110611c1757611c176124fb565b60200260200101519050808311611c3d5760008381526020829052604090209250611c4e565b600081815260208490526040902092505b5080611c59816124b7565b915050611bfa565b509392505050565b6109d783838360016000546001600160a01b038516611c9a57604051622e076360e81b815260040160405180910390fd5b83600003611cbb5760405163b562e8dd60e01b815260040160405180910390fd5b6001600160a01b038516600081815260056020908152604080832080546fffffffffffffffffffffffffffffffff19811667ffffffffffffffff8083168c0181169182176801000000000000000067ffffffffffffffff1990941690921783900481168c01811690920217909155858452600490925290912080546001600160e01b031916909217600160a01b429092169190910217905580808501838015611d6d57506001600160a01b0387163b15155b15611df5575b60405182906001600160a01b038916906000907fddf252ad1be2c89b69c2b068fc378daa952ba7f163c4a11628f55a4df523b3ef908290a4611dbe60008884806001019550886119fa565b611ddb576040516368d2bf6b60e11b815260040160405180910390fd5b808203611d73578260005414611df057600080fd5b611e3a565b5b6040516001830192906001600160a01b038916906000907fddf252ad1be2c89b69c2b068fc378daa952ba7f163c4a11628f55a4df523b3ef908290a4808203611df6575b50600055611885565b828054611e4f906122ea565b90600052602060002090601f016020900481019282611e715760008555611eb7565b82601f10611e8a57805160ff1916838001178555611eb7565b82800160010185558215611eb7579182015b82811115611eb7578251825591602001919060010190611e9c565b50611ec3929150611ec7565b5090565b5b80821115611ec35760008155600101611ec8565b6001600160e01b03198116811461138357600080fd5b600060208284031215611f0457600080fd5b813561134581611edc565b60005b83811015611f2a578181015183820152602001611f12565b838111156110845750506000910152565b60008151808452611f53816020860160208601611f0f565b601f01601f19169290920160200192915050565b6020815260006113456020830184611f3b565b600060208284031215611f8c57600080fd5b5035919050565b6001600160a01b038116811461138357600080fd5b60008060408385031215611fbb57600080fd5b8235611fc681611f93565b946020939093013593505050565b634e487b7160e01b600052604160045260246000fd5b604051601f8201601f1916810167ffffffffffffffff8111828210171561201357612013611fd4565b604052919050565b6000806040838503121561202e57600080fd5b8235915060208084013567ffffffffffffffff8082111561204e57600080fd5b818601915086601f83011261206257600080fd5b81358181111561207457612074611fd4565b8060051b9150612085848301611fea565b818152918301840191848101908984111561209f57600080fd5b938501935b838510156120bd578435825293850193908501906120a4565b8096505050505050509250929050565b600067ffffffffffffffff8311156120e7576120e7611fd4565b6120fa601f8401601f1916602001611fea565b905082815283838301111561210e57600080fd5b828260208301376000602084830101529392505050565b60006020828403121561213757600080fd5b813567ffffffffffffffff81111561214e57600080fd5b8201601f8101841361215f57600080fd5b611462848235602084016120cd565b60008060006060848603121561218357600080fd5b833561218e81611f93565b9250602084013561219e81611f93565b929592945050506040919091013590565b803580151581146121bf57600080fd5b919050565b6000602082840312156121d657600080fd5b611345826121af565b6000602082840312156121f157600080fd5b813561134581611f93565b6000806040838503121561220f57600080fd5b823561221a81611f93565b9150612228602084016121af565b90509250929050565b6000806000806080858703121561224757600080fd5b843561225281611f93565b9350602085013561226281611f93565b925060408501359150606085013567ffffffffffffffff81111561228557600080fd5b8501601f8101871361229657600080fd5b6122a5878235602084016120cd565b91505092959194509250565b600080604083850312156122c457600080fd5b82356122cf81611f93565b915060208301356122df81611f93565b809150509250929050565b600181811c908216806122fe57607f821691505b60208210810361231e57634e487b7160e01b600052602260045260246000fd5b50919050565b634e487b7160e01b600052601160045260246000fd5b600081600019048311821515161561235457612354612324565b500290565b6000821982111561236c5761236c612324565b500190565b60208082526021908201527f43616e206e6f74206d696e74206d6f7265207468616e206d617820737570706c6040820152607960f81b606082015260800190565b6020808252818101527f4f776e61626c653a2063616c6c6572206973206e6f7420746865206f776e6572604082015260600190565b634e487b7160e01b600052601260045260246000fd5b60008261240c5761240c6123e7565b500490565b60008351612423818460208801611f0f565b835190830190612437818360208801611f0f565b01949350505050565b60006020828403121561245257600080fd5b815161134581611f93565b6001600160a01b038581168252841660208201526040810183905260806060820181905260009061249090830184611f3b565b9695505050505050565b6000602082840312156124ac57600080fd5b815161134581611edc565b6000600182016124c9576124c9612324565b5060010190565b6000828210156124e2576124e2612324565b500390565b6000826124f6576124f66123e7565b500690565b634e487b7160e01b600052603260045260246000fdfea2646970667358221220c8eb2ae2c83f618d15349c1ac7addbf73d94c4a84b5042cfd9d52dd9edf2560a64736f6c634300080d0033",
    "sourcePath": "c:/Users/Robert/Documents/GitHub/erc721a-smart-contract-merkle-whitelist/contracts/MyNFT.sol",
    "compiler": {
        "name": "solc",
        "version": "0.8.13+commit.abaa5c0e"
    },
    "functionHashes": {
        "NFTProvenance()": "0444b276",
        "_baseTokenURI()": "cfc86f7b",
        "_tokensMintedByAddress(address)": "8eaf6867",
        "approve(address,uint256)": "095ea7b3",
        "balanceOf(address)": "70a08231",
        "flipProxyState(address)": "f73c814b",
        "getApproved(uint256)": "081812fc",
        "isApprovedForAll(address,address)": "e985e9c5",
        "maxMint()": "7501f741",
        "maxPresaleMint()": "b4576278",
        "mintDev(uint256)": "fba7d7cb",
        "mintPresale(uint256,bytes32[])": "0c0a6b5e",
        "mintToken(uint256)": "c634d032",
        "name()": "06fdde03",
        "owner()": "8da5cb5b",
        "ownerOf(uint256)": "6352211e",
        "presaleActive()": "53135ca0",
        "presaleMerkleRoot()": "22212e2b",
        "price()": "a035b1fe",
        "projectProxy(address)": "5bab26e2",
        "proxyRegistryAddress()": "cd7c0326",
        "publicsaleAddressMinted(address)": "6fffbd60",
        "renounceOwnership()": "715018a6",
        "safeTransferFrom(address,address,uint256)": "42842e0e",
        "safeTransferFrom(address,address,uint256,bytes)": "b88d4fde",
        "saleActive()": "68428a1b",
        "setApprovalForAll(address,bool)": "a22cb465",
        "setBaseURI(string)": "55f804b3",
        "setMaxMint(uint256)": "547520fe",
        "setMaxPresaleMint(uint256)": "3425f90c",
        "setPresaleActive(bool)": "3f8121a2",
        "setPresaleMerkleRoot(bytes32)": "28d7b276",
        "setPrice(uint256)": "91b7f5ed",
        "setProvenanceHash(string)": "10969523",
        "setProxyRegistryAddress(address)": "d26ea6c0",
        "setSaleActive(bool)": "841718a6",
        "supportsInterface(bytes4)": "01ffc9a7",
        "symbol()": "95d89b41",
        "tokenURI(uint256)": "c87b56dd",
        "totalSupply()": "18160ddd",
        "transferFrom(address,address,uint256)": "23b872dd",
        "transferOwnership(address)": "f2fde38b",
        "withdrawAll()": "853828b6"
    },
    "gasEstimates": {
        "creation": {
            "codeDepositCost": "1908600",
            "executionCost": "infinite",
            "totalCost": "infinite"
        },
        "external": {
            "NFTProvenance()": "infinite",
            "_baseTokenURI()": "infinite",
            "_tokensMintedByAddress(address)": "2580",
            "approve(address,uint256)": "infinite",
            "balanceOf(address)": "2635",
            "flipProxyState(address)": "26891",
            "getApproved(uint256)": "6981",
            "isApprovedForAll(address,address)": "infinite",
            "maxMint()": "2385",
            "maxPresaleMint()": "2340",
            "mintDev(uint256)": "infinite",
            "mintPresale(uint256,bytes32[])": "infinite",
            "mintToken(uint256)": "infinite",
            "name()": "infinite",
            "owner()": "2376",
            "ownerOf(uint256)": "infinite",
            "presaleActive()": "2450",
            "presaleMerkleRoot()": "2407",
            "price()": "2428",
            "projectProxy(address)": "2603",
            "proxyRegistryAddress()": "2470",
            "publicsaleAddressMinted(address)": "2668",
            "renounceOwnership()": "28185",
            "safeTransferFrom(address,address,uint256)": "infinite",
            "safeTransferFrom(address,address,uint256,bytes)": "infinite",
            "saleActive()": "2449",
            "setApprovalForAll(address,bool)": "26804",
            "setBaseURI(string)": "infinite",
            "setMaxMint(uint256)": "24509",
            "setMaxPresaleMint(uint256)": "24532",
            "setPresaleActive(bool)": "26785",
            "setPresaleMerkleRoot(bytes32)": "24510",
            "setPrice(uint256)": "24553",
            "setProvenanceHash(string)": "infinite",
            "setProxyRegistryAddress(address)": "infinite",
            "setSaleActive(bool)": "26807",
            "supportsInterface(bytes4)": "557",
            "symbol()": "infinite",
            "tokenURI(uint256)": "infinite",
            "totalSupply()": "4477",
            "transferFrom(address,address,uint256)": "infinite",
            "transferOwnership(address)": "infinite",
            "withdrawAll()": "infinite"
        },
        "internal": {
            "_baseURI()": "infinite"
        }
    }
}