{
    "contractName": "MyNFT",
    "abi": [
        {
            "inputs": [],
            "stateMutability": "nonpayable",
            "type": "constructor"
        },
        {
            "inputs": [],
            "name": "ApprovalCallerNotOwnerNorApproved",
            "type": "error"
        },
        {
            "inputs": [],
            "name": "ApprovalQueryForNonexistentToken",
            "type": "error"
        },
        {
            "inputs": [],
            "name": "ApprovalToCurrentOwner",
            "type": "error"
        },
        {
            "inputs": [],
            "name": "ApproveToCaller",
            "type": "error"
        },
        {
            "inputs": [],
            "name": "BalanceQueryForZeroAddress",
            "type": "error"
        },
        {
            "inputs": [],
            "name": "MintToZeroAddress",
            "type": "error"
        },
        {
            "inputs": [],
            "name": "MintZeroQuantity",
            "type": "error"
        },
        {
            "inputs": [],
            "name": "OwnerQueryForNonexistentToken",
            "type": "error"
        },
        {
            "inputs": [],
            "name": "TransferCallerNotOwnerNorApproved",
            "type": "error"
        },
        {
            "inputs": [],
            "name": "TransferFromIncorrectOwner",
            "type": "error"
        },
        {
            "inputs": [],
            "name": "TransferToNonERC721ReceiverImplementer",
            "type": "error"
        },
        {
            "inputs": [],
            "name": "TransferToZeroAddress",
            "type": "error"
        },
        {
            "inputs": [],
            "name": "URIQueryForNonexistentToken",
            "type": "error"
        },
        {
            "anonymous": false,
            "inputs": [
                {
                    "indexed": true,
                    "internalType": "address",
                    "name": "owner",
                    "type": "address"
                },
                {
                    "indexed": true,
                    "internalType": "address",
                    "name": "approved",
                    "type": "address"
                },
                {
                    "indexed": true,
                    "internalType": "uint256",
                    "name": "tokenId",
                    "type": "uint256"
                }
            ],
            "name": "Approval",
            "type": "event"
        },
        {
            "anonymous": false,
            "inputs": [
                {
                    "indexed": true,
                    "internalType": "address",
                    "name": "owner",
                    "type": "address"
                },
                {
                    "indexed": true,
                    "internalType": "address",
                    "name": "operator",
                    "type": "address"
                },
                {
                    "indexed": false,
                    "internalType": "bool",
                    "name": "approved",
                    "type": "bool"
                }
            ],
            "name": "ApprovalForAll",
            "type": "event"
        },
        {
            "anonymous": false,
            "inputs": [
                {
                    "indexed": true,
                    "internalType": "address",
                    "name": "previousOwner",
                    "type": "address"
                },
                {
                    "indexed": true,
                    "internalType": "address",
                    "name": "newOwner",
                    "type": "address"
                }
            ],
            "name": "OwnershipTransferred",
            "type": "event"
        },
        {
            "anonymous": false,
            "inputs": [
                {
                    "indexed": true,
                    "internalType": "address",
                    "name": "from",
                    "type": "address"
                },
                {
                    "indexed": true,
                    "internalType": "address",
                    "name": "to",
                    "type": "address"
                },
                {
                    "indexed": true,
                    "internalType": "uint256",
                    "name": "tokenId",
                    "type": "uint256"
                }
            ],
            "name": "Transfer",
            "type": "event"
        },
        {
            "inputs": [],
            "name": "_baseTokenURI",
            "outputs": [
                {
                    "internalType": "string",
                    "name": "",
                    "type": "string"
                }
            ],
            "stateMutability": "view",
            "type": "function"
        },
        {
            "inputs": [
                {
                    "internalType": "address",
                    "name": "",
                    "type": "address"
                }
            ],
            "name": "_tokensMintedByAddress",
            "outputs": [
                {
                    "internalType": "uint256",
                    "name": "",
                    "type": "uint256"
                }
            ],
            "stateMutability": "view",
            "type": "function"
        },
        {
            "inputs": [
                {
                    "internalType": "address",
                    "name": "to",
                    "type": "address"
                },
                {
                    "internalType": "uint256",
                    "name": "tokenId",
                    "type": "uint256"
                }
            ],
            "name": "approve",
            "outputs": [],
            "stateMutability": "nonpayable",
            "type": "function"
        },
        {
            "inputs": [
                {
                    "internalType": "address",
                    "name": "owner",
                    "type": "address"
                }
            ],
            "name": "balanceOf",
            "outputs": [
                {
                    "internalType": "uint256",
                    "name": "",
                    "type": "uint256"
                }
            ],
            "stateMutability": "view",
            "type": "function"
        },
        {
            "inputs": [],
            "name": "contestMerkleRoot",
            "outputs": [
                {
                    "internalType": "bytes32",
                    "name": "",
                    "type": "bytes32"
                }
            ],
            "stateMutability": "view",
            "type": "function"
        },
        {
            "inputs": [
                {
                    "internalType": "uint256",
                    "name": "tokenId",
                    "type": "uint256"
                }
            ],
            "name": "getApproved",
            "outputs": [
                {
                    "internalType": "address",
                    "name": "",
                    "type": "address"
                }
            ],
            "stateMutability": "view",
            "type": "function"
        },
        {
            "inputs": [],
            "name": "homiesProvenance",
            "outputs": [
                {
                    "internalType": "string",
                    "name": "",
                    "type": "string"
                }
            ],
            "stateMutability": "view",
            "type": "function"
        },
        {
            "inputs": [
                {
                    "internalType": "address",
                    "name": "owner",
                    "type": "address"
                },
                {
                    "internalType": "address",
                    "name": "operator",
                    "type": "address"
                }
            ],
            "name": "isApprovedForAll",
            "outputs": [
                {
                    "internalType": "bool",
                    "name": "",
                    "type": "bool"
                }
            ],
            "stateMutability": "view",
            "type": "function"
        },
        {
            "inputs": [],
            "name": "maxContestMint",
            "outputs": [
                {
                    "internalType": "uint256",
                    "name": "",
                    "type": "uint256"
                }
            ],
            "stateMutability": "view",
            "type": "function"
        },
        {
            "inputs": [],
            "name": "maxMint",
            "outputs": [
                {
                    "internalType": "uint256",
                    "name": "",
                    "type": "uint256"
                }
            ],
            "stateMutability": "view",
            "type": "function"
        },
        {
            "inputs": [],
            "name": "maxPresaleMint",
            "outputs": [
                {
                    "internalType": "uint256",
                    "name": "",
                    "type": "uint256"
                }
            ],
            "stateMutability": "view",
            "type": "function"
        },
        {
            "inputs": [
                {
                    "internalType": "uint256",
                    "name": "quantity",
                    "type": "uint256"
                },
                {
                    "internalType": "bytes32[]",
                    "name": "proof",
                    "type": "bytes32[]"
                }
            ],
            "name": "mintContest",
            "outputs": [],
            "stateMutability": "payable",
            "type": "function"
        },
        {
            "inputs": [
                {
                    "internalType": "uint256",
                    "name": "quantity",
                    "type": "uint256"
                }
            ],
            "name": "mintDev",
            "outputs": [],
            "stateMutability": "nonpayable",
            "type": "function"
        },
        {
            "inputs": [
                {
                    "internalType": "uint256",
                    "name": "quantity",
                    "type": "uint256"
                },
                {
                    "internalType": "bytes32[]",
                    "name": "proof",
                    "type": "bytes32[]"
                }
            ],
            "name": "mintPresale",
            "outputs": [],
            "stateMutability": "payable",
            "type": "function"
        },
        {
            "inputs": [
                {
                    "internalType": "uint256",
                    "name": "quantity",
                    "type": "uint256"
                }
            ],
            "name": "mintToken",
            "outputs": [],
            "stateMutability": "payable",
            "type": "function"
        },
        {
            "inputs": [],
            "name": "name",
            "outputs": [
                {
                    "internalType": "string",
                    "name": "",
                    "type": "string"
                }
            ],
            "stateMutability": "view",
            "type": "function"
        },
        {
            "inputs": [],
            "name": "owner",
            "outputs": [
                {
                    "internalType": "address",
                    "name": "",
                    "type": "address"
                }
            ],
            "stateMutability": "view",
            "type": "function"
        },
        {
            "inputs": [
                {
                    "internalType": "uint256",
                    "name": "tokenId",
                    "type": "uint256"
                }
            ],
            "name": "ownerOf",
            "outputs": [
                {
                    "internalType": "address",
                    "name": "",
                    "type": "address"
                }
            ],
            "stateMutability": "view",
            "type": "function"
        },
        {
            "inputs": [],
            "name": "presaleActive",
            "outputs": [
                {
                    "internalType": "bool",
                    "name": "",
                    "type": "bool"
                }
            ],
            "stateMutability": "view",
            "type": "function"
        },
        {
            "inputs": [],
            "name": "presaleMerkleRoot",
            "outputs": [
                {
                    "internalType": "bytes32",
                    "name": "",
                    "type": "bytes32"
                }
            ],
            "stateMutability": "view",
            "type": "function"
        },
        {
            "inputs": [],
            "name": "price",
            "outputs": [
                {
                    "internalType": "uint256",
                    "name": "",
                    "type": "uint256"
                }
            ],
            "stateMutability": "view",
            "type": "function"
        },
        {
            "inputs": [
                {
                    "internalType": "address",
                    "name": "",
                    "type": "address"
                }
            ],
            "name": "publicsaleAddressMinted",
            "outputs": [
                {
                    "internalType": "uint256",
                    "name": "",
                    "type": "uint256"
                }
            ],
            "stateMutability": "view",
            "type": "function"
        },
        {
            "inputs": [],
            "name": "renounceOwnership",
            "outputs": [],
            "stateMutability": "nonpayable",
            "type": "function"
        },
        {
            "inputs": [
                {
                    "internalType": "address",
                    "name": "from",
                    "type": "address"
                },
                {
                    "internalType": "address",
                    "name": "to",
                    "type": "address"
                },
                {
                    "internalType": "uint256",
                    "name": "tokenId",
                    "type": "uint256"
                }
            ],
            "name": "safeTransferFrom",
            "outputs": [],
            "stateMutability": "nonpayable",
            "type": "function"
        },
        {
            "inputs": [
                {
                    "internalType": "address",
                    "name": "from",
                    "type": "address"
                },
                {
                    "internalType": "address",
                    "name": "to",
                    "type": "address"
                },
                {
                    "internalType": "uint256",
                    "name": "tokenId",
                    "type": "uint256"
                },
                {
                    "internalType": "bytes",
                    "name": "_data",
                    "type": "bytes"
                }
            ],
            "name": "safeTransferFrom",
            "outputs": [],
            "stateMutability": "nonpayable",
            "type": "function"
        },
        {
            "inputs": [],
            "name": "saleActive",
            "outputs": [
                {
                    "internalType": "bool",
                    "name": "",
                    "type": "bool"
                }
            ],
            "stateMutability": "view",
            "type": "function"
        },
        {
            "inputs": [
                {
                    "internalType": "address",
                    "name": "operator",
                    "type": "address"
                },
                {
                    "internalType": "bool",
                    "name": "approved",
                    "type": "bool"
                }
            ],
            "name": "setApprovalForAll",
            "outputs": [],
            "stateMutability": "nonpayable",
            "type": "function"
        },
        {
            "inputs": [
                {
                    "internalType": "string",
                    "name": "baseURI",
                    "type": "string"
                }
            ],
            "name": "setBaseURI",
            "outputs": [],
            "stateMutability": "nonpayable",
            "type": "function"
        },
        {
            "inputs": [
                {
                    "internalType": "bytes32",
                    "name": "contestRoot",
                    "type": "bytes32"
                }
            ],
            "name": "setContestMerkleRoot",
            "outputs": [],
            "stateMutability": "nonpayable",
            "type": "function"
        },
        {
            "inputs": [
                {
                    "internalType": "uint256",
                    "name": "_maxContestMint",
                    "type": "uint256"
                }
            ],
            "name": "setMaxContestMint",
            "outputs": [],
            "stateMutability": "nonpayable",
            "type": "function"
        },
        {
            "inputs": [
                {
                    "internalType": "uint256",
                    "name": "_maxMint",
                    "type": "uint256"
                }
            ],
            "name": "setMaxMint",
            "outputs": [],
            "stateMutability": "nonpayable",
            "type": "function"
        },
        {
            "inputs": [
                {
                    "internalType": "uint256",
                    "name": "_maxPresaleMint",
                    "type": "uint256"
                }
            ],
            "name": "setMaxPresaleMint",
            "outputs": [],
            "stateMutability": "nonpayable",
            "type": "function"
        },
        {
            "inputs": [
                {
                    "internalType": "bool",
                    "name": "val",
                    "type": "bool"
                }
            ],
            "name": "setPresaleActive",
            "outputs": [],
            "stateMutability": "nonpayable",
            "type": "function"
        },
        {
            "inputs": [
                {
                    "internalType": "bytes32",
                    "name": "presaleRoot",
                    "type": "bytes32"
                }
            ],
            "name": "setPresaleMerkleRoot",
            "outputs": [],
            "stateMutability": "nonpayable",
            "type": "function"
        },
        {
            "inputs": [
                {
                    "internalType": "uint256",
                    "name": "newPrice",
                    "type": "uint256"
                }
            ],
            "name": "setPrice",
            "outputs": [],
            "stateMutability": "nonpayable",
            "type": "function"
        },
        {
            "inputs": [
                {
                    "internalType": "string",
                    "name": "provenanceHash",
                    "type": "string"
                }
            ],
            "name": "setProvenanceHash",
            "outputs": [],
            "stateMutability": "nonpayable",
            "type": "function"
        },
        {
            "inputs": [
                {
                    "internalType": "bool",
                    "name": "val",
                    "type": "bool"
                }
            ],
            "name": "setSaleActive",
            "outputs": [],
            "stateMutability": "nonpayable",
            "type": "function"
        },
        {
            "inputs": [
                {
                    "internalType": "bytes4",
                    "name": "interfaceId",
                    "type": "bytes4"
                }
            ],
            "name": "supportsInterface",
            "outputs": [
                {
                    "internalType": "bool",
                    "name": "",
                    "type": "bool"
                }
            ],
            "stateMutability": "view",
            "type": "function"
        },
        {
            "inputs": [],
            "name": "symbol",
            "outputs": [
                {
                    "internalType": "string",
                    "name": "",
                    "type": "string"
                }
            ],
            "stateMutability": "view",
            "type": "function"
        },
        {
            "inputs": [
                {
                    "internalType": "uint256",
                    "name": "tokenId",
                    "type": "uint256"
                }
            ],
            "name": "tokenURI",
            "outputs": [
                {
                    "internalType": "string",
                    "name": "",
                    "type": "string"
                }
            ],
            "stateMutability": "view",
            "type": "function"
        },
        {
            "inputs": [],
            "name": "totalSupply",
            "outputs": [
                {
                    "internalType": "uint256",
                    "name": "",
                    "type": "uint256"
                }
            ],
            "stateMutability": "view",
            "type": "function"
        },
        {
            "inputs": [
                {
                    "internalType": "address",
                    "name": "from",
                    "type": "address"
                },
                {
                    "internalType": "address",
                    "name": "to",
                    "type": "address"
                },
                {
                    "internalType": "uint256",
                    "name": "tokenId",
                    "type": "uint256"
                }
            ],
            "name": "transferFrom",
            "outputs": [],
            "stateMutability": "nonpayable",
            "type": "function"
        },
        {
            "inputs": [
                {
                    "internalType": "address",
                    "name": "newOwner",
                    "type": "address"
                }
            ],
            "name": "transferOwnership",
            "outputs": [],
            "stateMutability": "nonpayable",
            "type": "function"
        },
        {
            "inputs": [],
            "name": "withdrawAll",
            "outputs": [],
            "stateMutability": "payable",
            "type": "function"
        }
    ],
    "bytecode": "60806040526611c37937e08000600a556002600b8190556001600c55600d55601580546001600160a01b031990811673b21e19093deec7cd11428ad4619f351e6daad65317909155601680548216737f1086b3aea172d38f51e7fa466eec27ea4585581790556017805490911673660fe4fb6bea04b4cc5c68b0cb99b939d982d8571790553480156200009157600080fd5b5060405180604001604052806005815260200164135e53919560da1b81525060405180604001604052806002815260200161090960f31b8152508160029080519060200190620000e39291906200051a565b508051620000f99060039060208401906200051a565b505060008055506200010b33620001c7565b600160098190556017546200012c916001600160a01b039091169062000219565b60155462000145906001600160a01b0316600162000219565b6016546200015e906001600160a01b0316600162000219565b6200017f734210eee2bc528b0a846eaa016ce8167a840b8b23600162000219565b620001a073c2cb0904b3ee10a71e5e61cdc5044946a1dd4983600162000219565b620001c17328834f2c5643c7d490f51ca60175beda7729ec89600162000219565b620006aa565b600880546001600160a01b038381166001600160a01b0319831681179093556040519116919082907f8be0079c531659141344cd1fd0a4f28419497f9722a3daafe3b4186f6b6457e090600090a35050565b6200023b8282604051806020016040528060008152506200023f60201b60201c565b5050565b6200024e838383600162000253565b505050565b6000546001600160a01b0385166200027d57604051622e076360e81b815260040160405180910390fd5b836000036200029f5760405163b562e8dd60e01b815260040160405180910390fd5b6001600160a01b038516600081815260056020908152604080832080546001600160801b031981166001600160401b038083168c018116918217680100000000000000006001600160401b031990941690921783900481168c01811690920217909155858452600490925290912080546001600160e01b031916909217600160a01b42909216919091021790558080850183801562000358575062000358876001600160a01b03166200041760201b6200160a1760201c565b15620003d7575b60405182906001600160a01b0389169060009060008051602062002c6b833981519152908290a460018201916200039c9060009089908862000426565b620003ba576040516368d2bf6b60e11b815260040160405180910390fd5b8082036200035f578260005414620003d157600080fd5b6200040c565b5b6040516001830192906001600160a01b0389169060009060008051602062002c6b833981519152908290a4808203620003d8575b506000555050505050565b6001600160a01b03163b151590565b604051630a85bd0160e11b81526000906001600160a01b0385169063150b7a02906200045d903390899088908890600401620005c0565b6020604051808303816000875af19250505080156200049b575060408051601f3d908101601f1916820190925262000498918101906200063b565b60015b620004fd573d808015620004cc576040519150601f19603f3d011682016040523d82523d6000602084013e620004d1565b606091505b508051600003620004f5576040516368d2bf6b60e11b815260040160405180910390fd5b805181602001fd5b6001600160e01b031916630a85bd0160e11b149050949350505050565b82805462000528906200066e565b90600052602060002090601f0160209004810192826200054c576000855562000597565b82601f106200056757805160ff191683800117855562000597565b8280016001018555821562000597579182015b82811115620005975782518255916020019190600101906200057a565b50620005a5929150620005a9565b5090565b5b80821115620005a55760008155600101620005aa565b600060018060a01b038087168352602081871681850152856040850152608060608501528451915081608085015260005b828110156200060f5785810182015185820160a001528101620005f1565b828111156200062257600060a084870101525b5050601f01601f19169190910160a00195945050505050565b6000602082840312156200064e57600080fd5b81516001600160e01b0319811681146200066757600080fd5b9392505050565b600181811c908216806200068357607f821691505b602082108103620006a457634e487b7160e01b600052602260045260246000fd5b50919050565b6125b180620006ba6000396000f3fe6080604052600436106102675760003560e01c80637501f74111610144578063b88d4fde116100b6578063e784194c1161007a578063e784194c146106de578063e985e9c5146106f4578063ecafac891461073d578063f2fde38b14610753578063f66ab12e14610773578063fba7d7cb1461079357600080fd5b8063b88d4fde14610656578063c634d03214610676578063c87b56dd14610689578063cfc86f7b146106a9578063e6207234146106be57600080fd5b806391b7f5ed1161010857806391b7f5ed146105c257806395d89b41146105e2578063a035b1fe146105f7578063a22cb4651461060d578063a68f59611461062d578063b45762781461064057600080fd5b80637501f74114610539578063841718a61461054f578063853828b61461056f5780638da5cb5b146105775780638eaf68671461059557600080fd5b80633f8121a2116101dd5780636352211e116101a15780636352211e14610488578063679fb213146104a857806368428a1b146104bd5780636fffbd60146104d757806370a0823114610504578063715018a61461052457600080fd5b80633f8121a2146103e957806342842e0e1461040957806353135ca014610429578063547520fe1461044857806355f804b31461046857600080fd5b8063109695231161022f578063109695231461033057806318160ddd1461035057806322212e2b1461037357806323b872dd1461038957806328d7b276146103a95780633425f90c146103c957600080fd5b806301ffc9a71461026c57806306fdde03146102a1578063081812fc146102c3578063095ea7b3146102fb5780630c0a6b5e1461031d575b600080fd5b34801561027857600080fd5b5061028c610287366004611f27565b6107b3565b60405190151581526020015b60405180910390f35b3480156102ad57600080fd5b506102b6610805565b6040516102989190611f9c565b3480156102cf57600080fd5b506102e36102de366004611faf565b610897565b6040516001600160a01b039091168152602001610298565b34801561030757600080fd5b5061031b610316366004611fe4565b6108db565b005b61031b61032b366004612055565b610968565b34801561033c57600080fd5b5061031b61034b36600461215f565b610b90565b34801561035c57600080fd5b50600154600054035b604051908152602001610298565b34801561037f57600080fd5b5061036560135481565b34801561039557600080fd5b5061031b6103a43660046121a8565b610bd1565b3480156103b557600080fd5b5061031b6103c4366004611faf565b610bdc565b3480156103d557600080fd5b5061031b6103e4366004611faf565b610c0b565b3480156103f557600080fd5b5061031b6104043660046121f4565b610c3a565b34801561041557600080fd5b5061031b6104243660046121a8565b610c7e565b34801561043557600080fd5b50600e5461028c90610100900460ff1681565b34801561045457600080fd5b5061031b610463366004611faf565b610c99565b34801561047457600080fd5b5061031b61048336600461215f565b610cc8565b34801561049457600080fd5b506102e36104a3366004611faf565b610d05565b3480156104b457600080fd5b506102b6610d17565b3480156104c957600080fd5b50600e5461028c9060ff1681565b3480156104e357600080fd5b506103656104f236600461220f565b60126020526000908152604090205481565b34801561051057600080fd5b5061036561051f36600461220f565b610da5565b34801561053057600080fd5b5061031b610df4565b34801561054557600080fd5b50610365600b5481565b34801561055b57600080fd5b5061031b61056a3660046121f4565b610e2a565b61031b610e67565b34801561058357600080fd5b506008546001600160a01b03166102e3565b3480156105a157600080fd5b506103656105b036600461220f565b60116020526000908152604090205481565b3480156105ce57600080fd5b5061031b6105dd366004611faf565b610f50565b3480156105ee57600080fd5b506102b6610f7f565b34801561060357600080fd5b50610365600a5481565b34801561061957600080fd5b5061031b61062836600461222a565b610f8e565b61031b61063b366004612055565b611023565b34801561064c57600080fd5b50610365600c5481565b34801561066257600080fd5b5061031b61067136600461225d565b6111c2565b61031b610684366004611faf565b611213565b34801561069557600080fd5b506102b66106a4366004611faf565b6113f0565b3480156106b557600080fd5b506102b6611474565b3480156106ca57600080fd5b5061031b6106d9366004611faf565b611481565b3480156106ea57600080fd5b50610365600d5481565b34801561070057600080fd5b5061028c61070f3660046122d9565b6001600160a01b03918216600090815260076020908152604080832093909416825291909152205460ff1690565b34801561074957600080fd5b5061036560145481565b34801561075f57600080fd5b5061031b61076e36600461220f565b6114b0565b34801561077f57600080fd5b5061031b61078e366004611faf565b61154b565b34801561079f57600080fd5b5061031b6107ae366004611faf565b61157a565b60006001600160e01b031982166380ac58cd60e01b14806107e457506001600160e01b03198216635b5e139f60e01b145b806107ff57506301ffc9a760e01b6001600160e01b03198316145b92915050565b60606002805461081490612303565b80601f016020809104026020016040519081016040528092919081815260200182805461084090612303565b801561088d5780601f106108625761010080835404028352916020019161088d565b820191906000526020600020905b81548152906001019060200180831161087057829003601f168201915b5050505050905090565b60006108a282611619565b6108bf576040516333d1c03960e21b815260040160405180910390fd5b506000908152600660205260409020546001600160a01b031690565b60006108e682610d05565b9050806001600160a01b0316836001600160a01b03160361091a5760405163250fdee360e21b815260040160405180910390fd5b336001600160a01b0382161480159061093a5750610938813361070f565b155b15610958576040516367d9dca160e11b815260040160405180910390fd5b610963838383611644565b505050565b600e54610100900460ff166109bc5760405162461bcd60e51b815260206004820152601560248201527450726573616c65206973206e6f742061637469766560581b60448201526064015b60405180910390fd5b6002600954036109de5760405162461bcd60e51b81526004016109b39061233d565b60026009556013546040516bffffffffffffffffffffffff193360601b166020820152610a269183916034015b604051602081830303815290604052805190602001206116a0565b610a7d5760405162461bcd60e51b815260206004820152602260248201527f41646472657373206973206e6f74206f6e2031204d494e5420416c6c6f776c696044820152611cdd60f21b60648201526084016109b3565b3482600a54610a8c919061238a565b14610aa95760405162461bcd60e51b81526004016109b3906123a9565b600c5433600090815260116020526040902054610ac79084906123e0565b14610b205760405162461bcd60e51b8152602060048201526024808201527f43616e206f6e6c79206d696e74203120746f6b656e20647572696e672050726560448201526353616c6560e01b60648201526084016109b3565b61271082610b316001546000540390565b610b3b91906123e0565b10610b585760405162461bcd60e51b81526004016109b3906123f8565b3360009081526011602052604081208054849290610b779084906123e0565b90915550610b87905033836116b6565b50506001600955565b6008546001600160a01b03163314610bba5760405162461bcd60e51b81526004016109b390612439565b8051610bcd906010906020840190611e78565b5050565b6109638383836116d0565b6008546001600160a01b03163314610c065760405162461bcd60e51b81526004016109b390612439565b601355565b6008546001600160a01b03163314610c355760405162461bcd60e51b81526004016109b390612439565b600c55565b6008546001600160a01b03163314610c645760405162461bcd60e51b81526004016109b390612439565b600e80549115156101000261ff0019909216919091179055565b610963838383604051806020016040528060008152506111c2565b6008546001600160a01b03163314610cc35760405162461bcd60e51b81526004016109b390612439565b600b55565b6008546001600160a01b03163314610cf25760405162461bcd60e51b81526004016109b390612439565b8051610bcd90600f906020840190611e78565b6000610d10826118c0565b5192915050565b60108054610d2490612303565b80601f0160208091040260200160405190810160405280929190818152602001828054610d5090612303565b8015610d9d5780601f10610d7257610100808354040283529160200191610d9d565b820191906000526020600020905b815481529060010190602001808311610d8057829003601f168201915b505050505081565b60006001600160a01b038216610dce576040516323d3ad8160e21b815260040160405180910390fd5b506001600160a01b031660009081526005602052604090205467ffffffffffffffff1690565b6008546001600160a01b03163314610e1e5760405162461bcd60e51b81526004016109b390612439565b610e2860006119dc565b565b6008546001600160a01b03163314610e545760405162461bcd60e51b81526004016109b390612439565b600e805460ff1916911515919091179055565b6008546001600160a01b03163314610e915760405162461bcd60e51b81526004016109b390612439565b476000610e9f606483612484565b6015549091506001600160a01b03166108fc610ebc83602461238a565b6040518115909202916000818181858888f19350505050610edc57600080fd5b6016546001600160a01b03166108fc610ef683601261238a565b6040518115909202916000818181858888f19350505050610f1657600080fd5b6017546001600160a01b03166108fc610f3083602e61238a565b6040518115909202916000818181858888f19350505050610bcd57600080fd5b6008546001600160a01b03163314610f7a5760405162461bcd60e51b81526004016109b390612439565b600a55565b60606003805461081490612303565b336001600160a01b03831603610fb75760405163b06307db60e01b815260040160405180910390fd5b3360008181526007602090815260408083206001600160a01b03871680855290835292819020805460ff191686151590811790915590519081529192917f17307eab39ab6107e8899845ad3d59bd9653f200f220920489ca2b5937696c31910160405180910390a35050565b600e54610100900460ff166110725760405162461bcd60e51b815260206004820152601560248201527450726573616c65206973206e6f742061637469766560581b60448201526064016109b3565b6002600954036110945760405162461bcd60e51b81526004016109b39061233d565b60026009556014546040516bffffffffffffffffffffffff193360601b1660208201526110c5918391603401610a0b565b61111c5760405162461bcd60e51b815260206004820152602260248201527f41646472657373206973206e6f74206f6e2032204d494e5420416c6c6f776c696044820152611cdd60f21b60648201526084016109b3565b3482600a5461112b919061238a565b146111485760405162461bcd60e51b81526004016109b3906123a9565b600d54336000908152601160205260409020546111669084906123e0565b1115610b205760405162461bcd60e51b815260206004820152602560248201527f43616e206f6e6c79206d696e74203220746f6b656e7320647572696e672050726044820152646553616c6560d81b60648201526084016109b3565b6111cd8484846116d0565b6001600160a01b0383163b151580156111ef57506111ed84848484611a2e565b155b1561120d576040516368d2bf6b60e11b815260040160405180910390fd5b50505050565b600e5460ff166112655760405162461bcd60e51b815260206004820152601960248201527f5075626c69632073616c65206973206e6f74206163746976650000000000000060448201526064016109b3565b6002600954036112875760405162461bcd60e51b81526004016109b39061233d565b6002600955600b548111156112e85760405162461bcd60e51b815260206004820152602160248201527f596f752063616e206e6f74206d696e74206d6f7265207468616e20616c6f77656044820152601960fa1b60648201526084016109b3565b3481600a546112f7919061238a565b146113145760405162461bcd60e51b81526004016109b3906123a9565b600b54336000908152601260205260409020546113329083906123e0565b11156113805760405162461bcd60e51b815260206004820152601a60248201527f43616e206f6e6c79206d696e742032207065722077616c6c657400000000000060448201526064016109b3565b612710816113916001546000540390565b61139b91906123e0565b11156113b95760405162461bcd60e51b81526004016109b3906123f8565b33600090815260126020526040812080548392906113d89084906123e0565b909155506113e8905033826116b6565b506001600955565b60606113fb82611619565b61141857604051630a14c4b560e41b815260040160405180910390fd5b6000611422611b1a565b90508051600003611442576040518060200160405280600081525061146d565b8061144c84611b29565b60405160200161145d929190612498565b6040516020818303038152906040525b9392505050565b600f8054610d2490612303565b6008546001600160a01b031633146114ab5760405162461bcd60e51b81526004016109b390612439565b600d55565b6008546001600160a01b031633146114da5760405162461bcd60e51b81526004016109b390612439565b6001600160a01b03811661153f5760405162461bcd60e51b815260206004820152602660248201527f4f776e61626c653a206e6577206f776e657220697320746865207a65726f206160448201526564647265737360d01b60648201526084016109b3565b611548816119dc565b50565b6008546001600160a01b031633146115755760405162461bcd60e51b81526004016109b390612439565b601455565b6008546001600160a01b031633146115a45760405162461bcd60e51b81526004016109b390612439565b612710816115b56001546000540390565b6115bf91906123e0565b11156116005760405162461bcd60e51b815260206004820152601060248201526f4d696e74696e6720746f6f206d616e7960801b60448201526064016109b3565b61154833826116b6565b6001600160a01b03163b151590565b60008054821080156107ff575050600090815260046020526040902054600160e01b900460ff161590565b60008281526006602052604080822080546001600160a01b0319166001600160a01b0387811691821790925591518593918516917f8c5be1e5ebec7d5bd14f71427d1e84f3dd0314c0f7b2291e5b200ac8c7c3b92591a4505050565b6000826116ad8584611c2a565b14949350505050565b610bcd828260405180602001604052806000815250611c9e565b60006116db826118c0565b9050836001600160a01b031681600001516001600160a01b0316146117125760405162a1148160e81b815260040160405180910390fd5b6000336001600160a01b03861614806117305750611730853361070f565b8061174b57503361174084610897565b6001600160a01b0316145b90508061176b57604051632ce44b5f60e11b815260040160405180910390fd5b6001600160a01b03841661179257604051633a954ecd60e21b815260040160405180910390fd5b61179e60008487611644565b6001600160a01b038581166000908152600560209081526040808320805467ffffffffffffffff1980821667ffffffffffffffff92831660001901831617909255898616808652838620805493841693831660019081018416949094179055898652600490945282852080546001600160e01b031916909417600160a01b42909216919091021783558701808452922080549193909116611874576000548214611874578054602086015167ffffffffffffffff16600160a01b026001600160e01b03199091166001600160a01b038a16171781555b50505082846001600160a01b0316866001600160a01b03167fddf252ad1be2c89b69c2b068fc378daa952ba7f163c4a11628f55a4df523b3ef60405160405180910390a45b5050505050565b6040805160608101825260008082526020820181905291810191909152816000548110156119c357600081815260046020908152604091829020825160608101845290546001600160a01b0381168252600160a01b810467ffffffffffffffff1692820192909252600160e01b90910460ff161515918101829052906119c15780516001600160a01b031615611957579392505050565b5060001901600081815260046020908152604091829020825160608101845290546001600160a01b038116808352600160a01b820467ffffffffffffffff1693830193909352600160e01b900460ff16151592810192909252156119bc579392505050565b611957565b505b604051636f96cda160e11b815260040160405180910390fd5b600880546001600160a01b038381166001600160a01b0319831681179093556040519116919082907f8be0079c531659141344cd1fd0a4f28419497f9722a3daafe3b4186f6b6457e090600090a35050565b604051630a85bd0160e11b81526000906001600160a01b0385169063150b7a0290611a639033908990889088906004016124c7565b6020604051808303816000875af1925050508015611a9e575060408051601f3d908101601f19168201909252611a9b91810190612504565b60015b611afc573d808015611acc576040519150601f19603f3d011682016040523d82523d6000602084013e611ad1565b606091505b508051600003611af4576040516368d2bf6b60e11b815260040160405180910390fd5b805181602001fd5b6001600160e01b031916630a85bd0160e11b1490505b949350505050565b6060600f805461081490612303565b606081600003611b505750506040805180820190915260018152600360fc1b602082015290565b8160005b8115611b7a5780611b6481612521565b9150611b739050600a83612484565b9150611b54565b60008167ffffffffffffffff811115611b9557611b9561200e565b6040519080825280601f01601f191660200182016040528015611bbf576020820181803683370190505b5090505b8415611b1257611bd460018361253a565b9150611be1600a86612551565b611bec9060306123e0565b60f81b818381518110611c0157611c01612565565b60200101906001600160f81b031916908160001a905350611c23600a86612484565b9450611bc3565b600081815b8451811015611c96576000858281518110611c4c57611c4c612565565b60200260200101519050808311611c725760008381526020829052604090209250611c83565b600081815260208490526040902092505b5080611c8e81612521565b915050611c2f565b509392505050565b61096383838360016000546001600160a01b038516611ccf57604051622e076360e81b815260040160405180910390fd5b83600003611cf05760405163b562e8dd60e01b815260040160405180910390fd5b6001600160a01b038516600081815260056020908152604080832080546fffffffffffffffffffffffffffffffff19811667ffffffffffffffff8083168c0181169182176801000000000000000067ffffffffffffffff1990941690921783900481168c01811690920217909155858452600490925290912080546001600160e01b031916909217600160a01b429092169190910217905580808501838015611da257506001600160a01b0387163b15155b15611e2a575b60405182906001600160a01b038916906000907fddf252ad1be2c89b69c2b068fc378daa952ba7f163c4a11628f55a4df523b3ef908290a4611df36000888480600101955088611a2e565b611e10576040516368d2bf6b60e11b815260040160405180910390fd5b808203611da8578260005414611e2557600080fd5b611e6f565b5b6040516001830192906001600160a01b038916906000907fddf252ad1be2c89b69c2b068fc378daa952ba7f163c4a11628f55a4df523b3ef908290a4808203611e2b575b506000556118b9565b828054611e8490612303565b90600052602060002090601f016020900481019282611ea65760008555611eec565b82601f10611ebf57805160ff1916838001178555611eec565b82800160010185558215611eec579182015b82811115611eec578251825591602001919060010190611ed1565b50611ef8929150611efc565b5090565b5b80821115611ef85760008155600101611efd565b6001600160e01b03198116811461154857600080fd5b600060208284031215611f3957600080fd5b813561146d81611f11565b60005b83811015611f5f578181015183820152602001611f47565b8381111561120d5750506000910152565b60008151808452611f88816020860160208601611f44565b601f01601f19169290920160200192915050565b60208152600061146d6020830184611f70565b600060208284031215611fc157600080fd5b5035919050565b80356001600160a01b0381168114611fdf57600080fd5b919050565b60008060408385031215611ff757600080fd5b61200083611fc8565b946020939093013593505050565b634e487b7160e01b600052604160045260246000fd5b604051601f8201601f1916810167ffffffffffffffff8111828210171561204d5761204d61200e565b604052919050565b6000806040838503121561206857600080fd5b8235915060208084013567ffffffffffffffff8082111561208857600080fd5b818601915086601f83011261209c57600080fd5b8135818111156120ae576120ae61200e565b8060051b91506120bf848301612024565b81815291830184019184810190898411156120d957600080fd5b938501935b838510156120f7578435825293850193908501906120de565b8096505050505050509250929050565b600067ffffffffffffffff8311156121215761212161200e565b612134601f8401601f1916602001612024565b905082815283838301111561214857600080fd5b828260208301376000602084830101529392505050565b60006020828403121561217157600080fd5b813567ffffffffffffffff81111561218857600080fd5b8201601f8101841361219957600080fd5b611b1284823560208401612107565b6000806000606084860312156121bd57600080fd5b6121c684611fc8565b92506121d460208501611fc8565b9150604084013590509250925092565b80358015158114611fdf57600080fd5b60006020828403121561220657600080fd5b61146d826121e4565b60006020828403121561222157600080fd5b61146d82611fc8565b6000806040838503121561223d57600080fd5b61224683611fc8565b9150612254602084016121e4565b90509250929050565b6000806000806080858703121561227357600080fd5b61227c85611fc8565b935061228a60208601611fc8565b925060408501359150606085013567ffffffffffffffff8111156122ad57600080fd5b8501601f810187136122be57600080fd5b6122cd87823560208401612107565b91505092959194509250565b600080604083850312156122ec57600080fd5b6122f583611fc8565b915061225460208401611fc8565b600181811c9082168061231757607f821691505b60208210810361233757634e487b7160e01b600052602260045260246000fd5b50919050565b6020808252601f908201527f5265656e7472616e637947756172643a207265656e7472616e742063616c6c00604082015260600190565b634e487b7160e01b600052601160045260246000fd5b60008160001904831182151516156123a4576123a4612374565b500290565b60208082526017908201527f57726f6e6720616d6f7574206f66204554482073656e74000000000000000000604082015260600190565b600082198211156123f3576123f3612374565b500190565b60208082526021908201527f43616e206e6f74206d696e74206d6f7265207468616e206d617820737570706c6040820152607960f81b606082015260800190565b6020808252818101527f4f776e61626c653a2063616c6c6572206973206e6f7420746865206f776e6572604082015260600190565b634e487b7160e01b600052601260045260246000fd5b6000826124935761249361246e565b500490565b600083516124aa818460208801611f44565b8351908301906124be818360208801611f44565b01949350505050565b6001600160a01b03858116825284166020820152604081018390526080606082018190526000906124fa90830184611f70565b9695505050505050565b60006020828403121561251657600080fd5b815161146d81611f11565b60006001820161253357612533612374565b5060010190565b60008282101561254c5761254c612374565b500390565b6000826125605761256061246e565b500690565b634e487b7160e01b600052603260045260246000fdfea264697066735822122083c60c4462f4248d7f3b276a82228ffd394aad2522287c78c7493fb2030c492764736f6c634300080d0033ddf252ad1be2c89b69c2b068fc378daa952ba7f163c4a11628f55a4df523b3ef",
    "sourcePath": "c:/Users/Robert/Documents/GitHub/erc721a-smart-contract-merkle-whitelist/contracts/MyNFT.sol",
    "compiler": {
        "name": "solc",
        "version": "0.8.13+commit.abaa5c0e"
    },
    "functionHashes": {
        "_baseTokenURI()": "cfc86f7b",
        "_tokensMintedByAddress(address)": "8eaf6867",
        "approve(address,uint256)": "095ea7b3",
        "balanceOf(address)": "70a08231",
        "contestMerkleRoot()": "ecafac89",
        "getApproved(uint256)": "081812fc",
        "homiesProvenance()": "679fb213",
        "isApprovedForAll(address,address)": "e985e9c5",
        "maxContestMint()": "e784194c",
        "maxMint()": "7501f741",
        "maxPresaleMint()": "b4576278",
        "mintContest(uint256,bytes32[])": "a68f5961",
        "mintDev(uint256)": "fba7d7cb",
        "mintPresale(uint256,bytes32[])": "0c0a6b5e",
        "mintToken(uint256)": "c634d032",
        "name()": "06fdde03",
        "owner()": "8da5cb5b",
        "ownerOf(uint256)": "6352211e",
        "presaleActive()": "53135ca0",
        "presaleMerkleRoot()": "22212e2b",
        "price()": "a035b1fe",
        "publicsaleAddressMinted(address)": "6fffbd60",
        "renounceOwnership()": "715018a6",
        "safeTransferFrom(address,address,uint256)": "42842e0e",
        "safeTransferFrom(address,address,uint256,bytes)": "b88d4fde",
        "saleActive()": "68428a1b",
        "setApprovalForAll(address,bool)": "a22cb465",
        "setBaseURI(string)": "55f804b3",
        "setContestMerkleRoot(bytes32)": "f66ab12e",
        "setMaxContestMint(uint256)": "e6207234",
        "setMaxMint(uint256)": "547520fe",
        "setMaxPresaleMint(uint256)": "3425f90c",
        "setPresaleActive(bool)": "3f8121a2",
        "setPresaleMerkleRoot(bytes32)": "28d7b276",
        "setPrice(uint256)": "91b7f5ed",
        "setProvenanceHash(string)": "10969523",
        "setSaleActive(bool)": "841718a6",
        "supportsInterface(bytes4)": "01ffc9a7",
        "symbol()": "95d89b41",
        "tokenURI(uint256)": "c87b56dd",
        "totalSupply()": "18160ddd",
        "transferFrom(address,address,uint256)": "23b872dd",
        "transferOwnership(address)": "f2fde38b",
        "withdrawAll()": "853828b6"
    },
    "gasEstimates": {
        "creation": {
            "codeDepositCost": "1929800",
            "executionCost": "infinite",
            "totalCost": "infinite"
        },
        "external": {
            "_baseTokenURI()": "infinite",
            "_tokensMintedByAddress(address)": "2653",
            "approve(address,uint256)": "infinite",
            "balanceOf(address)": "2728",
            "contestMerkleRoot()": "2383",
            "getApproved(uint256)": "6959",
            "homiesProvenance()": "infinite",
            "isApprovedForAll(address,address)": "infinite",
            "maxContestMint()": "2339",
            "maxMint()": "2341",
            "maxPresaleMint()": "2450",
            "mintContest(uint256,bytes32[])": "infinite",
            "mintDev(uint256)": "infinite",
            "mintPresale(uint256,bytes32[])": "infinite",
            "mintToken(uint256)": "infinite",
            "name()": "infinite",
            "owner()": "2443",
            "ownerOf(uint256)": "infinite",
            "presaleActive()": "2400",
            "presaleMerkleRoot()": "2385",
            "price()": "2384",
            "publicsaleAddressMinted(address)": "2630",
            "renounceOwnership()": "28272",
            "safeTransferFrom(address,address,uint256)": "infinite",
            "safeTransferFrom(address,address,uint256,bytes)": "infinite",
            "saleActive()": "2388",
            "setApprovalForAll(address,bool)": "infinite",
            "setBaseURI(string)": "infinite",
            "setContestMerkleRoot(bytes32)": "24596",
            "setMaxContestMint(uint256)": "24597",
            "setMaxMint(uint256)": "24576",
            "setMaxPresaleMint(uint256)": "24620",
            "setPresaleActive(bool)": "26729",
            "setPresaleMerkleRoot(bytes32)": "24598",
            "setPrice(uint256)": "24509",
            "setProvenanceHash(string)": "infinite",
            "setSaleActive(bool)": "26737",
            "supportsInterface(bytes4)": "557",
            "symbol()": "infinite",
            "tokenURI(uint256)": "infinite",
            "totalSupply()": "4455",
            "transferFrom(address,address,uint256)": "infinite",
            "transferOwnership(address)": "28422",
            "withdrawAll()": "infinite"
        },
        "internal": {
            "_baseURI()": "infinite"
        }
    }
}