{
    "contractName": "OpenSeaProxyRegistry",
    "abi": [
        {
            "inputs": [
                {
                    "internalType": "address",
                    "name": "",
                    "type": "address"
                }
            ],
            "name": "proxies",
            "outputs": [
                {
                    "internalType": "contract OwnableDelegateProxy",
                    "name": "",
                    "type": "address"
                }
            ],
            "stateMutability": "view",
            "type": "function"
        }
    ],
    "bytecode": "608060405234801561001057600080fd5b5060d38061001f6000396000f3fe6080604052348015600f57600080fd5b506004361060285760003560e01c8063c455279114602d575b600080fd5b60536038366004606f565b6000602081905290815260409020546001600160a01b031681565b6040516001600160a01b03909116815260200160405180910390f35b600060208284031215608057600080fd5b81356001600160a01b0381168114609657600080fd5b939250505056fea264697066735822122029f12dfcb09729961934d85eabadc99567af39492fc02ec8ffba4505b006c76f64736f6c634300080d0033",
    "sourcePath": "c:/Users/Robert/Documents/GitHub/erc721a-smart-contract-merkle-whitelist/contracts/MyNFT.sol",
    "compiler": {
        "name": "solc",
        "version": "0.8.13+commit.abaa5c0e"
    },
    "functionHashes": {
        "proxies(address)": "c4552791"
    },
    "gasEstimates": {
        "creation": {
            "codeDepositCost": "42200",
            "executionCost": "93",
            "totalCost": "42293"
        },
        "external": {
            "proxies(address)": "2492"
        }
    }
}